:1000000019C033C07DC431C0F7C42FC02EC02DC06D
:100010002CC02BC02AC065C528C027C026C025C05B
:1000200024C023C022C021C020C01FC01EC01DC0CC
:100030001CC01BC011241FBECFEFD4E0DEBFCDBF5C
:1000400011E0A0E0B1E0ECE4FDE002C005900D920B
:10005000A032B107D9F711E0A0E2B1E001C01D92D2
:10006000AD32B107E1F7C6D36FC6CACFDF93CF93E6
:1000700000D0CDB7DEB79A83898305C089819A8184
:1000800001979A83898389819A8118161906B4F396
:100090000F900F90CF91DF910895DF93CF930F9240
:1000A000CDB7DEB7ECEBF0E084EA8083ECEBF0E078
:1000B00080818823DCF7E9EBF0E08081887F809302
:1000C000200180912001883039F080912001803119
:1000D00019F081E0898301C0198289810F90CF9145
:1000E000DF910895DF93CF93CDB7DEB7ECEBF0E06F
:1000F00084E9808380E0CF91DF910895DF93CF93EF
:1001000000D0CDB7DEB7898336D1882319F081E0DE
:100110008A8303C089815AD11A828A810F900F90F5
:10012000CF91DF910895DF93CF930F92CDB7DEB7D4
:10013000B4DF882319F081E089831BC0EBEBF0E08A
:1001400081ED8083ECEBF0E084E88083ECEBF0E081
:1001500080818823DCF7E9EBF0E08081887F809361
:10016000200180912001803419F081E0898301C051
:10017000198289810F90CF91DF910895DF93CF93FA
:1001800000D00F92CDB7DEB789838981882301F132
:10019000ECEBF0E084EC8083ECEBF0E080818823F2
:1001A000DCF7E9EBF0E08081887F8093200180918B
:1001B0002001803529F020E031E03B832A8327C0ED
:1001C000EBEBF0E08081282F30E03B832A831FC0D7
:1001D000ECEBF0E084E88083ECEBF0E080818823B6
:1001E000DCF7E9EBF0E08081887F8093200180914B
:1001F0002001883529F080E091E09B838A8307C045
:10020000EBEBF0E08081282F30E03B832A838A816A
:100210009B810F900F900F90CF91DF910895AF9237
:10022000BF92CF92DF92EF92FF920F931F93DF93D3
:10023000CF93CDB7DEB7A0970FB6F894DEBF0FBE51
:10024000CDBF87E0FE013896DF01982F1D929A9569
:10025000E9F780E053DF67DF882309F1DE011196BB
:10026000B88BAF87FE013896FA8BE98BF7E0FB8BF2
:10027000A989BA890C90E989FA893196FA8BE98BB8
:10028000AF85B8890C92EF85F8893196F88BEF87A6
:10029000FB89F150FB8B8B89882351F736C081E0B5
:1002A0006DDF888781E06ADF898781E067DF8A8781
:1002B00081E064DF8B8781E061DF8C8781E05EDF36
:1002C0008D8780E05BDF8E870DDFDE011196BD8BB1
:1002D000AC8BFE013896FF8BEE8BF7E0F88FAE8982
:1002E000BF890C90EE89FF893196FF8BEE8BAC892C
:1002F000BD890C92EC89FD893196FD8BEC8BF88DD4
:10030000F150F88F888D882351F780E0898190E043
:100310009A8120E02B8130E03C8140E04D8150E02B
:100320005E8160E06F81898F9A8F2B8F3C8F4D8F1C
:100330005E8F6F8FA98CBA8CCB8CDC8CED8CFE8C95
:100340000F8D18A12A2D3B2D4C2D5D2D6E2D7F2D4F
:10035000802F912FA0960FB6F894DEBF0FBECDBFB1
:10036000CF91DF911F910F91FF90EF90DF90CF9091
:10037000BF90AF900895DF93CF930F92CDB7DEB7C4
:100380008CDE882319F081E089831BC0EBEBF0E061
:1003900080ED8083ECEBF0E084E88083ECEBF0E030
:1003A00080818823DCF7E9EBF0E08081887F80930F
:1003B000200180912001883119F081E0898301C0FA
:1003C000198289810F90CF91DF910895DF93CF93A8
:1003D00000D0CDB7DEB78983EBEBF0E08981808375
:1003E000ECEBF0E084E88083ECEBF0E080818823A4
:1003F000DCF7E9EBF0E08081887F80932001809139
:100400002001883219F081E08A8301C01A828A8132
:100410000F900F90CF91DF910895DF93CF93CDB7D9
:10042000DEB728970FB6F894DEBF0FBECDBF298385
:100430003A834B835C836D837E838F839CDF882329
:1004400019F088E0888735C080E0C0DF8981BEDF91
:10045000882319F087E088872CC08A81B7DF88233A
:1004600019F086E0888725C08B81B0DF882319F0DA
:1004700085E088871EC08C81A9DF882319F084E07D
:10048000888717C08D81A2DF882319F083E08887D1
:1004900010C08E819BDF882319F082E0888709C015
:1004A0008F8194DF882319F081E0888702C01ADEEB
:1004B0001886888528960FB6F894DEBF0FBECDBF8C
:1004C000CF91DF910895DF93CF9300D000D00F92AA
:1004D000CDB7DEB78B831A8219828B810FDE23DEC4
:1004E000882329F080E091E09D838C8309C080E01F
:1004F00045DE9A838983F6DD89819A819D838C8389
:100500008C819D810F900F900F900F900F90CF9145
:10051000DF910895DF93CF9300D00F92CDB7DEB770
:1005200089836A8328DF882319F082E08B830BC0DC
:1005300089814CDF8A814ADF882319F081E08B832F
:1005400002C0D0DD1B828B810F900F900F90CF9156
:10055000DF910895DF93CF930F92CDB7DEB78983F4
:1005600089819AE0692FD7D3992787FD9095829545
:100570009295907F9827807F9827282F89819AE0ED
:10058000692FC9D3892F822B0F90CF91DF910895C6
:10059000DF93CF930F92CDB7DEB78983898185959D
:1005A000859585958595992787FD90959C01220FC6
:1005B000331FC901880F991F880F991F820F931F3E
:1005C000982F89818F70890F0F90CF91DF910895B7
:1005D000DF93CF930F92CDB7DEB7898389818F5F89
:1005E00089838981992787FD90958F7090708A30D3
:1005F000910519F489818A5F8983898184360CF099
:10060000198289810F90CF91DF910895DF93CF9365
:100610000F92CDB7DEB78983898181508983898123
:10062000992787FD90958F7090708F30910519F400
:10063000898186508983898184360CF01982898169
:100640000F90CF91DF910895DF93CF9300D00F9259
:10065000CDB7DEB789838981282F332727FD3095D1
:100660003B832A838A819B81009739F02A813B81D1
:100670002130310509F45DC0B7C0A5E2B0E080913A
:1006800028018595859585958595992787FD909570
:10069000FC01E95FFE4F80818C93EBE2F0E080E1AA
:1006A0008083EBE2F0E01082A5E2B0E080912801C7
:1006B000992787FD90958F709070FC01E95FFE4F40
:1006C00080818C93EBE2F0E080E28083EBE2F0E06B
:1006D0001082A5E2B0E080912701859585958595EA
:1006E0008595992787FD9095FC01E95FFE4F8081F4
:1006F0008C93EBE2F0E080E48083EBE2F0E01082A8
:10070000A5E2B0E080912701992787FD90958F7031
:100710009070FC01E95FFE4F80818C93EBE2F0E08A
:1007200080E88083EBE2F0E01082E5E2F0E0108206
:100730005BC0A5E2B0E080912A01859585958595FD
:100740008595992787FD9095FC01E95FFE4F808193
:100750008C93EBE2F0E080E18083EBE2F0E010824A
:10076000A5E2B0E080912A01992787FD90958F70CE
:100770009070FC01E95FFE4F80818C93EBE2F0E02A
:1007800080E28083EBE2F0E01082A5E2B0E08091AD
:100790002B018595859585958595992787FD90955C
:1007A000FC01E95FFE4F80818C93EBE2F0E080E496
:1007B0008083EBE2F0E01082A5E2B0E080912B01B3
:1007C000992787FD90958F709070FC01E95FFE4F2F
:1007D00080818C93EBE2F0E080E88083EBE2F0E054
:1007E0001082E5E2F0E010820F900F900F90CF9111
:1007F000DF910895DF93CF93CDB7DEB72C970FB677
:10080000F894DEBF0FBECDBFE4E2F0E08FEF80834F
:10081000E5E2F0E08FEF8083EAE2F0E087EF8083AB
:10082000EBE2F0E08FEF8083E7E2F0E01082E8E2B5
:10083000F0E080E38083F894E9E6F0E08CE08083E8
:10084000ADE3B0E0EDE3F0E0808182608C93ACE654
:10085000B0E0ECE6F0E080818F608C93A8E6B0E039
:10086000E8E6F0E0808182608C93D9DC29833A83CA
:100870004B835C836D837E838F8386E291E09987CF
:100880008887FE013196FB87EA87F7E0FC87EA85D7
:10089000FB8500808A859B8501969B878A87E885F2
:1008A000F9850082888599850196998788879C8536
:1008B00091509C87EC85EE2351F780912601859518
:1008C000859585958595992787FD90959C01220FA3
:1008D000331FC901880F991F880F991F820F931F1B
:1008E000982F809126018F70890F8093250187E0D2
:1008F00060E110DE8093210180E0A6DE7894FFCFD6
:100900001F920F920FB60F9211242F933F934F9384
:100910005F936F937F938F939F93AF93BF93EF9367
:10092000FF93DF93CF93CDB7DEB72C97DEBFCDBF5C
:10093000809125018F5F80932501809125018C3363
:1009400009F044C06CDC29833A834B835C836D835C
:100950007E838F8386E291E099878887FE013196B6
:10096000FB87EA87F7E0FC87EA85FB8500808A85BC
:100970009B8501969B878A87E885F9850082888513
:1009800099850196998788879C8591509C87EC85ED
:10099000EE2351F78091260185958595859585955E
:1009A000992787FD90959C01220F331FC901880F5D
:1009B000991F880F991F820F931F982F80912601EE
:1009C0008F70890F8093250180E03EDE2C96DEBF7C
:1009D000CDBFCF91DF91FF91EF91BF91AF919F91EB
:1009E0008F917F916F915F914F913F912F910F90D8
:1009F0000FBE0F901F9018951F920F920FB60F9277
:100A000011242F933F934F935F936F937F938F9313
:100A10009F93AF93BF93EF93FF93DF93CF9300D058
:100A20000F92CDB7DEB7E6E2F0E080818F70898368
:100A30008981282F332727FD30953B832A838A819C
:100A40009B818E30910559F02A813B812F303105F1
:100A500081F18A819B818D309105B1F02CC080910C
:100A60002701B6DD8093270180912701803611F49C
:100A7000109227019091270181E0692F4BDD80932F
:100A8000210180E0E1DD17C080912801A1DD809384
:100A9000280180912801843211F41092280190914C
:100AA000280182E0692F36DD8093210180E0CCDDD2
:100AB00002C080E0C9DD0F900F900F90CF91DF91C1
:100AC000FF91EF91BF91AF919F918F917F916F9126
:100AD0005F914F913F912F910F900FBE0F901F90FC
:100AE00018951F920F920FB60F9211242F933F93D8
:100AF0004F935F936F937F938F939F93AF93BF9326
:100B0000EF93FF93DF93CF9300D000D0CDB7DEB744
:100B1000E4E8F0E011821082E6E2F0E080818F707C
:100B200080932201809122018F3049F4E8E8F0E0BF
:100B3000809102019091030191838083D5C0E8E800
:100B4000F0E0809104019091050191838083809170
:100B50002201282F332727FD30953C832B838B815F
:100B60009C818C309105E9F12B813C812D30310540
:100B700064F48B819C818A30910509F4A2C02B8199
:100B80003C812B303105D1F0AFC08B819C818D3001
:100B9000910509F0A9C0809128011ADD80932801F0
:100BA00080912801843211F410922801909128013B
:100BB00082E0692FAFDC8093210196C080912701EC
:100BC00007DD8093270180912701803611F4109270
:100BD00027019091270181E0692F9CDC80932101FE
:100BE00083C080912A01F4DC80932A0180912B013B
:100BF000282F332727FD30953A83298389819A81CD
:100C0000893091052CF529813A8127303105D4F5B9
:100C100089819A8184309105E9F129813A812530D1
:100C200031055CF489819A818130910559F12981DE
:100C30003A812330310531F135C089819A8185307F
:100C4000910501F129813A812630310519F12AC037
:100C500089819A8180319105A9F029813A812131D8
:100C6000310534F489819A818930910599F01AC04F
:100C700029813A812131310569F089819A81823156
:100C8000910581F480912A01823399F481E0809367
:100C90002A010FC080912A01813359F481E08093A9
:100CA0002A0107C080912A01893219F481E08093DA
:100CB0002A0190912A0184E0692F2CDC8093210184
:100CC00013C080912B0184DC80932B0180912B0138
:100CD000833119F481E080932B0190912B0185E001
:100CE000692F18DC809321010F900F900F900F90C7
:100CF000CF91DF91FF91EF91BF91AF919F918F9134
:100D00007F916F915F914F913F912F910F900FBE07
:100D10000F901F90189587FB082E062687FD81955A
:100D200067FD619505D00EF4919507FC81950895B6
:100D3000991B79E004C0991F961708F0961B881F2D
:0C0D40007A95C9F780950895F894FFCFCC
:100D4C0064051A06093D03C0F9A4B0999282F88093
:100D5C00908883C6A1868EE0D0B070FFFFFFFF00A5
:00000001FF
