:1000000063C0B8C193C37BC07AC079C078C077C0E1
:1000100076C075C074C073C072C071C070C06FC04C
:100020006EC06DC06CC00403090412036F0062004F
:100030006400650076002E00610074001003480023
:10004000490044004B006500790073001201010172
:1000500000000008424231E10001010200010902F2
:1000600022000101008032090400000103000000A9
:100070000921010100012223000705810308000A6C
:1000800005010906A101050719E029E71500250169
:100090007501950881029501750825651900296586
:1000A0008100C000000204020502060207020802E5
:1000B00009020A020B020C020D020E020F051E02BB
:1000C000110212021302140011241FBECFE5D4E066
:1000D000DEBFCDBF10E0A0E6B0E0ECE8F8E002C083
:1000E00005900D92A436B107D9F710E0A4E6B0E070
:1000F00001C01D92AE3AB107E1F745D3C5C380CF29
:1001000085B7836085BF8BB780648BBF83EC80939A
:10011000840008950F931F93CF93DF9390919400E1
:1001200019160CF0A8C020919100809190008D329A
:1001300009F097C08AE5809361009B3009F091C077
:10014000CCE0D0E0C21BD109C856DF4F8881807651
:1001500009F079C0109282008981882351F41092AD
:10016000830082E890E0909393008093920032E0C5
:100170006DC0853021F48A818093950062C08630FD
:1001800009F045C08B81813019F48CE490E01BC0EC
:10019000823041F48EE590E090939300809392003A
:1001A00032E257C08330F9F48A81882341F486E231
:1001B00090E0909393008093920034E04AC08130A5
:1001C00041F48AE290E0909393008093920032E1B0
:1001D00040C08230E9F58CE390E0909393008093E7
:1001E000920030E136C0813241F480E790E0909394
:1001F00093008093920039E02CC0823249F580E868
:1002000090E0909393008093920033E222C0883074
:1002100019F487E990E00AC0893021F48A8180933B
:1002200097000FC08A3041F482E890E090939300E9
:100230008093920031E00AC08B3019F483EC8093F4
:10024000840030E003C0CE0115D2382F20E802C070
:1002500030E020EC8F81882339F48E81831728F0D9
:1002600003C080E020E801C0832F209364008093C6
:100270006000109294008091610084FF49C08091D9
:1002800060008F3F09F444C0182F893008F018E04F
:10029000811B809360008091640080FD02C00BE4AC
:1002A00001C003EC8F5F8093640020919200309135
:1002B000930086FD05C0D901912FEAE7F0E011C057
:1002C000AAE7B0E080E090E006C0F901E80FF91F6E
:1002D000E491ED9301961817C1F705C08D918193B4
:1002E00091509923D9F7F901E10FF11DF093930093
:1002F000E09392008AE790E0612FB8D1183019F0AE
:100300008FEF80936000009379001C5F1093610071
:100310009AE080B3857031F49150D9F7109295002E
:1003200010928F00DF91CF911F910F9108951F932D
:10033000DC01162F8091620084FF0AC08091840046
:1003400098E8892780938400912FE5E8F0E007C0C2
:100350008AE580936200F8CF8D9181939150992323
:10036000D9F785E890E0612F81D11C5F109362007E
:100370001F910895CF93CFB7CF93809BFECF809BE3
:1003800009C0809B07C0809B05C0809B03C0809BE9
:1003900001C09EC0DF93C0919100DD27C856DF4F9A
:1003A000809B02C0DF91EBCF2F930F931F9300B37D
:1003B0002FEF00FB20F94F933F9310B34FEF01272E
:1003C00000FB21F93BE031C04E7F012F10B32160CB
:1003D00028C0102F4D7F2260000000B329C04B7F42
:1003E0002460012F000010B32BC010B3477F28609A
:1003F0002AC04F7E00B320612CC04F7D10B3206215
:100400002FC04F7B00B3206432C0422700B3499312
:100410004FEF0000102710FB20F910B31570A9F161
:10042000297F91F2012700FB21F900B3237F89F294
:100430003150F0F1102710FB22F910B3277E79F22A
:10044000012700FB23F92F7C81F200B3102710FB5A
:1004500024F92F7971F200C010B3012700FB25F9B0
:100460002F7359F200C000B3102710FB26F9223079
:1004700040F200C010B3012700FB27F9243028F612
:100480004F77206810B30000F9CF3B5031953330DF
:1004900010E41ABFB8F0C31BD0400881033C41F1FF
:1004A0000B3431F11981412F1F7720918F001217E2
:1004B00031F4093691F10D3279F0013E69F02227CD
:1004C000209396003F914F911F910F912F91DF91B3
:1004D000CF91CFBFCF911895009396003F914F9148
:1004E0001F910F912F91DF91CAB7C6FD46CFF0CF74
:1004F00000919600002331F3109194001123A1F58F
:100500003430A2F130939400009390001091910048
:100510003BE0311B3093910029C0009194000130E1
:100520001CF50AE547FD09C03091610034FD20C08B
:1005300000936100C9E7D0E01FC03091620034FD34
:1005400017C000936200C4E8D0E016C0052710E091
:1005500002BB1FC0052722C0052727C005272CC0C6
:10056000052710E002BB33C04AE503C042ED01C0DD
:10057000432FC4E1D0E032E011B31560909A02B38A
:1005800011BB5F9355E020E820FF052702BB2795AC
:1005900017951C3FD8F620FF0527279502BB179516
:1005A0001C3FC0F620FF05272795179502BB1C3F6F
:1005B00098F620FF0527279517951C3F02BB70F67C
:1005C00000C0499120FF052702BB279517951C3FC6
:1005D00038F620FF0527279502BB17951C3F38F5F5
:1005E00020FF05272795179502BB1C3F10F520FF1C
:1005F0000527279517951C3F02BBE8F4242F3A9551
:1006000019F60A7F5F9102BB00C010919500C65198
:10061000D04011F010938F0010E41ABF016011B3A5
:100620001A7F402F4A7F02BB11BB42BB4BCF05272D
:10063000D3CF0527D8CF0527DDCFA82FB92F8FEF30
:100640009FEF41E050EA615070F02D9138E0722F39
:10065000782796958795269570FF02C08427952761
:100660003A95A9F7F0CF809590950895E6DF8D93A0
:100670009D930895FC0187E790E090939300809309
:10068000920080818076803209F04EC08181813075
:1006900009F039C036B321E090E0822F83239F5FB9
:1006A000882311F4892F21C0963011F0220FF5CF45
:1006B00033B321E090E0822F832319F4892F895FDF
:1006C00014C09F5F963011F0220FF5CF30B328E0B1
:1006D00090E0822F832319F4892F835F06C09F5FE8
:1006E000953011F0220FF5CF80E0E82FF0E0EE0F0B
:1006F000FF1FED55FF4F8591949190937800809363
:10070000770082E00895823041F485E690E090938E
:1007100093008093920081E008958A3029F48381C8
:100720008093650080E0089580E008951F920F9205
:100730000FB60F9211242F933F938F939F93EF93B4
:10074000FF938091660090E02CB53DB5FC01EE0F63
:10075000FF1FE959FF4F3183208301968770907006
:100760008093660085B794E0892785BF1DBC1CBCBB
:10077000FF91EF919F918F913F912F910F900FBE1D
:100780000F901F901895CF92DF92EF92FF920F93E8
:100790001F932FE088E190E00FB6F894A89581BDF3
:1007A0000FBE21BD8FEF88BB17BA85BB14BA8AEF85
:1007B00082BB87E081BB82E081BB85E083BFA0DC98
:1007C0007894DD24EE24FF24CC24C39404C0EE24CA
:1007D000E394D02EF12EA8959DDC36B321E090E075
:1007E000822F83239F5F882311F4092F21C0963025
:1007F00011F0220FF5CF33B321E090E0822F832355
:1008000019F4092F095F14C09F5F963011F0220F71
:10081000F5CF30B328E090E0822F832319F4092F1D
:10082000035F06C09F5F953011F0220FF5CF00E007
:10083000D01611F0EE24E39408B600FE0BC0C8BE3B
:1008400010916500112331F084E08F1538F41F2DCD
:10085000155001C01F2DEE2009F4BBCF809162001E
:1008600084FFB5CFE02FF0E0EE0FFF1FED55FF4FF7
:1008700085919491909378008093770087E790E03A
:0C08800062E055DDEE24A5CFF894FFCF18
:04088C00FF5A5A00B5
:00000001FF
