:1000000015C32FC32EC32DC32CC32BC32AC329C38F
:1000100028C327C326C325C324C323C322C321C3A4
:1000200020C31FC380C3ABC31CC31BC31AC319C3E4
:1000300018C317C3445331385832305F7265636157
:100040006C6C5F45323A2053686F7274204369725A
:1000500063756974210D00445331385832305F7232
:100060006563616C6C5F45323A2074696D656F75CC
:1000700074210D00445331385832305F636F70790A
:100080005F736372617463687061643A2053686F70
:1000900072742043697263756974210D0044533191
:1000A000385832305F726561645F73637261746384
:1000B000687061643A2053686F7274204369726398
:1000C000756974210D00445331385832305F7772AE
:1000D0006974655F736372617463687061643A2008
:1000E00053686F72742043697263756974210D00DF
:1000F000445331385832305F73746172745F6D6588
:1001000061733A2053686F72742043697263756932
:1001100074210D000D0020B043200020666D743A5C
:1001200020002064656369B043200020636F6E7611
:100130003A20002A20494E56414C4944202A0020AA
:10014000004232302F303900204232302F313020FF
:10015000004232302F3131004232302F31320053E1
:1001600032302F303900200020545F7261773D001B
:1001700020435243204F2E4B2E2000204352432039
:100180004641494C2000427573204572726F720DD2
:10019000004E6F2053656E736F7220666F756E64CC
:1001A0000D0020004352433A0053503A00B0430040
:1001B00030002E0020435243204F2E4B2E20002093
:1001C000435243204641494C200028203F2029002B
:1001D0002832322900283138422900283138532961
:1001E000002000534E3A20004352433A0046433A1F
:1001F0000020445331385832302053656E736F728B
:1002000028732920617661696C61626C650D0A0052
:100210002A2A2A2070726F626C656D73202D2072FD
:10022000657363616E6E696E6720627573202E2E32
:100230002E000D0A566572626F7365206F757470BB
:1002400075740D0A005374617274206D6561732EAC
:10025000206661696C6564202873686F727420631E
:100260006972637569743F29000D0A004352432087
:100270004572726F7220286C6F737420636F6E6E9C
:10028000656374696F6E3F2900203D200053656EE1
:10029000736F722320000D0A00435243204572728F
:1002A0006F7220286C6F737420636F6E6E65637459
:1002B000696F6E3F2900203D200053656E736F7299
:1002C0002320000D0A436F6E766572745F542066BA
:1002D0006F7220616C6C2053656E736F7273206156
:1002E0006E6420526561642053656E736F72206284
:1002F000792053656E736F720D0A005374617274C6
:10030000206D6561732E206661696C6564202873B9
:10031000686F727420636972637569743F29000D98
:100320000A00435243204572726F7220286C6F732B
:100330007420636F6E6E656374696F6E3F29002071
:100340003D200053656E736F722320000D0A436FCA
:100350006E766572745F5420616E642052656164CC
:100360002053656E736F722062792053656E736FD0
:1003700072202872657665727365206F726465728B
:10038000290D0A000D0A000D0A546865726520697E
:1003900073206F6E6C79206F6E652073656E736F5E
:1003A00072202D3E2044656D6F206F6620224453DD
:1003B00031385832305F726561645F6465636963C8
:1003C000656C736975735F73696E676C65223A0D4E
:1003D0000A0020706F77657265640D0A0065787495
:1003E00065726E616C6C79007061726173697465BD
:1003F00000207768696368206973200044533138AE
:100400004232300044533138323200445331385391
:1004100032302F445331383230002069732061204C
:100420000053656E736F722320000D0A00203A207E
:10043000002320696E20427573203A002044533116
:10044000385832302053656E736F722873292061DB
:100450007661696C61626C653A0D0A002D2D2D2D57
:100460002D2D2D2D2D2D2D2D2D2D2D2D2D2D2D2DBC
:100470002D2D2D2D2D2D2D2D2D2D2D2D2D2D2D2DAC
:100480002D2D2D2D2D2D2D000D0A44533138583290
:100490003020312D576972652D5265616465722077
:1004A00044656D6F206279204D617274696E2054CD
:1004B000686F6D61730D0A007665726966792066F2
:1004C00061696C65640D0A00544820616E642054B3
:1004D0004C2076657269666965640D0A0044533183
:1004E0003878323020454550524F4D20636F706947
:1004F0006564206261636B20746F20736372617442
:1005000063687061640D0A00544820616E64205471
:100510004C20696E2073637261746368706164203B
:1005200073657420746F20300D0A007363726174F8
:10053000636870616420636F7069656420746F2004
:100540004453313878323020454550524F4D0D0AD2
:100550000054482B3120616E6420544C2B3120779D
:1005600072697474656E20746F2073637261746352
:10057000687061640D0A000D0A44533138783230D6
:1005800020454550524F4D20737570706F72742026
:100590007465737420666F72206669727374207359
:1005A000656E736F720D0A000D0A00202F20005433
:1005B000482F544C20696E207363726174636870B5
:1005C0006164206F662073656E736F722031206ED8
:1005D0006F77203A200020B043002064656369B043
:1005E000432C200020B0430020B043652D342C2044
:1005F00000427573204572726F720D0A004E6F20B3
:1006000053656E736F7220666F756E640D0A000D10
:100610000A5363616E6E696E672042757320666F60
:100620007220445331385832300D0A0011241FBE55
:10063000CFEFD4E0DEBFCDBF11E0A0E0B1E0E2E15A
:10064000FDE102C005900D92A230B107D9F711E08B
:10065000A2E0B1E001C01D92A637B107E1F72ED7A5
:1006600056CBCECCFB019F01E8944230BCF0453222
:10067000ACF44A3029F497FB1EF4909581959F4F76
:10068000642F77270EDB805D8A330CF0895D8193C0
:10069000CB010097A9F716F45DE251931082C901CE
:1006A00032C0FA01CF93FF93EF9322303CF1253211
:1006B0002CF5C22FE894CA3049F497FB3EF490958C
:1006C0008095709561957F4F8F4F9F4F2C2F3327CB
:1006D00044275527FF93EF93F8DAEF91FF91605D80
:1006E0006A330CF0695D6193B901CA0160507040D2
:1006F0008040904059F716F4CDE2C19310828F915B
:100700009F91CF9100C0DC01FC01672F719177238D
:10071000E1F7329704C07C916D9370836291AE17BC
:10072000BF07C8F308951F920F920FB60F921124BE
:100730002F938F939F93EF93FF939091C0002091FD
:10074000C600E0914401EF5FEF7180914501E81729
:1007500011F482E008C0892F8871E0934401F0E031
:10076000EE5DFE4F208380934601FF91EF919F91B4
:100770008F912F910F900FBE0F901F9018951F9281
:100780000F920FB60F9211248F939F93EF93FF93C5
:100790009091420180914301981769F0E0914301E3
:1007A000EF5FEF71E0934301F0E0EE5FFE4F808179
:1007B0008093C60005C08091C1008F7D8093C100E9
:1007C000FF91EF919F918F910F900FBE0F901F900F
:1007D00018959C011092420110924301109244011D
:1007E0001092450197FF04C082E08093C0003F77DC
:1007F0003093C5002093C40088E98093C10086E04F
:100800008093C2000895282F909142019F5F9F71AD
:10081000809143019817E1F3E92FF0E0EE5FFE4F7E
:100820002083909342018091C10080628093C10037
:100830000895CF93DF93EC0102C02196E4DF888115
:100840008823D9F7DF91CF910895CF93DF93EC01FF
:1008500001C0D9DFFE01219684918823D1F7DF9171
:10086000CF910895DC0120E040E050E098E115C010
:10087000FD01E40FF51FE08138E08E2F8227F82F6D
:10088000F17080FD29272695F13009F42068315058
:1008900011F0E695F2CF4F5F5F4F4617570741F7CC
:1008A000822F0895382FFB01918180E02081422F13
:1008B00050E0482B592B303171F4CA018E7FA3E0F0
:1008C000880F991FAA95E1F726814CE050E0421B62
:1008D0005109480F591F57FD02C0A0E004C05095B0
:1008E00041955F4FA1E0383211F0323291F48481AA
:1008F000282F30E0207630702032310539F0203456
:10090000310531F0232B29F4487F03C04C7F01C00F
:100910004E7F9A012F70307080E892E0289FB001DE
:10092000299F700D389F700D1124AA2311F4605077
:100930007E4F9A01F4E036952795FA95E1F7AB01E1
:10094000452F552746954695C90173E0880F991F95
:100950007A95E1F7220F331F820F931F480F591F1B
:10096000AA2319F0509541955F4FCA018A5D9D4FAA
:100970008950974010F040ED57E0CA0108951F9349
:10098000CF93DF93382FFB01918180E02081C22F2C
:10099000D0E0C82BD92B303171F4CE018E7F13E01B
:1009A000880F991F1A95E1F72681CCE0D0E0C21B91
:1009B000D109C80FD91FD7FD02C010E004C0D095DF
:1009C000C195DF4F11E0383211F0323291F4848159
:1009D000282F30E0207630702032310539F0203475
:1009E000310531F0232B29F4C87F03C0CC7F01C02F
:1009F000CE7FBE01B4E076956795BA95E1F780E0C9
:100A000090E020E137E240E050E0FED8CF70D070B7
:100A100021E732E0A901C49F9001C59F300DD49F0A
:100A2000300D112440E050E0260F371F481F591F9A
:100A3000112339F050954095309521953F4F4F4FF8
:100A40005F4FB901CA01DF91CF911F9108950F93B4
:100A50001F938C013DD784EBB8018BD881E0F4D78C
:100A6000182F36D7111111E0812F1F910F91089582
:100A70001F93CF93DF93EC012BD703D7882391F0FB
:100A800088EBBE0176D81FEF11501F3F21F081E0A7
:100A9000DBD78823C9F3112311F080E007C087E575
:100AA00090E002C084E390E0D0DE81E0DF91CF915E
:100AB0001F9108951F93CF93DF93182FEB0108D751
:100AC000E0D6882359F0113021F084E4BE0154D8D7
:100AD00003C084E4BE014DD880E004C080EF90E004
:100AE000B4DE82E0DF91CF911F9108951F93CF93E1
:100AF000DF93182FEB01ECD6C4D6882391F0113088
:100B000021F088E4BE0138D803C088E4BE0131D8A2
:100B100080E49CE90197F1F7113009F0CED680E02E
:100B200004C084E790E091DE82E0DF91CF911F91D5
:100B30000895EF92FF920F931F93CF93DF939C0141
:100B4000062FF72EE42E8EEBB90113D8202F3F2D60
:100B5000C901EC0110E003C0A0D789931F5F1E15E7
:100B6000D8F3802F9F2D69E070E07CDE811183E057
:100B7000DF91CF911F910F91FF90EF900895FF9219
:100B80000F931F93CF93DF93EC018B01F42EA0D62C
:100B900078D6882329F0CE01B8014F2DCADF04C0D2
:100BA0008DE990E052DE81E0DF91CF911F910F91AE
:100BB000FF900895AF92BF92CF92DF92FF920F9372
:100BC0001F93DF93CF93CDB7DEB729970FB6F89475
:100BD000DEBF0FBECDBF8C015B017AD6C8016E01AE
:100BE0000894C11CD11CB60149E0A3DFF82E88236C
:100BF00049F4F8018081B601C2DEF501608371839A
:100C0000828393838F2D29960FB6F894DEBF0FBE93
:100C1000CDBFCF91DF911F910F91FF90DF90CF90CB
:100C2000BF90AF900895CF92DF92EF92FF920F9313
:100C30001F93DF93CF93CDB7DEB729970FB6F89404
:100C4000DEBF0FBECDBF082F6B0180E090E07E01BC
:100C50000894E11CF11CB70149E06BDF182F8823D1
:100C600031F4802FB7011EDEF60191838083812F3E
:100C700029960FB6F894DEBF0FBECDBFCF91DF919E
:100C80001F910F91FF90EF90DF90CF900895AF925A
:100C9000BF92CF92DF92FF920F931F93DF93CF9378
:100CA000CDB7DEB729970FB6F894DEBF0FBECDBF24
:100CB0008C015B010DD6C8016E010894C11CD11CCA
:100CC000B60149E036DFF82E882339F4F801808137
:100CD000B601E8DDF501918380838F2D29960FB64B
:100CE000F894DEBF0FBECDBFCF91DF911F910F9162
:100CF000FF90DF90CF90BF90AF900895FF920F9339
:100D00001F93CF93DF93EC01162F042FF22EE0D523
:100D1000B8D5882381F08EE4BE012BD7812F98D6D9
:100D2000802F96D66881683211F0623211F48F2DCF
:100D30008FD680E004C086EC90E087DD81E0DF9113
:100D4000CF911F910F91FF9008958F929F92AF9234
:100D5000BF92CF92DF92EF92FF920F931F93DF9398
:100D6000CF93CDB7DEB76A970FB6F894DEBF0FBE4C
:100D7000CDBF7A012A3008F48DC0613C2DEB72079B
:100D800020EF82072FEF92070CF484C06038E6E969
:100D90007E07E8E98E07E0E09E070CF07BC097FD38
:100DA00002C000E008C090958095709561957F4FD6
:100DB0008F4F9F4F01E039E0C32ED12CCC0EDD1EAA
:100DC00010E04E010894811C911C23E1A22EB12C4D
:100DD000AC0EBD1E2AE030E040E050E047D72B8B40
:100DE0003C8B4D8B5E8B6F8B788F898F9A8FD40164
:100DF000F50188E001900D928150E1F78D81805DD1
:100E0000F60181936F011F5F69817A818B819C81DB
:100E10001616170618061906ECF2812F825082303A
:100E200048F4E12FFF27E7FDF095EC0FFD1F80E36D
:100E300081871F5FFE013996812F992787FD909545
:100E4000002351F0E80FF91F8DE2808390E09E01AE
:100E5000275F3F4F4EE204C0E80FF91F8BE2F5CF4A
:100E6000F701E90FF11DD901A10FB11D8C9180830C
:100E70009F5F1150133031F4F701E90FF11D4083EA
:100E80009F5FEECF1F3F61F7E90EF11CF701108263
:100E900080E001C081E06A960FB6F894DEBF0FBE15
:100EA000CDBFCF91DF911F910F91FF90EF90DF9019
:100EB000CF90BF90AF909F908F900895CF92DF9288
:100EC000EF92FF920F931F93DF93CF93CDB7DEB7CF
:100ED00027970FB6F894DEBF0FBECDBF7B0147301A
:100EE00008F453C02CEF893192070CF44EC0E7E2AE
:100EF00080319E070CF049C097FD02C000E004C09D
:100F0000909581959F4F01E06E010894C11CD11C02
:100F100010E06AE070E097D69B01805DF601819356
:100F20006F011F5FC901121613069CF3FE01319673
:100F3000812F992787FD9095002351F0E80FF91F25
:100F40008DE2808390E09E012F5F3F4F4EE204C010
:100F5000E80FF91F8BE2F5CFF701E90FF11DD90179
:100F6000A10FB11D8C9180839F5F115031F4F70167
:100F7000E90FF11D40839F5FEFCF1F3F69F7E90E37
:100F8000F11CF701108280E001C081E027960FB6C6
:100F9000F894DEBF0FBECDBFCF91DF911F910F91AF
:100FA000FF90EF90DF90CF9008950F931F93CF9312
:100FB000DF938C01EB01F8018081BE0171D5F8014E
:100FC000808381508D3F10F081E008C08881883295
:100FD00021F0803111F0823271F780E0DF91CF9102
:100FE0001F910F910895CF92DF92EF92FF920F938E
:100FF0001F93CF93DF938C017B01C0E0D0E06B01A6
:101000000894C108D10830C0209719F48DEE91E002
:101010000BC0CC15DD0519F488EE91E016DCC1306B
:10102000D10519F483EE91E010DCF801EC0FFD1FFF
:101030008081ADD581EE91E008DC2097A1F4F80124
:101040008081803119F48BED91E00CC0883219F465
:1010500085ED91E007C0823219F480ED91E002C085
:101060008AEC91E0F2DB2196CE15DF0568F2C8012B
:1010700068E070E0F7DB882319F08FEB91E002C0A5
:1010800084EB91E0E2DBDF91CF911F910F91FF9014
:10109000EF90DF90CF9008952F923F924F925F9202
:1010A0006F927F928F929F92BF92CF92DF92EF9238
:1010B000FF920F931F93DF93CF93CDB7DEB7AC971B
:1010C0000FB6F894DEBF0FBECDBFBB24BA941E018D
:1010D0000894211C311CE9E06E2E712C6C0E7D1ED3
:1010E00072E1472E512C4C0E5D1E6CE1862E912C28
:1010F0008C0E9D1E8B2DB101D3D4B82E4FEF8417CB
:1011000029F481E991E0A1DB8FEF19C15EEF85172A
:1011100029F486E891E099DB8EEF11C1C10168E006
:1011200070E061DF8981883229F0803119F08232E4
:1011300009F0FEC08DE067DB8EEB8AD48301ADD46D
:10114000F80181938F01E415F505C9F789EA91E06B
:101150007CDB00E010E006C00830110519F484EAD9
:1011600091E073DBF301E00FF11F808110D582EA7B
:1011700091E06BDB0F5F1F4F0930110569F7C30169
:1011800069E070E06FDB882319F08BE791E002C023
:1011900080E791E05ADB8DE036DB098510E0DA84E8
:1011A000CC240C291D2988E691E04FDB812FEFD458
:1011B000802FEDD486E691E048DB8981803119F4F7
:1011C0008FE591E01CC0883211F08232C9F48D8520
:1011D000282F30E0C901807690708036910519F48F
:1011E00088E591E00CC026FF03C081E591E007C0CF
:1011F00025FF03C088E491E002C081E491E025DB93
:101200008FE391E022DB39818985082F10E0FA8491
:10121000EE240E291F29303171F4C8018E7F53E06E
:10122000880F991F5A95E1F72F850CE010E0021BFB
:101230001109080F191F17FD02C040E004C01095E6
:1012400001951F4F41E0383211F0323291F48D8513
:10125000282F30E0C901807690708036910549F0E2
:1012600026FF02C00E7F05C025FF02C00C7F01C013
:10127000087F442311F48BE201C08DE2C4DAC80177
:1012800044E0969587954A95E1F790E0A3D482EBE8
:1012900091E0DBDA802F8F7090E021E732E0AC0143
:1012A000429FC001439F900D529F900D1124B401A5
:1012B0004AE050E0D7D900E010E005C080EB91E0B3
:1012C000C4DA0F5F1F4FF40101900020E9F7319756
:1012D000E819F90984E090E08E1B9F0B08171907A5
:1012E00068F3C401A6DA8DEA91E0AFDA8981B3012F
:1012F000D9DA8C0157E0803D950719F483E391E03A
:1013000013C08BE291E0A1DAC80164D482E291E0DB
:101310009CDAC801B2014AE0D1DD8BE191E095DAB7
:10132000C20187DA86E191E090DA80E091E081DA2B
:10133000BB2009F0DFCE84E191E087DA80E0AC9653
:101340000FB6F894DEBF0FBECDBFCF91DF911F91D6
:101350000F91FF90EF90DF90CF90BF909F908F9074
:101360007F906F905F904F903F902F9008950F93D4
:101370001F938C0187E491E0B80149E000DC8FEA1B
:1013800095E063DAF801828190E024D48BEA95E05D
:101390005CDAF801838190E01DD488EA95E055DAA3
:1013A0001F910F9108950F931F93DF93CF93CDB7A4
:1013B000DEB72A970FB6F894DEBF0FBECDBF8C0103
:1013C00009D48AED95E041DAC8018E010F5F1F4F05
:1013D000B8014AE073DDC8012CDA86ED95E035DA14
:1013E0002A960FB6F894DEBF0FBECDBFCF91DF9126
:1013F0001F910F9108958F929F92AF92BF92DF92AB
:10140000EF92FF920F931F93DF93CF93CDB7DEB789
:1014100029970FB6F894DEBF0FBECDBF8FE096E0E0
:1014200014DA56D28FEF898300E010E022E0E22E3A
:10143000F12CEC0EFD1E4E010894811C911C9AE0CB
:10144000A92EB12CAC0EBD1E1FC0C401B701ADDD6D
:1014500089818F3F19F48DEF95E004C08E3F21F410
:1014600081EF95E0F2D917C0D701F80183E0EE0FC4
:10147000FF1F8A95E1F7E95BFE4F8D918193AA15D5
:10148000BB05D9F70F5F1F4FD02E8981882319F034
:1014900005301105D1F68D2D29960FB6F894DEBFD3
:1014A0000FBECDBFCF91DF911F910F91FF90EF90B5
:1014B000DF90BF90AF909F908F9008952F923F92B2
:1014C0004F925F926F927F928F929F92AF92BF9254
:1014D000CF92DF92EF92FF920F931F93DF93CF9300
:1014E000CDB7DEB769970FB6F894DEBF0FBECDBF9C
:1014F00083E390E06ED989E290E06BE270E04AE22B
:1015000050E026E02FD2789488E894E09ED98CE5CC
:1015100094E09BD970DF882E90E05CD38CE394E05C
:1015200094D9B7E4EB2EB1E0FB2E00E010E013C03D
:1015300081E394E08AD9C8014DD38DE294E085D946
:10154000C70168E070E04FDD8AE294E07ED988E070
:1015500090E0E80EF91E0F5F1F4F802F8150881515
:1015600038F3A7E4EA2EA1E0FA2EF1E0CF2ED12C39
:10157000082D10E0E3E0000F111FEA95E1F70E0DD2
:101580001F1D2EC081E294E060D9C60123D38AE1F9
:1015900094E05BD9F7018081803119F48BE094E00D
:1015A00007C0823219F484E094E002C08CEF93E02B
:1015B0004CD981EF93E049D9C70149DA882319F45E
:1015C00088EE93E002C08DED93E03FD982ED93E089
:1015D0003CD988E090E0E80EF91E0894C11CD11CAB
:1015E000E016F10679F6882009F463C087E795E0F4
:1015F0002CD98E01095F1F4FC801B9DEF984EA8436
:10160000E394F39487E491E06F2D4E2D20E676DB92
:1016100081E595E01AD9C801AADE80E067E471E0AF
:1016200065DA8BE295E011D987E491E060E040E073
:1016300020E664DB88E095E008D9C80198DE87E4FD
:1016400091E016DA8DED94E000D987E491E0B801DD
:1016500049E095DA8985F81631F48A85E81619F497
:1016600088EC94E002C088EB94E0EFD8CE010796B6
:101670007EDE91E08916E9F487E893E0E6D81091E0
:10168000470180E060E070E015DA8CE49DE120E93C
:1016900031E0F9013197F1F70197D9F7812FBE01B8
:1016A0006F5F7F4FC0DA89819A817DDE84E893E0A5
:1016B000CCD870E9672E71E0772E1E010894211CAA
:1016C000311C60E1462E512C4C0E5D1E9924882061
:1016D00011F4992493948CE493E0B7D8F82C34C097
:1016E0000F2D10E053E0000F111F5A95E1F7015C38
:1016F0001E4F80E0B801DED9882309F58CE49DE116
:10170000F3013197F1F70197D9F783E493E09DD87E
:101710008F2D90E05FD28FE393E097D8C801B1019D
:10172000B6DA882321F489819A813DDE04C082E201
:1017300093E08BD893948FE193E087D804C08BEF2C
:1017400092E083D89394FA94FF2051F683EC92E0D0
:101750007CD880E060E070E0ADD9882309F06AC0F1
:101760008CE49DE1F3013197F1F70197D9F747E454
:10177000E42E41E0F42E00E010E01EC08AEB92E07F
:1017800064D80F5F1F4FC80125D286EB92E05DD869
:10179000C701B1017CDA882321F489819A8103DEB3
:1017A00004C089E992E051D8939486E992E04DD83B
:1017B000E8E0F0E0EE0EFF1E081500F337E4A32E7C
:1017C00031E0B32ECC24DD2432C08DE892E03DD848
:1017D0000894C11CD11CC601FDD189E892E035D81E
:1017E000C501BE016D5F7F4FE5D98823A9F4EB8069
:1017F000FC800D811E81C801B701D2D188EE95E031
:1018000024D8C801B701A2012AE09FDAC20111D889
:1018100084EE95E01AD804C08CE692E016D8939432
:1018200089E692E012D888E090E0A80EB91EC814AC
:1018300060F204C085E492E008D8939482E392E0D9
:1018400004D880E060E070E035D98CE49DE1F301DC
:101850003197F1F70197D9F71FDC992051F080E11A
:1018600092E0F3D7C8DD882E90E0B4D181EF91E00B
:10187000ECD780E395E7F3013197F1F70197D9F7BA
:1018800025CFE0917201F0917301808190917101F7
:1018900089230895E0916F01F0917001808190910A
:1018A0007101892B8083E0917401F0917501808131
:1018B00090917101892B80830895E0917401F091DA
:1018C00075019081809171018095892380830895AD
:1018D000E0916F01F091700190818091710180958C
:1018E00089238083E0917401F0917501808190914A
:1018F0007101892B808380E897E00197F1F72FB77A
:10190000F894E0917401F0917501908180917101DA
:10191000809589238083E0916F01F091700180812F
:1019200090917101892B808380E091E00197F1F71C
:10193000E0917201F09173014081309171012FBFEC
:1019400080E896E00197F1F7E0917201F091730160
:10195000808190917101892311F481E00895842F91
:10196000832308955093750140937401709370011F
:1019700060936F01909373018093720181E090E016
:1019800002C0880F991F2A95E2F780937101A0DFAA
:1019900008950F931F93182F0FB7F894E0916F01DC
:1019A000F0917001908180917101809589238083ED
:1019B000E0917401F0917501808190917101892B02
:1019C00080838AE08A95F1F7112399F0E091740100
:1019D000F0917501908180917101809589238083B8
:1019E000E0916F01F0917001808190917101892BDC
:1019F000808385E48A95F1F7E0917201F09173019B
:101A0000808190917101892309F410E085EE8A9517
:101A1000F1F7E0916F01F09170018081892B808353
:101A2000E0917401F0917501908180917101809530
:101A30008923808361112EDF0FBF85E38A95F1F73B
:101A4000812F1F910F910895817060E0A2DF0895AA
:101A50000F931F93182F08E0812F8170F5DF1695E3
:101A6000811110680150C1F7812F1F910F910895C6
:101A70000F931F93182F08E0812F8170013011F010
:101A800060E001C061E085DF1695811110680150AA
:101A900099F7812F1F910F9108958FEFD9DF089546
:101AA000DF92EF92FF920F931F93CF93DF93E82E75
:101AB000EB010EDF882381F580EFCADF80E4FF248D
:101AC000182F98EFD92ED80E81E0BEDF082F81E0C5
:101AD000BBDF882329F0002371F08EEFF82E1EC0A3
:101AE000002349F41E1528F0888180FF04C0E11608
:101AF00011F0F12E01E0802FA7DF88818695888381
:101B0000002311F08068888311501D15E9F6112318
:101B100029F02196812FD4CFFF24FA948F2DDF91C5
:101B2000CF911F910F91FF90EF90DF900895FF925A
:101B30000F931F93CF93DF93082FEB01F42EC8DE92
:101B4000209741F085E584DF18E0899181DF11500D
:101B5000E1F702C08CEC7CDFFF2019F0802F88DFDA
:101B600002C0802F75DFDF91CF911F910F91FF9001
:101B7000089540E0DCDF089541E0D9DF08958F70DB
:101B80008A3010F0895C01C0805D3DD608951F93B6
:101B9000182F82958F70F3DF812FF1DF1F91089549
:101BA000DF93CF93CDB7DEB72F970FB6F894DEBF94
:101BB0000FBECDBFAE014F5F5F4F2AE030E071D561
:101BC00038D62F960FB6F894DEBF0FBECDBFCF919B
:101BD000DF910895DF93CF93CDB7DEB72A970FB685
:101BE000F894DEBF0FBECDBFBE016F5F7F4F4AE0EE
:101BF00050E038D51ED62A960FB6F894DEBF0FBE39
:101C0000CDBFCF91DF910895629FD001739FF00106
:101C1000829FE00DF11D649FE00DF11D929FF00D7C
:101C2000839FF00D749FF00D659FF00D9927729FB3
:101C3000B00DE11DF91F639FB00DE11DF91FBD013E
:101C4000CF011124089597FB092E07260AD077FDAE
:101C500004D027D006D000201AF4709561957F4FEC
:101C60000895F6F7909581959F4F089597FB092E5B
:101C700005260ED057FD04D028D00AD0001C38F419
:101C800050954095309521953F4F4F4F5F4F0895A8
:101C9000F6F790958095709561957F4F8F4F9F4F88
:101CA0000895AA1BBB1B51E107C0AA1FBB1FA617A3
:101CB000B70710F0A61BB70B881F991F5A95A9F7F5
:101CC00080959095BC01CD010895A1E21A2EAA1B22
:101CD000BB1BFD010DC0AA1FBB1FEE1FFF1FA217DC
:101CE000B307E407F50720F0A21BB30BE40BF50BD9
:101CF000661F771F881F991F1A9469F76095709562
:101D0000809590959B01AC01BD01CF010895F89499
:021D1000FFCF03
:021D12000D00C2
:00000001FF
