:1000000063C08BC17BC07AC079C078C077C076C02E
:1000100075C074C073C072C071C070C06FC06EC054
:100020006DC06CC06BC00902220001010080320962
:100030000400000103000000092101010001222346
:10004000000705810308000A1201010100000008F1
:10005000424231E100010102000110034800490061
:1000600044004B0065007900730012036F006200CA
:100070006400650076002E0061007400040309042A
:1000800005010906A101050719E029E71500250169
:100090007501950881029501750825651900296586
:1000A0008100C000000204020502060207020802E5
:1000B00009020A020B020C020D020E020F021002CC
:1000C000110212021302140011241FBECFE5D4E066
:1000D000DEBFCDBF10E0A0E6B0E0E6E6F7E002C08C
:1000E00005900D92A436B107D9F710E0A4E6B0E070
:1000F00001C01D92AD39B107E1F7ECC281CFCF93BA
:10010000DC01C62F8091600084FF07C080917300DE
:1001100098E889278093730003C08AE58093600084
:10012000E4E7F0E09C2F91509F3F19F08D9181936F
:10013000FACF6C2F84E790E06CD2CC5FC093600064
:10014000CF9108951F93CF93DF9390918300191659
:100150000CF082C080918000C3E9D0E0C81BD109B7
:10016000935030E010E880917F008D3209F06EC02E
:100170008AE580936100983009F068C088818076B4
:1001800009F05AC081E790E0309371002981222361
:1001900021F43093720032E044C0253021F48A818A
:1001A000809384004CC0263071F510EC8B81813037
:1001B00019F488E490E013C0823021F486E290E0E4
:1001C00032E22FC0833099F48A81882321F48CE7AE
:1001D00090E034E026C0813021F48AE690E032E1FC
:1001E00020C0823061F58AE590E030E11AC08132AA
:1001F00021F488E390E039E014C0823201F580E810
:1002000090E033E20EC0283019F486E890E008C090
:10021000293021F48A818093860011C02A3031F47C
:1002200031E0909382008093810009C02B3039F433
:1002300083EC8093730003C0CE0124D2382F8F81CA
:10024000882321F48E81831708F4382F10936400DB
:1002500030936200109283008091610084FF43C05C
:10026000809162008F3F09F43EC0682F893008F00A
:1002700068E0861B809362001BE48091640080FD2F
:1002800013EC8F5F80936400A9E6B0E0E0918100F9
:10029000F0918200962F915086FF07C09F3F59F042
:1002A00084918D9331969150F9CF9F3F21F08191A8
:1002B0008D939150FACFF0938200E09381007727DD
:1002C000C62F693040F489E690E0A3D19C2F9C5F53
:1002D000C83028F401C09EE18FEF80936200109334
:1002E0006800909361009AE080B3857011F491509A
:1002F000D9F7992321F49093840090937E00DF91A5
:10030000CF911F91089585B7836085BF8BB78064B7
:100310008BBF83EC809373000895CF93CFB7CF93B7
:10032000809BFECF809B09C0809B07C0809B05C03F
:10033000809B03C0809B01C09EC0DF93C091800062
:10034000DD27C957DF4F809B02C0DF91EBCF2F9392
:100350000F931F9300B32FEF00FB20F94F933F93B0
:1003600010B34FEF012700FB21F93BE031C04E7F76
:10037000012F10B3216028C0102F4D7F2260000094
:1003800000B329C04B7F2460012F000010B32BC0A5
:1003900010B3477F28602AC04F7E00B320612CC075
:1003A0004F7D10B320622FC04F7B00B3206432C05A
:1003B000422700B349934FEF0000102710FB20F9AC
:1003C00010B31570A9F1297F91F2012700FB21F9E3
:1003D00000B3237F89F23150F0F1102710FB22F98E
:1003E00010B3277E79F2012700FB23F92F7C81F2DD
:1003F00000B3102710FB24F92F7971F200C010B35D
:10040000012700FB25F92F7359F200C000B3102714
:1004100010FB26F9223040F200C010B3012700FB88
:1004200027F9243028F64F77206810B30000F9CF61
:100430003B503195333010E41ABFB8F0C31BD040A5
:100440000881033C41F10B3431F11981412F1F77B1
:1004500020917E00121731F4093691F10D3279F0B6
:10046000013E69F02227209385003F914F911F9113
:100470000F912F91DF91CF91CFBFCF91189500931E
:1004800085003F914F911F910F912F91DF91CAB736
:10049000C6FD46CFF0CF00918500002331F31091C7
:1004A00083001123A1F53430A2F13093830000932F
:1004B0007F00109180003BE0311B3093800029C009
:1004C0000091830001301CF50AE547FD09C0309119
:1004D000610034FD20C000936100C8E6D0E01FC079
:1004E0003091600034FD17C000936000C3E7D0E096
:1004F00016C0052710E002BB1FC0052722C0052734
:1005000027C005272CC0052710E002BB33C04AE5F1
:1005100003C042ED01C0432FC4E1D0E032E011B38B
:100520001560909A02B311BB5F9355E020E820FF5D
:10053000052702BB279517951C3FD8F620FF0527F6
:10054000279502BB17951C3FC0F620FF052727956E
:10055000179502BB1C3F98F620FF05272795179596
:100560001C3F02BB70F600C0499120FF052702BB6B
:10057000279517951C3F38F620FF0527279502BBC6
:1005800017951C3F38F520FF05272795179502BBC7
:100590001C3F10F520FF0527279517951C3F02BB30
:1005A000E8F4242F3A9519F60A7F5F9102BB00C048
:1005B00010918400C651D04011F010937E0010E4D9
:1005C0001ABF016011B31A7F402F4A7F02BB11BBD3
:1005D00042BB4BCF0527D3CF0527D8CF0527DDCF8B
:1005E000A82FB92F8FEF9FEF41E050EA615070F0D4
:1005F0002D9138E0722F782796958795269570FF74
:1006000002C0842795273A95A9F7F0CF8095909559
:100610000895E6DF8D939D93089536B321E090E031
:10062000832F82239F5F882351F0220F9630C0F3DF
:1006300033B321E090E0832F822321F4995F892F47
:1006400099270895220F9F5F9630A8F390E030B36A
:1006500028E0832F822311F4935FF1CF220F9F5F55
:100660009530B8F380E090E00895E82FFF27EE0F73
:10067000FF1FED55FF4F85919491909366008093F5
:1006800065000895FC0185E690E0909382008093D8
:10069000810080819927807690708097C1F4818154
:1006A000813029F4BADFE1DF82E090E00895823002
:1006B00049F487E690E0909382008093810081E086
:1006C00090E008958A3019F483818093670080E078
:1006D00090E00895CFE5D4E0DEBFCDBFC0E01C2F91
:1006E0000C2F88E190E02FE00FB6F894A89581BD1B
:1006F0000FBE21BD9FEF98BBC7BB95BBC4BB8AEFA4
:1007000082BB87E081BB80E08150F1F79150D9F73F
:1007100082E081BB85E083BFF6DD7894A89512DD89
:100720007CDFC81711F0C82F11E008B600FE0DC01D
:1007300091E098BF80916700882339F0053010F070
:10074000055003C0082F192F02C0112339F38091DF
:10075000600084FFE3CF10E08C2F87DF62E085E646
:0607600090E0CDDCDBCFD0
:040766005A5AFF00DC
:00000001FF
