:1000000024C03EC0DEC13CC03BC03AC018C138C0AD
:1000100037C0EBC035C034C033C032C031C030C08F
:100020002FC02EC02DC092C197C190C192C18EC168
:1000300090C18CC18BC18DC18FC18EC18DC18CC14E
:100040008BC18AC183C185C181C111241FBECFE587
:10005000D4E0DEBFCDBF10E0A0E6B0E0E0E5F8E020
:1000600002C005900D92A038B107D9F710E0A0E8C2
:10007000B0E001C01D92AC38B107E1F7EED1E6C3A4
:10008000BFCF482F6AE0D6D3282F30E084E0220F7C
:10009000331F8A95E1F7842FCDD3892F822B0895C2
:1000A000282F22952F709AE0299F900111248F709C
:1000B000820F0895982F9F5F892F8F708A3009F4DF
:1000C0009A5F943608F090E0892F0895982F915008
:1000D000892F8F708F3009F49650943608F090E095
:1000E000892F0895882321F0813009F04EC027C060
:1000F000A0918600EA2FE295EF70F0E0E959FF4FFA
:10010000808180937B00B0E0AF70B070A959BF4F81
:100110008C9180937C00A0918500EA2FE295EF708E
:10012000F0E0E959FF4F808180937D00B0E0AF702F
:10013000B070A959BF4F8C9180937E000895A09113
:100140008800EA2FE295EF70F0E0E959FF4F8081D7
:1001500080937B00B0E0AF70B070A959BF4F8C9115
:1001600080937C00A0918900EA2FE295EF70F0E087
:10017000E959FF4F808180937D00B0E0AF70B0708F
:10018000A959BF4F8C9180937E0008958FEF87BB54
:1001900088BB87EF81BB14BA80E385BBF8948EE0FF
:1001A00085BF85BF8BB7806C8BBF89B7816089BFE6
:1001B00080916000809582BF83B790916100892B08
:1001C00083BF1EBC1DBC1CBC80916200909163006B
:1001D0009BBD8ABD89B7806189BF1FBC80916600C5
:1001E0008EBD8AB78ABF789408951F920F920FB67A
:1001F0000F9211248F93AF93BF93EF93FF9380914E
:100200006000809582BFE0918300EF5FE370E09330
:1002100083008FEF88BBF0E0DF01A958BF4F8C91BE
:1002200082BBE558FF4F808188BBFF91EF91BF9162
:10023000AF918F910F900FBE0F901F9018951F9246
:100240000F920FB60F9211242F933F934F935F930A
:100250006F937F938F939F93AF93BF93EF93FF938E
:100260001DBC1CBC23B32F70209381002F3049F498
:1002700080E038DF80916200909163009BBD8ABD71
:100280008FC080916400909165009BBD8ABD2C3029
:1002900009F441C02D3038F42A3009F466C02B30FF
:1002A00009F07EC020C02D3031F02E3009F078C02A
:1002B00081E018DF75C080E015DF20918600922F65
:1002C0009F5F892F8F708A3009F49A5F943608F007
:1002D00090E090938600943211F41092860082E0B0
:1002E000609186005AC080E0FDDE20918500922F4B
:1002F0009F5F892F8F708A3009F49A5F943608F0D7
:1003000090E090938500903611F41092850081E082
:100310006091850042C081E0E5DE90918800292F40
:100320002F5F822F8F708A3009F42A5F243608F0FD
:1003300020E0209388008091890090E0FC013197B3
:10034000E231F10548F4ED5EFF4F0994223349F4A0
:1003500005C0213331F402C0293219F481E08093C1
:10036000880084E06091880018C081E0BBDE2091A5
:100370008900922F9F5F892F8F708A3009F49A5FCE
:10038000943608F090E090938900933119F481E05D
:100390008093890085E06091890028D28093800055
:1003A000FF91EF91BF91AF919F918F917F916F914D
:1003B0005F914F913F912F910F900FBE0F901F9023
:1003C00018951F920F920FB60F9211242F933F93FF
:1003D0004F935F936F937F938F939F93AF93BF934D
:1003E000EF93FF93DF93CF93CDB7DEB72797DEBFB1
:1003F000CDBF909184009F5F9093840090FF02C0D6
:100400008AE001C08EE085BF9C3389F4DED0298369
:100410003A834B835C836D837E838F83A4E8B0E053
:10042000FE01319687E001900D928150E1F7279609
:10043000DEBFCDBFCF91DF91FF91EF91BF91AF9123
:100440009F918F917F916F915F914F913F912F91EC
:100450000F900FBE0F901F901895DF93CF93CDB7DD
:10046000DEB727970FB6F894DEBF0FBECDBF8EDE86
:1004700080E060E0BBD180938000A7D029833A83DD
:100480004B835C836D837E838F83A4E8B0E0FE01A1
:10049000319687E001900D928150E1F787E060E1AD
:1004A000A5D18093800080E01DDEFFCF089584EA0F
:1004B00086BF06B607FEFDCF81B1887F80938B0093
:1004C000883011F490E006C090E0803109F491E0AA
:1004D00081E09827892F089584E986BF80E00895F8
:1004E00084EA86BF06B607FEFDCF81B1887F809380
:1004F0008B00883081F0803159F40DC006B607FEBC
:10050000FDCF81B1887F80938B0090E0803409F02B
:1005100091E0892F089581ED83B984E886BFEECFFD
:10052000882361F084EC86BF06B607FEFDCF81B15B
:10053000887F80938B00803581F40BC084E886BF70
:1005400006B607FEFDCF81B1887F80938B0088358A
:1005500021F483B1282F30E002C020E031E0C9014E
:10056000089584EA86BF06B607FEFDCF81B1887F75
:1005700080938B00883081F0803159F40DC006B62D
:1005800007FEFDCF81B1887F80938B0090E088319A
:1005900009F091E0892F089580ED83B984E886BF42
:1005A000EECF1F93182FDDDF882311F081E00BC001
:1005B00013B984E886BF06B607FEFDCF81B1887FF8
:1005C00080938B0080E01F910895CF92DF92EF928D
:1005D000FF920F931F93DF93CF93CDB7DEB727978B
:1005E0000FB6F894DEBF0FBECDBF80E0DADF78DF54
:1005F000882341F0CC24DD24EE24FF2400E010E029
:1006000090E017C081E08CDFC82E81E089DFD82E12
:1006100081E086DFE82E81E083DFF82E81E080DF55
:10062000082F81E07DDF182F80E07ADF982F84E9A2
:1006300086BF9601A701B801892F90E027960FB6D3
:10064000F894DEBF0FBECDBFCF91DF911F910F9108
:10065000FF90EF90DF90CF90089583B984E886BF34
:1006600006B607FEFDCF81B1887F80938B0090E0B6
:10067000883209F091E0892F0895BF92CF92DF92DE
:10068000EF92FF920F931F93DF93CF93CDB7DEB717
:1006900027970FB6F894DEBF0FBECDBFA22F2983D8
:1006A000F32F3A834B835C836D837E838F831A2F72
:1006B0000F2FF42EE52ED62EC72EB82E52DF88230C
:1006C00011F088E059C013B884E886BF06B607FE6B
:1006D000FDCF81B113B984E886BF06B607FEFDCF12
:1006E00081B1887F80938B00883209F455C087E000
:1006F00043C006B607FEFDCF81B1887F80938B0093
:10070000883209F44DC086E037C006B607FEFDCF3B
:1007100081B1887F80938B00883209F445C085E0E1
:100720002BC006B607FEFDCF81B1887F80938B007A
:100730008832F1F184E020C006B607FEFDCF81B11A
:10074000887F80938B008832B9F183E015C006B6AC
:1007500007FEFDCF81B1887F80938B00883281F1C5
:1007600082E00AC006B607FEFDCF81B1887F809384
:100770008B00883249F181E027960FB6F894DEBFEE
:100780000FBECDBFCF91DF911F910F91FF90EF90E2
:10079000DF90CF90BF90089503B984E886BFA9CFBA
:1007A000F3B884E886BFB1CFE3B884E886BFB9CF99
:1007B000D3B884E886BFC0CFC3B884E886BFC7CFAC
:1007C000B3B884E886BFCECF84E986BF80E0D4CFBB
:1007D000E8DE86DE882319F020E031E005C080E005
:1007E0009FDE9C0184E986BFC90108950F931F9382
:1007F000182F062FB6DE882311F082E014C013B93B
:1008000084E886BF06B607FEFDCF81B103B984E850
:1008100086BF06B607FEFDCF81B1887F80938B002F
:10082000883221F081E01F910F91089584E986BFFD
:1008300080E0F9CF991B79E004C0991F961708F062
:10084000961B881F7A95C9F780950895F894FFCF75
:1008500064051A06093D03C0F9A4B0999282F88094
:10086000908883C6A1868EE0D0B070FFFFFFFF00A6
:00000001FF
