:1000000012C021C020C01FC01EC01DC01CC01BC00C
:1000100036C019C018C017C016C015C014C013C010
:1000200012C011C010C011241FBECFE5D4E0DEBF46
:10003000CDBF10E0A0E6B0E001C01D92A436B1072C
:10004000E1F793D09CC1DCCF8FEF88BB17BA91E763
:1000500095BB9EE094BB82BB11BA08951EBC80EF95
:100060008DBD8EEB8CBD9FE09BBD82E48ABD99BDAA
:1000700088BD97BD86BD1FBC85E08EBD08951F92CB
:100080000F920FB60F9211248F9380EF8DBD8EEBE0
:100090008CBD809162008F5F809362008F910F9082
:1000A0000FBE0F901F901895F8949FEF98BB17BA4A
:1000B00081E785BB8EE084BB92BB11BA1EBC80EF8A
:1000C0008DBD8EEB8CBD9FE09BBD82E48ABD99BD4A
:1000D00088BD97BD86BD1FBC85E08EBD15BE1BBE0D
:1000E00089BF789408950F931F93182FA2D0882367
:1000F000C1F183E3612FBCD0812FD0D08093610008
:10010000812F97D0882369F18CEC612FB1D084E4E2
:10011000612FAED0812F6FD08823E1F3812F89D05A
:100120008823F9F08CEC612FA3D08EEB612FA0D047
:10013000812FB4D0082F812FB1D0982F80916100EA
:10014000803119F0883269F405C0802F8695907847
:10015000892B08C0892F8295807F02950F70802B94
:1001600001C081E81F910F9108959EDF81E008D0C2
:10017000AA9AAB9AA99A81E0B6DF80936000FBCF80
:1001800094B38095982394BB95B3982395BB80EA4C
:100190008A95F1F708952FB7F89494B3982B94BBF0
:1001A00095B38095982395BB92E09A95F1F794B317
:1001B000982394BB95B3892385BB85E18A95F1F794
:1001C0002FBF789408952FB7F89494B3982B94BBCD
:1001D00095B38095982395BB94E19A95F1F794B3E4
:1001E000982394BB95B3892385BB83E08A95F1F767
:1001F0002FBF789408953FB7F89494B3982B94BB8D
:1002000095B3282F2095922395BB92E09A95F1F70C
:1002100094B3922394BB95B3292325BB93E09A957D
:10022000F1F793B322E12A95F1F73FBF7894892340
:1002300008953FB7F89494B3982B94BB95B3282FA7
:100240002095922395BB90EA9A95F1F794B3922367
:1002500094BB95B3292325BB97E19A95F1F793B306
:1002600028E82A95F1F73FBF78949095892308955F
:10027000FF920F931F93082FF62E10E000FF03C08C
:100280008F2D89DF02C08F2D9EDF1F5F183011F088
:100290000695F4CF1F910F91FF900895FF920F9351
:1002A0001F93F82E10E000E016958F2DA4DF81112A
:1002B00010680F5F0830C1F7812F1F910F91FF90D9
:1002C0000895682F8CECD4DF08950F931F93CF937C
:1002D000DF93EC01062F83E3CBDF18E0802FDEDF16
:1002E00089931150D9F7DF91CF911F910F91089504
:1002F000282F98E038E1862F822780FD02C066957E
:1003000003C0632766956068915011F02695F3CF7E
:10031000862F0895282F98E042E050E4822F862708
:1003200080FD03C07695679505C06427752776958F
:1003300067957068915011F02695F0CFCB01089524
:10034000DC01FC0140E020E058E1308198E0832F9F
:10035000822780FD02C0269503C0252726952068A8
:10036000915011F03695F3CF31964F5F473069F7D2
:1003700090E017968C91281391E0892F0895F894B6
:02038000FFCFAD
:00000001FF
