:100000007BC045C4E3C093C092C091C090C08FC074
:100010008EC08DC08CC08BC08AC089C088C087C08C
:1000200086C085C084C009022200010100807D09CC
:100030000400000103000000092101010001224D1C
:10004000000705810308000A05010906A1018501D1
:1000500095047508150025FF0507190029FF810083
:10006000C005010902A1010901A100050919012921
:10007000031500250185029503750181029501751F
:100080000581010501093009311581257F75089524
:10009000028106C0C0040309043203760061006DCA
:1000A0000070006F00730064006500630061006D04
:1000B0000070006F007300400067006D0061006910
:1000C000006C002E0063006F006D001A0356004D97
:1000D000005000200049006E006600720061004878
:1000E000004900440012010101000000084242EFF3
:1000F000BE0102010200010011241FBECFE5D4E0C1
:10010000DEBFCDBF11E0A0E6B0E0E8EFFBE002C04B
:1001100005900D92A430B107D9F711E0A4E0B1E049
:1001200001C01D92AA35B107E1F712D163C568CFAE
:10013000FC018381823021F426E230E082E20FC0AC
:10014000813221F428E330E089E009C0823221F0D5
:1001500020E030E080E003C028E430E08DE430931C
:100160005401209353010895FC01808180768032F0
:1001700059F581818130A9F48281813041F48BEF7E
:1001800090E0909354018093530185E0089582306C
:10019000D9F487EF90E0909354018093530184E069
:1001A0000895893089F0823041F48FE091E0909396
:1001B00054018093530181E008958A3029F48381AA
:1001C00080930F0180E0089580E008951F920F92C0
:1001D0000FB60F9211242F933F938F939F93EF931A
:1001E000FF938091050190E02CB53DB5FC01EE0F29
:1001F000FF1FEF5EFE4F3183208301968770907062
:100200008093050185B794E0892785BF1DBC1CBC80
:10021000FF91EF919F918F913F912F910F900FBE82
:100220000F901F90189590910601409107015091F1
:1002300008016091090170910A01473588EA580761
:1002400080E0680780E0780709F472CF80910201AE
:1002500084FD02C0C09808951092F8001092F90031
:100260001092FA001092FC00913081F480916000AD
:10027000893140F48F5F80936000E1E6F0E020E098
:1002800030E006C08233C8F78E5FF5CF82E0F3CF4F
:1002900080819181A0E0B0E0481759076A077B0789
:1002A00009F047C0F901EE0FFF1FE20FF31FEF59EE
:1002B000FF4F42814A3F21F480916000819504C044
:1002C0004B3F29F4809160008093FA002AC04C3F94
:1002D00021F480916000819504C04D3F29F4809104
:1002E00060008093F9001DC0242F30E0C901887F91
:1002F0009070803F910561F42770307081E090E04C
:1003000002C0880F991F2A95E2F78093F80009C070
:100310004093FC0081E080930C018BEF90E065E05E
:1003200006C081E080930D0187EF90E064E086D203
:1003300007C02F5F3F4F33962233310509F0A8CF16
:1003400088E080930E0188B391E0892788BB0895E7
:10035000EF92FF920F931F932EE088E190E00FB68B
:10036000F894A89581BD0FBE21BD81E087BB14BA6A
:1003700011BA8FEF88BB85BB82BB8BB780688BBF00
:1003800085B7837F886085BF85E083BF83E08EBDAE
:1003900020E030E020FD06C082B38A7F82BB81B3BB
:1003A000856002C081B38A7F81BB90E004C00000F9
:1003B00000008150E1F7915011F080E0FACF2F5FFB
:1003C0003F4F2830310531F71AD17894EE24E39469
:1003D00002E053E0F52E11E0A8951FD1BFC0E92F30
:1003E000F0E0EE0FFF1FEF5EFE4F0190F081E02D79
:1003F000292F217080910601843009F4A3C088233D
:1004000089F4222309F49EC0E35AF640F7FF03C0A3
:10041000F095E195FF4FE536F1050CF093C0109390
:10042000060194C08130E9F4222309F08BC0CF018A
:100430008B59914097FF03C0909581959F4F8536CA
:1004400091050CF47EC0E154F340F7FF03C0F09532
:10045000E195FF4FE536F1050CF074C000930601FD
:1004600065C0823091F4222309F46CC0E357F04058
:10047000F7FF03C0F095E195FF4FE536F1050CF06D
:1004800061C0B79708F4B8C05DC0833009F05EC0A2
:1004900040910B014F5F40930B01809107019091B8
:1004A0000801A0910901B0910A01880F991FAA1FA4
:1004B000BB1F8093070190930801A0930901B0939B
:1004C0000A01222309F03EC09F012253314037FF29
:1004D00003C0309521953F4F2536310554F4816096
:1004E0008093070190930801A0930901B0930A013A
:1004F0000CC0EF55F040F7FF03C0F095E195FF4FBA
:10050000E536F105FCF4B097E8F4009306014031BC
:10051000B1F48091070190910801A0910901B09177
:100520000A018F53904CA040B04061F41092070133
:10053000109208011092090110920A0107C040327E
:1005400029F471DE1092060110920B0180910401D2
:1005500090E001968770907080930401909104015F
:1005600080910501891709F03ACF08B600FE29C02D
:10057000E8BE90910F01992371F0809110018530B0
:1005800020F085508093100106C0909310011093C5
:100590000C0110930D0180910E01882391F0815080
:1005A00080930E01882369F41092F8001092F900EC
:1005B0001092FA001092FC0010930C0110930D01A0
:1005C000C0988091020184FF07CF80910C0188239D
:1005D00039F08BEF90E065E031D110920C01FCCE48
:1005E00080910D01882309F4F7CE87EF90E064E055
:1005F00025D110920D01F0CEF0920601A7CF81E235
:1006000091E0809350010B968093440185B78360FD
:1006100085BF8BB780648BBF08950F931F93CF93D3
:10062000DF9380915601882309F49FC0482F4350DF
:1006300047FD99C021E231E0909144019F5F809194
:1006400052018D3209F087C0483009F084C0C92FAB
:10065000D32F8881807609F06FC010924201898182
:10066000882359F41092430182E491E0909354015D
:100670008093530130E822E067C0853021F48A81FD
:100680008093570157C08630D9F58B81813049F46A
:1006900085EE90E0909354018093530130EC22E179
:1006A00053C0823041F1833011F58A81882349F4A7
:1006B00085E990E0909354018093530130EC24E05D
:1006C00043C0813049F489E990E0909354018093CC
:1006D000530130EC22E338C08230A1F58BEC90E07E
:1006E000909354018093530130EC2AE12DC0813264
:1006F00011F0823239F5CE011BDD282F30EC24C0F9
:10070000883019F489E591E00AC0893021F48A81A2
:10071000809359010FC08A3049F482E491E09093AC
:1007200054018093530130E821E00EC08B3011F466
:100730001092550130E807C0892F932F15DD282F1F
:1007400030E802C030EC20E08F81882339F48E81BC
:10075000821728F003C030E880E001C0822F309378
:1007600037018093000110925601909100019F3F44
:1007700009F448C08091010184FF44C0192F9930C9
:1007800008F018E0911B909300018091370180FDE3
:1007900002C00BE401C003EC8F5F8093370120910E
:1007A00053013091540186FD05C0D901912FEAE330
:1007B000F1E011C0AAE3B1E080E090E006C0F901E9
:1007C000E80FF91FE491ED9301961817C1F705C0E2
:1007D0008D91819391509923D9F7F901E10FF11D82
:1007E000F0935401E09353018AE391E0612FFED12D
:1007F000183019F08FEF80930001009339011C5FCE
:100800001093010180B3857019F01092380111C066
:1008100080913801882369F494E680B3857049F4A7
:100820009150D9F781E080933801109257011092CE
:100830005101DF91CF911F910F9108951F93DC011A
:10084000162F9091550190FD02C02BE401C023ECBE
:100850008091020184FF04C09F5F9093550103C003
:100860008AE58093020120934501912FE6E4F1E0AF
:1008700003C08D91819391509923D9F786E491E03B
:10088000612FB4D11C5F109302011F9108950F9343
:100890000FB70F93809BFECF809B06C0809B04C048
:1008A000809B02C0000000C01F933F932F9331E054
:1008B00014E000B3102710FD32E0102F3A95C9F76D
:1008C00000FDE5C000B3102720E010FB20F9DF9306
:1008D00010B3012700FB21F9CF93C091500100B361
:1008E000102710FB22F93BE0D1E04F9310B3012712
:1008F00000FB23F94FEF000055C0809BFECF809B8B
:1009000006C0809B04C0809B02C0000000C0DF9135
:1009100000C0CDCF10B3157079F14F7D206213C0A8
:1009200000B3057049F14F7B206415C0057021F1BB
:10093000102F206800B319C000B30570E9F04E7F96
:10094000216018C039F300B30570B1F0102710FB17
:1009500026F9223028F310B3012700FB27F942279C
:1009600049934FEF00B3243008F3102710FB20F910
:10097000297F11F310B31570E1F1012700FB21F974
:10098000237FF1F000B30570A1F1102710FB22F9CD
:10099000277EE1F010B3012700FB23F93A9541F1DE
:1009A0002F7CD1F000B3057021F1102710FB24F942
:1009B0002F79C1F010B3012700FB25F92F73C2CFA7
:1009C00010B31570B1F04D7F2260DCCF00B305701D
:1009D00081F04B7F2460DECF10B3157051F0477F5C
:1009E0002860E0CF00B3057021F04F7E2061E2CF98
:1009F0003DC03C2FC09150013C1B00E433300ABF86
:100A0000A8F108811981412F1F77209151010D32E2
:100A100089F1013E79F10936C1F00777033431F5E8
:100A200010915801112311F1009156010030D1F5B8
:100A30003430D2F1309356011093520100914401A9
:100A4000C0934401009350012FC0121779F447FD61
:100A500037C03091010134FD23C00AE50093010144
:100A6000C9E3D1E025C00027009358014F91CF91F1
:100A7000DF910DC01217B9F7009358010AE50093F2
:100A800001014F91CF910AB706FD37CFDF9100E406
:100A90000ABF2F913F911F910F910FBF0F91189592
:100AA000432F03C04AE501C042EDC4E1D0E032E08B
:100AB0005F9355E0909A02B3889A8A9A20E819C009
:100AC0000AE53091020134FDEBCF00930201C5E449
:100AD000D1E0EECF052710E002BB10C0052710E0E3
:100AE000089402BB13C0052710E015C0052710E0CD
:100AF00019C020FF052702BB279517951C3F50F70B
:100B000020FF0527279502BB17951C3F38F720FFCC
:100B100005272795179502BB1C3F28F720FF0527BF
:100B2000279517951C3F02BB08F700C0499120FF8D
:100B3000052702BB279517951C3F80F520FF052749
:100B4000279502BB17951C3F68F520FF05272795C1
:100B5000179502BB1C3F58F520FF052727951795D1
:100B60001C3F02BB38F5242F3A9519F60A7F5F9196
:100B700002BB32E03A95F1F710915701C651D040CF
:100B800011F010935101016011B31A7F02BB0A7F6B
:100B90004F91CF9111BB02BBDF9179CF052710E0B8
:100BA00002BBCACF052710E0089402BBCDCF0527B2
:100BB00010E0CFCF052710E0D3CFA82FB92F8FEFAC
:100BC0009FEF41E050EA615070F02D9138E0722FB4
:100BD000782796958795269570FF02C084279527DC
:100BE0003A95A9F7F0CF809590950895E6DF8D931B
:080BF0009D930895F894FFCFD6
:100BF800025FA01E9F601F1FE0206F9021AF502250
:100C08002FD0234FB0248F70250FF026B7482786A2
:100C18000006F50A2937C828CF3052F70851EF10D7
:100C280050DF204F0DF22B857A2EA55A2DD728009C
:100C38008778003DC21327D80A6D924D3FC03175A1
:100C48008A0007F817FD0200DD2209BD42157788E2
:100C58002A2DD20FCD320A4DB24C8D7249976810A9
:100C680035CA00ED12003FC0005DA200D52A3655F6
:100C7800AA379D621B1DE22C956A00AD524A25DAFF
:100C88004B05FA4EFF00660200000001000000005C
:040C9800FF5A5A00A5
:00000001FF
