:1000000012C02CC02BC02AC029C028C027C026C0BF
:1000100025C024C023C046C121C020C01FC01EC0AF
:100020001DC01CC01BC011241FBECFE5D4E0DEBF25
:10003000CDBF10E0A0E6B0E0ECE6F3E002C0059032
:100040000D92A639B107D9F710E0A6E9B0E001C0DA
:100050001D92A23AB107E1F71CD186C1D1CFDF933F
:10006000CF93CDB7DEB7E4E3F0E08FE38083E5E341
:10007000F0E082E08083CF91DF910895DF93CF930A
:10008000CDB7DEB7EBE2F0E082E08083EAE2F0E0B9
:1000900088E98083E0E4F0E082E08083E9E2F0E058
:1000A00080E78083CF91DF910895DF93CF9300D0D5
:1000B000CDB7DEB79A83898380E690E029813A81C3
:1000C000B9014BD110929600ACE2B0E0809196005D
:1000D000882F90E0FC01E05AFF4F80818C9301C093
:1000E0000000EBE2F0E08081882F90E08072907059
:1000F0000097B1F3809196008F5F80939600809176
:100100009600882F90E00197FC01E05AFF4F808114
:100110008E3221F0809196008031B0F20F900F90D6
:10012000CF91DF910895DF93CF93CDB7DEB780E70E
:1001300090E020E830E0B90107D1009739F4E5E319
:10014000F0E081E0808386E890E0AFDFCF91DF913F
:100150000895DF93CF93CDB7DEB780E790E02DE829
:1001600030E0B901F1D0009739F4E5E3F0E082E046
:10017000808381E990E099DFCF91DF910895DF934B
:10018000CF9300D000D000D0CDB7DEB79C838B8357
:100190006D834E831A8219828D818A832EC0898154
:1001A000482F50E08A81282F30E08B819C81FC0110
:1001B000E20FF31F8081882F90E0C097829592957F
:1001C000907F9827807F9827682F8A81882F90E0DA
:1001D0009C012F5F3F4F8B819C81FC01E20FF31F3D
:1001E0008081860F8053FA01E856FF4F8083898112
:1001F0008F5F89838A818E5F8A838A81482F50E04E
:100200008D81282F30E08E81882F90E0820F931F00
:100210008417950724F6898126960FB6F894DEBFD9
:100220000FBECDBFCF91DF910895DF93CF930F9293
:10023000CDB7DEB780E790E063E046E0A0DF8983DA
:100240000F90CF91DF910895DF93CF9300D0CDB77A
:10025000DEB780917000282F30E03A8329838981AE
:100260009A818836910559F029813A8123373105E1
:1002700051F089819A818236910519F005C053DFCA
:1002800003C067DF01C0D1DF0F900F90CF91DF91E6
:100290000895DF93CF93CDB7DEB7E1DEEFDE78943C
:1002A0000000FECF1F920F920FB60F9211242F93D2
:1002B0003F934F935F936F937F938F939F93AF93EE
:1002C000BF93EF93FF93DF93CF930F92CDB7DEB73A
:1002D000ECE2F0E08081898389818E32B1F08091F7
:1002E0009700882F90E0FC01E059FF4F89818083BF
:1002F000809197008F3019F41092970011C080916F
:1003000097008F5F809397000BC080919700882F94
:1003100090E0FC01E059FF4F10821092970094DFAB
:100320000F90CF91DF91FF91EF91BF91AF919F918E
:100330008F917F916F915F914F913F912F910F908E
:100340000FBE0F901F901895FB01DC018D9101905D
:1003500080190110D9F3990B0895FB01DC0101907C
:0C0360000D920020E1F70895F894FFCF03
:10036C000000000000000000000000000000000081
:10037C000000000000000000000000000000000071
:10038C0068656C6C6F00776F726C642E00627965B7
:06039C00006279652E00ED
:00000001FF
