:1000000012C02CC02BC02AC029C028C027C026C0BF
:1000100025C024C023C0F0C221C020C01FC01EC004
:100020001DC01CC01BC011241FBECFE5D4E0DEBF25
:10003000CDBF10E0A0E6B0E0ECEAFCE002C0059025
:100040000D92AC3BB107D9F711E0ACEBB0E001C0C9
:100050001D92AA3EB107E1F7C1D226C6D1CFDF93E8
:10006000CF93CDB7DEB7E4E3F0E08FE38083E5E341
:10007000F0E081E08083CF91DF910895DF93CF930B
:10008000CDB7DEB7EBE2F0E082E08083EAE2F0E0B9
:1000900088E98083E0E4F0E082E08083E9E2F0E058
:1000A00080E78083CF91DF910895DF93CF9300D0D5
:1000B000CDB7DEB79A83898381E690E029813A81C2
:1000C000B901F5D21092E801ACE2B0E08091E8010C
:1000D000882F90E0FC01EF59FF4F80818C9301C085
:1000E0000000EBE2F0E08081882F90E08072907059
:1000F0000097B1F38091E8018F5F8093E8018091D0
:10010000E801882F90E00197FC01EF59FF4F8081B3
:100110008E3221F08091E8018031B0F20F900F9083
:10012000CF91DF910895DF93CF93CDB7DEB781E70D
:1001300090E02BE830E0B901B1D2009739F4E5E363
:10014000F0E081E0808381E990E0AFDFCF91DF9143
:100150000895DF93CF93CDB7DEB781E790E028E92C
:1001600030E0B9019BD2009739F4E5E3F0E082E09A
:1001700080838CE990E099DFCF91DF910895DF9340
:10018000CF93CDB7DEB72A970FB6F894DEBF0FBE78
:10019000CDBF9E838D836F8348871C821B828F8196
:1001A0008C836EC08C81282F30E08D819E81FC0174
:1001B000E20FF31F80818C3368F48C81282F30E0AC
:1001C0008D819E81FC01E20FF31F8081982F905357
:1001D0009A870CC08C81282F30E08D819E81FC0194
:1001E000E20FF31F8081982F97539A878A858A831D
:1001F0008C81882F90E09C012F5F3F4F8D819E81E5
:10020000FC01E20FF31F80818C3380F48C81882FF6
:1002100090E09C012F5F3F4F8D819E81FC01E20F9A
:10022000F31F8081982F905399870FC08C81882F5E
:1002300090E09C012F5F3F4F8D819E81FC01E20F7A
:10024000F31F8081982F97539987898589838B81A4
:10025000282F30E08A81882F90E082959295907FB8
:100260009827807F9827982F8981890FF901EF5768
:10027000FF4F80838B818F5F8B838C818E5F8C831C
:100280008C81482F50E08F81282F30E08885882F7F
:1002900090E0820F931F841795070CF083CF8B811A
:1002A00081502A960FB6F894DEBF0FBECDBFCF9116
:1002B000DF9108950F931F93DF93CF9300D0CDB7B5
:1002C000DEB71A82198281E790E061E042E057DFF1
:1002D000809181008A8381E790E063E04CE04FDF0A
:1002E00089838981863009F069C08A81282F30E0AE
:1002F000C901880F991F820F931F880F991F9C01B6
:100300002050304081E890E0B90146E050E0CFD382
:100310008A81082F10E08A81282F30E0C901880FD8
:10032000991F820F931F880F991F80509040B5D35B
:100330009B01AC01C801880F991F800F911F880F86
:10034000991FFC01E454FF4F208331834283538380
:100350008A81082F10E08A81282F30E0C901880F98
:10036000991F820F931F880F991F04968050904009
:1003700099D39C01C801880F991F800F911F880F86
:10038000991FFC01E054FF4F318320838A81282F7D
:1003900030E0C901880F991F820F931F880F991FA2
:1003A000FC01E454FF4F80819181A281B3810097C9
:1003B000A105B10519F48A818093600081EA90E07B
:1003C00074DE0F900F90CF91DF911F910F910895E0
:1003D000DF93CF930F92CDB7DEB7198281E790E01C
:1003E00061E042E0CCDE80918100898390916000E1
:1003F0008981891708F04BC08981A82FB0E08981D5
:10040000282F30E0C901880F991F820F931F880F92
:10041000991FFC01E454FF4F408151816281738137
:100420008981282F30E0C901880F991F820F931FFF
:10043000880F991FFC01E054FF4F208131818DB757
:100440009EB70C970FB6F8949EBF0FBE8DBFEDB749
:10045000FEB7319681E690E09183808385EA90E053
:1004600093838283B583A483468357836087718790
:100470003387228723D18DB79EB70C960FB6F89499
:100480009EBF0FBE8DBF81E690E00FDE03C085EBFF
:1004900090E00BDE0F90CF91DF910895DF93CF9323
:1004A00000D0CDB7DEB780917100282F30E03A83BD
:1004B000298389819A8188369105B1F029813A8111
:1004C0002936310534F489819A818236910571F09B
:1004D00012C029813A812237310561F089819A81E0
:1004E0008337910529F007C01EDE05C032DE03C048
:1004F000E1DE01C06DDF0F900F90CF91DF91089585
:100500000F931F93DF93CF930F92CDB7DEB719826E
:1005100019825AC08981082F10E08981282F30E084
:10052000C901880F991F820F931F880F991F805050
:100530009040B3D29B01AC01C801880F991F800F76
:10054000911F880F991FFC01E454FF4F20833183D2
:10055000428353838981082F10E08981282F30E05E
:10056000C901880F991F820F931F880F991F049646
:100570008050904097D29C01C801880F991F800F2E
:10058000911F880F991FFC01E054FF4F3183208396
:100590008981282F30E0C901880F991F820F931F8E
:1005A000880F991FFC01E454FF4F80819181A28143
:1005B000B3810097A105B10521F489818093600082
:1005C00007C089818F5F89838981823308F4A2CF34
:1005D0000F90CF91DF911F910F910895DF93CF93EB
:1005E000CDB7DEB73CDD4ADD78948ADFE5E3F0E0A5
:1005F00082E080830000FECF1F920F920FB60F9211
:1006000011242F933F934F935F936F937F938F9317
:100610009F93AF93BF93EF93FF93DF93CF930F928B
:10062000CDB7DEB7ECE2F0E08081898389818E323C
:10063000B1F08091E901882F90E0FC01EF58FF4F65
:10064000898180838091E9018F3019F41092E9014A
:1006500011C08091E9018F5F8093E9010BC0809107
:10066000E901882F90E0FC01EF58FF4F10821092B3
:10067000E90114DF0F90CF91DF91FF91EF91BF91CE
:10068000AF919F918F917F916F915F914F913F912A
:100690002F910F900FBE0F901F901895FB01DC015A
:1006A0008D91019080190110D9F3990B0895FB01E8
:1006B000DC0101900D920020E1F70895AEE0B0E07A
:1006C000E3E6F3E0C8C20D891E8986E08C831A83B5
:1006D00009838FEF9FE79E838D839E01275E3F4FA7
:1006E000CE0101966F89788DA90109D02F813885B7
:1006F000020F131FF80110822E96E4E0C8C2ABE08F
:10070000B0E0E4E8F3E099C23C012B015A01FC019E
:1007100017821682838181FD03C06FEF7FEFB9C11D
:100720009AE0892E1E010894211C311CF3012381BB
:10073000F20123FD859123FF81912F01882309F484
:10074000A5C1853239F423FD859123FF81912F01C5
:10075000853221F490E0B301D6D1E8CF982FFF2461
:10076000EE249924FFE1FF15D0F09B3269F09C3212
:1007700028F4903259F0933291F40EC09D3249F032
:10078000903369F441E024C052E0F52A84E0F82A6D
:1007900028C098E0F92A25C0E0E1FE2A22C0F7FC33
:1007A00029C0892F80538A3070F4F6FE05C0989CCA
:1007B000902C1124980E15C0E89CE02C1124E80E12
:1007C000F0E2FF2A0EC09E3229F4F6FC5FC140E43D
:1007D000F42A07C09C3619F450E8F52A02C098366E
:1007E00049F4F20123FD959123FF91912F01992363
:1007F00009F0B8CF892F8554833018F080528330A8
:1008000038F444E050E0A40EB51E5FE359830FC0F6
:10081000933631F0933779F0933509F052C01FC009
:10082000F5018081898342E050E0A40EB51E61018C
:1008300001E010E011C0F501C080D180F6FC03C0DA
:100840006FEF7FEF02C0692D70E042E050E0A40E30
:10085000B51EC6014DD18C015FE7F52213C0F5012D
:10086000C080D180F6FC03C06FEF7FEF02C0692D1E
:1008700070E042E050E0A40EB51EC6012ED18C01FE
:1008800050E8F52AF3FE06C018C080E290E0B301FC
:100890003AD1EA948E2D90E008171907B0F30DC0F5
:1008A000F601F7FC8591F7FE81916F0190E0B301AD
:1008B0002AD1E110EA94015010400115110581F789
:1008C000E2C0943611F0993661F5F7FE08C0F501E3
:1008D000208131814281538184E090E00AC0F5019A
:1008E000808191819C01442737FD4095542F82E0FF
:1008F00090E0A80EB91E9FE6F92257FF09C0509557
:100900004095309521953F4F4F4F5F4FE0E8FE2ACD
:10091000CA01B901A1012AE030E021D1D82ED218B4
:100920003FC0953729F41F2D1F7E2AE030E01DC0FF
:100930001F2D197F9F3661F0903720F4983509F00C
:10094000A5C00FC0903739F0983709F09FC004C098
:1009500028E030E00AC0106114FD146020E130E0AE
:1009600004C014FD166020E132E017FF08C0F50155
:10097000608171818281938144E050E008C0F5017B
:1009800080819181BC0180E090E042E050E0A40EC3
:10099000B51EA101E4D0D82ED2188FE7F82EF1228F
:1009A000F6FE0BC05EEFF522D91438F4F4FE07C052
:1009B000F2FC05C08FEEF82202C01D2D01C0192DDA
:1009C000F4FE0DC0FE01ED0DF11D8081803319F4A0
:1009D00099EEF92208C01F5FF2FE05C003C08F2DFB
:1009E000867809F01F5F0F2DF3FC13C0F0FE0EC0D8
:1009F0001E1510F09D2C0AC09D2C9E0C911A1E2DC8
:100A000005C080E290E0B3017ED01F5F1E15C8F3E1
:100A100004C01E1510F4E11A01C0EE2404FF0EC03C
:100A200080E390E0B3016FD002FF1BC001FD03C063
:100A300088E790E00EC088E590E00BC0802F8678B4
:100A400081F001FF02C08BE201C080E2F7FC8DE281
:100A500090E0B30158D005C080E390E0B30153D0DB
:100A60009A94D914C8F3DA94F101ED0DF11D808147
:100A700090E0B30148D0DD20B1F705C080E290E0FE
:100A8000B30141D0EA94EE20C9F750CEF30166815C
:100A90007781CB012B96E2E1ECC0A6E1B0E044E027
:100AA00050E0BDC0A8E1B0E042E050E0B8C0DC01D9
:100AB000CB0102C02D9105D041505040D8F7089588
:100AC000262FE199FECF9FBB8EBB2DBB0FB6F894AE
:100AD000E29AE19A0FBE01960895FC0105906150DB
:100AE00070400110D8F7809590958E0F9F1F089544
:100AF000FC016150704001900110D8F780959095ED
:100B00008E0F9F1F08950F931F93CF93DF938C0138
:100B1000EB018B8181FF1BC082FF0DC02E813F81C5
:100B20008C819D812817390764F4E881F98101934C
:100B3000F983E88306C0E885F985802F0995892B1C
:100B400031F48E819F8101969F838E8302C00FEFC7
:100B50001FEFC801DF91CF911F910F910895FA0106
:100B6000AA27283051F1203181F1E8946F936E7FEC
:100B70006E5F7F4F8F4F9F4FAF4FB1E03ED0B4E0DD
:100B80003CD0670F781F891F9A1FA11D680F791F1E
:100B90008A1F911DA11D6A0F711D811D911DA11D2F
:100BA00020D009F468943F912AE0269F112430193F
:100BB000305D3193DEF6CF010895462F4770405DDA
:100BC0004193B3E00FD0C9F7F6CF462F4F70405D89
:100BD0004A3318F0495D31FD4052419302D0A9F7E4
:100BE000EACFB4E0A6959795879577956795BA95DE
:100BF000C9F700976105710508959B01AC010A2EA4
:100C000006945795479537952795BA95C9F7620F7A
:100C1000731F841F951FA01D0895DC01CB01FC01EB
:100C2000E199FECF06C0FFBBEEBBE09A31960DB254
:100C30000D9241505040B8F708952F923F924F9235
:100C40005F926F927F928F929F92AF92BF92CF925C
:100C5000DF92EF92FF920F931F93CF93DF93CDB765
:100C6000DEB7CA1BDB0B0FB6F894DEBF0FBECDBFDD
:100C700009942A88398848885F846E847D848C84AE
:100C80009B84AA84B984C884DF80EE80FD800C81B7
:100C90001B81AA81B981CE0FD11D0FB6F894DEBF9A
:0C0CA0000FBECDBFED010895F894FFCF0A
:100CAC003200000000000000000000000000000006
:100CBC000000000000000000000000000000000028
:100CCC00000000000000000000000068656C6C6F04
:100CDC0000776F726C642E00627965006279652E04
:100CEC00006F6B2E0073253032582530386C582528
:0C0CFC003034582E004552524F522E004A
:00000001FF
