:1000000058C0CFC371C070C06FC06EC06DC06CC02F
:100010006BC06AC069C068C067C066C065C064C0A4
:1000200063C062C061C0090243000201008032095E
:100030000400000102020100052400100104240252
:1000400002052406000105240103010705830308B6
:1000500000FF09040100020A000000070501020870
:100060000000070581020800000403090422037749
:1000700000770077002E0072006500630075007243
:1000800000730069006F006E002E006A007000109F
:10009000035500530042002D00320033003200129D
:1000A00001100102000008C016E105000101020074
:1000B000010011241FBECFE5D4E0DEBFCDBF10E0AC
:1000C000A0E6B0E0EAE7FAE002C005900D92AC3697
:1000D000B107D9F712E0ACE6B0E001C01D92A4343C
:1000E000B107E1F738D1C7C48BCFBF92CF92DF926F
:1000F000EF92FF920F931F936B017C01B42E122F8E
:100100009695879577956795605A7C41894E9F4F64
:10011000A70196018ED42150304040405040599A5A
:100120001AB881E0B81611F440EB04C04B2D42958B
:10013000407F4068802F90E00597880F991F1695A3
:10014000110F110F110F182B412B40BD29B930BDD4
:1001500088E18AB984BB8FEF85BB1F910F91FF9017
:10016000EF90DF90CF90BF9008950F931F93309141
:10017000FF01909100020FC0E92FF0E0E250FF4F25
:1001800080818CB99F5F80911E0287FF07C0293054
:1001900028F010921E02292F231B01C02F5F5D9BA8
:1001A0000BC0391739F4309300029091FE01E091B1
:1001B000FD0015C09D99E0CF90930002F6CF39174E
:1001C00051F08BB12CB18C7171F4F0E0EB58FF4F12
:1001D0002083E32F04C0E093FD00AC9808C0EF5FDC
:1001E0003E2F3F77E1505F99EACFE093FD00809189
:1001F0000D0284FF3CC06091FD00691721F48091DD
:1002000001028823A1F1162F191B1F77193008F05E
:1002100018E0012F090F07FF10C00F77A5E7B0E026
:10022000202F30E02A0F3B1F05C0FD01E058FF4F93
:100230008D918083A217B307C1F7892F90E08B5867
:100240009F4F612F4FD10093FE01112361F0AC9AB3
:10025000183049F490E08091FD00801391E081E036
:100260009827892F02C080E090E0809301021F91BF
:100270000F910895FC018381813049F48FE990E06A
:1002800090931D0280931C0280919F00089586E246
:1002900090E090931D0280931C0283E40895FC017A
:1002A0002081822F8076803201F59181892F8052C2
:1002B000823010F48FEF0895923281F485B39281E9
:1002C0009170990F990F990F877F982B95BB80910B
:1002D0006C00882319F482E080936C0027FD05C030
:1002E00081E08093010280E0089580E00895FC01A0
:1002F0008091700080838091710081838091720071
:10030000828380917300838380916D0084838091C8
:100310006E00858380916F00868387E00895DC01FD
:10032000909100020CC02E2F2F5F291739F0F0E0BA
:10033000E250FF4F8D9180832093FF016150E09147
:10034000FF01662381F791509E1B993018F48FEFBF
:1003500080931E0208950F932EE088E190E00FB67F
:10036000F894A89581BD0FBE21BD8AEF82BB85E0C0
:1003700081BBA89584EC99E02CE231E0F90131973A
:10038000F1F70197D9F711BA80E895E2A0E0B0E063
:100390008093700090937100A0937200B0937300EB
:1003A00010926D0010926E0088E080936F0060E8FC
:1003B00075E280E090E040E020E008E096DE1092F8
:1003C00000021092FD001092FE011092FF0157D022
:1003D00010926C00109201027894A895A5D0C5DE09
:1003E00090916C009923C9F38091380284FFF5CF76
:1003F000923021F480E690E068E003C088E690E067
:1004000062E04ED080916C00815080936C00E5CF0B
:100410000F93FC0180818093700081818093710033
:100420008281809372008381809373009481909382
:100430006D00858180936E00068100936F0083308C
:1004400010F010926E00913011F410926D006091D6
:1004500070007091710080917200909173004091D2
:100460006E0020916D0041DE109200021092FD009E
:100470001092FE011092FF0181E00F91089585B75F
:10048000826085BF8BB780648BBF8BE480930E0244
:10049000809339028AE580930D0280933802089593
:1004A0001F93DC01162F8091380284FF07C08091D2
:1004B000390298E889278093390203C08AE580933E
:1004C0003802912FEAE3F2E08D9181939150191651
:1004D000DCF38AE392E0612F60D11C5F1093380255
:1004E0001F9108951F93DC01162F80910D0284FF48
:1004F00007C080910E0298E8892780930E0203C0FE
:100500008AE580930D02912FEFE0F2E08D918193C7
:1005100091501916DCF38FE092E0612F3ED11C5F01
:1005200010930D021F9108951F93CF93DF93609155
:100530001E02635067FDB2C080911B02CCE0D0E088
:10054000C81BD109CE5DDD4F80911A02803118F4AD
:10055000CE01E5DE9DC08D3209F08AC0683009F019
:1005600097C083EC809302028AE580936A00109220
:1005700074008881807621F0CE0191DE282F65C03D
:100580009A8110920B028981882321F410920C0227
:1005900022E054C0853019F490931F024EC086307B
:1005A000B1F58B81813041F48FE990E090931D0289
:1005B00080931C0222E127C0823021F4CE015ADE52
:1005C000282F21C08330F1F4992341F489E690E08B
:1005D00090931D0280931C0224E015C0913041F4D9
:1005E0008DE690E090931D0280931C0222E20BC0E6
:1005F000923041F48FE890E090931D0280931C02AA
:1006000020E101C020E080E4809374001EC08830A7
:1006100021F421E081E292E013C0893019F4909333
:1006200021020BC08A3011F421E008C08B3029F47C
:100630008BE480930E028093390220E08BE092E0FD
:1006400090931D0280931C0209C02F3F39F48881CA
:1006500087FD2E8180E88093740006C08F818823F7
:1006600019F48E81821708F0822F80936B0010C0DE
:100670008091740087FF0CC0CE01CADE8F3F21F449
:100680008EE180936A0004C0882311F010926B0001
:1006900080911E02181614F410921E0280916A00B6
:1006A00084FF58C080916B008F3F09F453C0182F0E
:1006B000893008F018E0811B80936B008091020262
:1006C00098E8892780930202112391F180917400A8
:1006D00087FF08C083E092E0612F09DE182F893080
:1006E00098F526C020911C0230911D0286FF0DC096
:1006F000A3E0B2E080E090E0F901E80FF91FE49197
:10070000ED9301961817C1F708C0912FD901E3E0C6
:10071000F2E08D9181939150E1F71150812F90E09B
:100720001F5F0196820F931F90931D0280931C02FE
:1007300083E092E0612F31D0612F6C5F6C3041F02B
:100740008FEF80936B0004C08FEF80936B006EE19E
:1007500060936A0094E180B3857031F49150D9F7C9
:1007600010921F0210921902DF91CF911F910895EC
:10077000A82FB92F80E090E041E050EA609530E08A
:1007800009C02D9182279795879510F0842795278A
:10079000305EC8F36F5FA8F30895EADF8D939D93F1
:1007A0000895CF93CFB7CF93C395809BE9F7809BF4
:1007B00009C0809B07C0809B05C0809B03C0809BB5
:1007C00001C0A6C0DF93C0911B02DD27CE5DDD4FC7
:1007D000809B02C0DF91EBCF2F930F931F9300B349
:1007E0002FEF00FB20F94F933F9310B34FEF0127FA
:1007F00000FB21F93BE031C04E7F012F10B3216097
:1008000028C0102F4D7F2260000000B329C04B7F0D
:100810002460012F000010B32BC010B3477F286065
:100820002AC04F7E00B320612CC04F7D10B32062E0
:100830002FC04F7B00B3206432C0422700B34993DE
:100840004FEF0000102710FB20F910B31570C9F10D
:10085000297F91F2012700FB21F900B3237F89F260
:10086000315058F1102710FB22F910B3277E79F28E
:10087000012700FB23F92F7C81F200B3102710FB26
:1008800024F92F7971F200C010B3012700FB25F97C
:100890002F7359F200C000B3102710FB26F9223045
:1008A00040F200C010B3012700FB27F9243028F6DE
:1008B0004F77206810B30000F9CF10E41ABF00276B
:1008C0001CC03B503195C31BD04010E41ABF0881B7
:1008D000033C11F10B3401F1209119021981110F20
:1008E0001213EDCF4A81441F093659F10D3211F030
:1008F000013E29F74F7009F0042F009320023F9129
:100900004F911F910F912F91DF91CAB7C6FD4CCF28
:10091000CF91CFBFCF91189520912002222379F358
:1009200010911E021123C1F53430C2F130931E0222
:1009300020931A0210911B023BE0311B30931B02E3
:100940002DC000911E0201303CF50AE54F7049F4BC
:1009500030916A0034FD24C000936A00C2E0D2E006
:1009600023C0433049F030910D0234FD19C000938B
:100970000D02CEE0D2E018C03091380234FD10C034
:1009800000933802C9E3D2E00FC02795A8F4515074
:10099000A9F4220F0000F9CF4AE503C042ED01C0DF
:1009A000432FC4E1D0E032E011B31560909A11BB3F
:1009B00002B320E415E05F93012756E002BB2795C0
:1009C00020F4515021F4220FF9CF012756E0000006
:1009D0003B5A02BBD0F2279528F4515029F4220F3C
:1009E0000000F9CF012756E0279502BB20F45150B3
:1009F00021F4220FF9CF012756E02991332302BBBE
:100A000021F60A7F10911F02110FC651D04002BB80
:100A100011F01093190210E41ABF016011B31A7F8C
:100A2000402F4A7F5F9100C000C002BB11BB42BB98
:100A300066CFA1E21A2EAA1BBB1BFD010DC0AA1F87
:100A4000BB1FEE1FFF1FA217B307E407F50720F037
:100A5000A21BB30BE40BF50B661F771F881F991FB2
:100A60001A9469F760957095809590959B01AC01FB
:0A0A7000BD01CF010895F894FFCFF7
:0C0A7A00A12000000000020003005AFF51
:00000001FF
