:100000002BC045C044C07BC242C041C040C03FC0BD
:100010003EC03DC03CC052C13AC039C038C037C0F4
:1000200036C035C034C033C032C031C030C02FC03C
:100030002EC02DC0A9C1B4C1A7C1ACC1A5C1AAC160
:10004000A3C1A2C1A7C1ACC1ABC1AAC1A9C1A8C16A
:10005000A7C19AC19FC198C111241FBECFEFD4E0A0
:10006000DEBFCDBF11E0A0E0B1E0E6E4FAE002C0FF
:1000700005900D92AC31B107D9F711E0ACE1B1E0D8
:1000800001C01D92AA32B107E1F7EED2DAC4B8CFAF
:10009000582F843028F5F894E8E2F0E040E34083FC
:1000A00022EE34E0C9010197F1F7ABE2B0E06C93C6
:1000B000C9010197F1F781E090E002C0880F991F14
:1000C0005A95E2F780638083C9010197F1F7408375
:1000D000C9010197F1F71C92C9010197F1F77894D2
:1000E0000895EF92FF920F931F9380912801813022
:1000F000C9F1813038F0823009F464C0833009F0EE
:10010000A6C086C003E211E0F801808182958F705D
:100110000F2EF3E0EF2EF1E0FF2EF02DF701E80FA8
:10012000F11D80E06081B4DFF80180818F70F701FC
:10013000E80FF11D83E06081ABDFF80182918F0150
:1001400082958F70F701E80FF11D82E06081A0DFDA
:10015000F80180818F70E80EF11C81E0F701608169
:1001600097DF75C005E211E0F801808182958F70FC
:100170000F2EF3E0EF2EF1E0FF2EF02DF701E80F48
:10018000F11D80E0608184DFF80181918F018F7023
:10019000F701E80FF11D83E060817ADFF8018081CB
:1001A00082958F70F701E80FF11D82E0608170DFAA
:1001B000F80180818F70E80EF11C81E0F701608109
:1001C00067DF45C005E011E080E0F801608160DF95
:1001D0000250104083E0F80160815ADF0F2EF7E2F1
:1001E000EF2EF1E0FF2EF02DF701808182958F70C8
:1001F000F801E80FF11D82E060814ADFF70180819C
:100200008F70080F111D81E0F801608141DF1FC070
:1002100080E06FE73DDF83E06FE73ADF0F2EF4E227
:10022000EF2EF1E0FF2EF02DF70180810DE011E0BF
:10023000F801E80FF11D319782E0608129DFF701B5
:100240008081080F111D81E0F801668121DF1F9177
:100250000F91FF90EF90089581E084B9E5E2F0E01E
:100260008081806480838FE087B9E8E2F0E080815C
:10027000806380838FE78AB91BB88FE38083E8E6C9
:10028000F0E0808181608083EBE6F0E08081806433
:100290008083809100019091010190938900809367
:1002A0008800EFE6F0E0808182608083E1E8F0E0A2
:1002B000808190910201892B808308951F920F9273
:1002C0000FB60F9211240F931F932F933F934F93C9
:1002D0005F936F937F938F939F93AF93BF93EF93AE
:1002E000FF93109285001092840083B1482F4678C6
:1002F000F894463849F4809100019091010190935F
:10030000890080938800E7C02091000130910101AD
:10031000C901880F991F820F931F909389008093C2
:100320008800423809F472C0443821F0463009F0A0
:10033000D2C0C6C080912801882391F403E211E065
:10034000F80180815AD3F8018083843211F410922D
:10035000230182E06091230120D380931E0154C0C9
:10036000813051F505E211E0F801808146D3282F54
:10037000F8018193808190E0FC013197E231F10531
:1003800078F4E65EFF4F0994223379F481E080939C
:1003900025010BC0213349F481E08093250105C07C
:1003A000293219F481E08093250184E060912501D0
:1003B000F4D280931E0128C0823099F407E211E044
:1003C000F80180811AD3F8018083813519F481E125
:1003D0008093270186E060912701DFD280931E0180
:1003E00013C0833089F480912401873021F481E0A7
:1003F0008093240103C08F5F8093240183E0609188
:100400002401CBD280931E016CDE65C0809128014F
:100410008823B9F402E211E0F8018081EED2F801FC
:100420008083803611F41092220180E060E0B5D222
:1004300080931E0181E060912201AFD280931E0162
:100440003DC0813099F406E211E0F8018081D5D2F7
:10045000F8018083833119F481E08093260185E0DF
:10046000609126019AD280931E0128C0823099F4AF
:1004700007E211E0F8018081CCD2F801808380315D
:1004800019F480E58093270186E06091270185D2E9
:1004900080931E0113C0833089F480912401813040
:1004A00021F487E08093240103C0815080932401CC
:1004B00083E06091240171D280931E0112DE0BC093
:1004C00080912801833019F41092280103C08F5FB6
:1004D0008093280106DE7894FF91EF91BF91AF9150
:1004E0009F918F917F916F915F914F913F912F914C
:1004F0001F910F910F900FBE0F901F9018951F9294
:100500000F920FB60F9211242F933F934F935F9347
:100510006F937F938F939F93AF93BF93EF93FF93CB
:10052000DF93CF93CDB7DEB72797DEBFCDBFF8946B
:10053000A5E2B0E09C91E3E2F0E0808182958695AF
:100540008695837081709E7F892B8C9380818295A4
:1005500086958695837080FD05C0809120018F5F10
:1005600080932001809120018C3309F066C053D123
:1005700029833A834B835C836D837E838F83A1E2DF
:10058000B1E0FE01319687E001900D928150E1F7D4
:10059000E1E2F1E02081822F82958F703AE0839F23
:1005A000C00111242F70280F2093200185818330F2
:1005B000E9F4809125018632C8F0809124018130D0
:1005C000D9F5809123018330B9F5809122018823E8
:1005D00099F5222389F581E080931B0184E08093C3
:1005E000230182E064E0D9D180931E01809126012D
:1005F000803111F580911B018130F1F4809125014A
:100600008632D0F0809124018130B1F480912301B1
:10061000843091F480912201882371F4809120012B
:10062000882351F410921B0183E08093230182E020
:1006300063E0B3D180931E0154DD78942796DEBF2A
:10064000CDBFCF91DF91FF91EF91BF91AF919F917E
:100650008F917F916F915F914F913F912F910F906B
:100660000FBE0F901F901895DF93CF93CDB7DEB7D5
:1006700027970FB6F894DEBF0FBECDBFF894ECDD20
:100680007894C9D029833A834B835C836D837E83BE
:100690008F83A1E2B1E0FE01319687E001900D92D7
:1006A0008150E1F780912101282F22952F709AE047
:1006B000299F900111248F70820F8093200187E081
:1006C00060E16BD180931E010CDDFFCF089584EAB9
:1006D0008093BC00ECEBF0E080818823ECF7809104
:1006E000B900887F80932901883011F490E006C01A
:1006F00090E0803109F491E081E09827892F0895F6
:1007000084E98093BC0080E00895E1DF882311F044
:1007100091E014C081ED8093BB0084E88093BC001D
:10072000ECEBF0E080818823ECF78091B900887FC2
:100730008093290190E0803409F091E0892F089599
:100740008823A1F084EC8093BC00ECEBF0E0808186
:100750008823ECF78091B900887F80932901803548
:10076000C9F48091BB00282F30E016C084E8809344
:10077000BC00ECEBF0E080818823ECF78091B900BD
:10078000887F80932901883529F48091BB00282F28
:1007900030E002C020E031E0822F932F089597DFF0
:1007A000882311F091E014C080ED8093BB0084E8B1
:1007B0008093BC00ECEBF0E080818823ECF7809123
:1007C000B900887F8093290190E0883109F091E099
:1007D000892F08958093BB0084E88093BC00ECEBE4
:1007E000F0E080818823ECF78091B900887F8093C6
:1007F000290190E0883209F091E0892F08951F9334
:10080000182FCDDF882311F081E003C0812FE2DFB4
:1008100080E01F910895BF92CF92DF92EF92FF92F6
:100820000F931F93DF93CF93CDB7DEB727970FB604
:10083000F894DEBF0FBECDBF80E0E1DF66DF882326
:1008400041F0BB24CC24DD24EE24FF2400E010E0A2
:1008500016C081E075DFB82E81E072DFC82E81E01E
:100860006FDFD82E81E06CDFE82E81E069DFF82EA3
:1008700081E066DF082F80E063DF182F41DF2B2D3A
:100880003C2D4D2D5E2D6F2D702F812F90E02796E2
:100890000FB6F894DEBF0FBECDBFCF91DF911F9191
:1008A0000F91FF90EF90DF90CF90BF900895BF928F
:1008B000CF92DF92EF92FF920F931F93DF93CF932C
:1008C000CDB7DEB727970FB6F894DEBF0FBECDBF0A
:1008D000A22F2983F32F3A834B835C836D837E831E
:1008E0008F831A2F0F2FF42EE52ED62EC72EB82E5B
:1008F00056DF882311F088E02EC080E06BDF812F67
:1009000069DF882311F087E026C0802F63DF88230A
:1009100011F086E020C08F2D5DDF882311F085E087
:100920001AC08E2D57DF882311F084E014C08D2D5E
:1009300051DF882311F083E00EC08C2D4BDF88231C
:1009400011F082E008C08B2D45DF882311F081E093
:1009500002C0D6DE80E027960FB6F894DEBF0FBE49
:10096000CDBFCF91DF911F910F91FF90EF90DF905E
:10097000CF90BF900895CF93DF9341DFC6DE8823E9
:1009800019F0C0E0D1E004C080E0DADEEC01B8DEAE
:100990008C2F9D2FDF91CF9108950F931F93182FC8
:1009A000062FFDDE882311F082E00AC0812F12DFBE
:1009B000802F10DF882311F081E002C0A1DE80E0EB
:1009C0001F910F910895482F6AE02FD0282F30E013
:1009D00022953295307F3227207F3227842F25D0F1
:1009E000892F822B0895282F22952F709AE0299F16
:1009F000900111248F70820F0895982F9F5F892F87
:100A00008F708A3009F49A5F943608F090E0892F4D
:100A10000895982F9150892F8F708F3009F4965038
:100A2000943608F090E0892F0895991B79E004C06E
:100A3000991F961708F0961B881F7A95C9F780951D
:060A40000895F894FFCFB9
:100A46001A0603407924301912027800104047092B
:0C0A5600096141124141084F404F080166
:00000001FF
