:020000020000FC
:1000000027C22BC141C118951895189574C1189530
:1000100018954CC118951895189518951895189518
:100020001895189518950100C90000002900A00036
:10003000EC0404EA06BF06B707FFFDCF3CD008304A
:1000400019F0003109F073C01BC004E906BF18C0E5
:100050008A93802F5FD0002311F001E003C0082FA6
:100060006CD000E089910895E4DF002309F05FC0BF
:1000700001ED5FD006B707FFFDCF1DD00034B9F703
:1000800000E00895002351F004EC06BF06B707FF17
:10009000FDCF11D0003551F000E00BC004E806BFE1
:1000A00006B707FFFDCF07D00835B1F703B110E061
:1000B000089511E0089501B1087F0093C9000895E3
:1000C000DFD12797C801FE0120E0A7E02193AA9580
:1000D000E9F700E0BDDFC8DF002341F08C01FE013D
:1000E00047E050E0C2D12796E3E0CEC111D00883AB
:1000F0000FD009830DD00A830BD00B8309D00C835A
:1001000007D00D8300E0BEDF0E8304E906BFE6CF13
:1001100001E0B8CF8EDF002309F009C000ED09D05F
:1001200006B707FFFDCFC7DF0831B9F7A9CF01E058
:10013000089503B904E806BF0895FBDF06B707FF7B
:10014000FDCFB9DF083209F0F2CF9ACF9AD1902FC4
:10015000812FE0DF002311F002E004C0092FEDDF62
:10016000082F02D0E2E091C1E8DF002309F0DFCFE1
:100170006CCF0395102F1F701A3009F40A5F0436F4
:1001800008F000E00895002319F00A9569F0089539
:100190000091A2002AD00091A20017D00091A100E6
:1001A00018D00091A1000BC00091A4001ED00091B6
:1001B000A4000BD00091A5000CD00091A5000F70F9
:1001C000E02F0ED00093AA00089508D00093A80055
:1001D000089503D00093A900089502950F70E02FB1
:1001E000F0E0E056FF4F02890895F7DF0093A70083
:1001F00008950FEF07BB08BB03EF01BBF8940EE0B7
:1002000005BF05BF0BB7006C0BBF09B7016009BF85
:100210006CD00091B00013B7102B13BF00E00EBDDF
:100220000DBD0CBDE7D009B7006109BF00E00FBDEF
:100230000091B1000EBD0AB70ABF78940895D9DFC6
:1002400010E000E083DF0093C20000EA10E038DF36
:1002500010E107E07BDFF7D0FFCFFA93EA931A9320
:100260000A931FB73FD002A1039502A30A3010F0F2
:1002700000E002A3E091C200B3DF08BB1FBF0991F9
:100280001991E991F9911895CDD02CD00081039561
:10029000008300FF02C00AE001C00EE005BF00813C
:1002A0000C3311F48F010CDFACD01895FA93EA935C
:1002B0002A931A930A932FB718D00091C800039578
:1002C00003700093C8001FEF18BB10E00BD0E00FC5
:1002D000F11F03A102BB078108BB2FBF0991199130
:1002E0002991CFCFE0EAF0E008950FEF1091AF0031
:1002F000011B02BF089596D000E00DBD0CBD03B3F5
:100300000F700093C7000F3019F49DD073D06FC0E9
:10031000E9DF258536853BBD2ABD0A5009F456C064
:100320000A95C1F00A9529F10A9529F00A9509F074
:100330005EC05ED05CC087D00091A2001ADF00933F
:10034000A200043219F400E00093A2001091A20070
:1003500002E04AC078D00091A1000BDF0093A10019
:10036000003619F400E00093A1001091A10001E013
:100370003BC03ED00091A400FCDE0093A40010918D
:10038000A5001A95A1F0125091F01A95B1F01A95A6
:1003900071F01A9591F01A9551F01A9541F01A954D
:1003A00061F0175021F01A9541F01A9549F4023383
:1003B00049F401E00093A40005C0013319F4F9CF1A
:1003C0000932B9F31091A40004E00EC011D00091DD
:1003D000A500CFDE0093A500033119F401E00093DE
:1003E000A5001091A50005E0B1DE0093C2005CCF2E
:1003F00001E0C9CEE0EAF0E0038514851BBD0ABD2B
:1004000008958FBF09911991299139914991599175
:10041000699179910990199029903990E991F99110
:10042000899108958A93FA93EA933A922A921A92BA
:100430000A927A936A935A934A933A932A931A9315
:100440000A938FB7089500E09ECE00008895FECFF6
:100450000FE90DBF00E00EBFC0E8D0E01DD00023C3
:1004600009F02AD0ECDEF1DFF0CFAF93BF93D801D3
:1004700001900D9241505040D9F7BF91AF9108952E
:10048000AA939A938A930895AA8199818881F0E02A
:10049000EC0FFD1FEF01089501E0089520E006D064
:1004A000E9F70895259102D0E9F708952D930150B9
:1004B0001040202F212B089586E290E0FC01059149
:1004C0001491FC013296A591B491FC0134962591CA
:1004D0003491422F432B19F0F901E4DF01C0DEDF34
:1004E000069610E08233910748F30895000000005B
:1004F000000000FFFFFFFF1A06093D640503C0F975
:10050000A4B0999282F880908883C6A1868E00E07C
:05051000D0B0700000F6
:0400000300000000F9
:00000001FF
