:040000000C949607BF
:14005400E7BF9F7F5F4F3F2F271F1B17130F0B07050302748E
:140068006050403028201814100E0C0A080604030201FF01A4
:14007C0001010101010101010101010101010101010101015C
:14009000010101010101010101010101010101010101010148
:1400A400010101010101010101010101010101010101010134
:1400B800010101010101010101010101010101010101010120
:1400CC0001FFFF000000000000000000000000000000000021
:1400E00000000000000000000000000000000000000000000C
:1400F4000000000000000000000000000000000000000000F8
:140108000000000000000000000000000000000000000000E3
:14011C000000000000FFFF00000000000000000000000000D1
:140130000000000000000000000000000000000000000000BB
:140144000000000000000000000000000000000000000000A7
:14015800000000000000000000000000000000000000000093
:14016C00000000000000000000FFFF00000000000000000081
:1401800000000000000000000000000000000000000000006B
:14019400000000000000000000000000000000000000000057
:1401A800000000000000000000000000000000000000000043
:1401BC0000000000000000000000000000FFFF000000000031
:1401D00000000000000000000000000000000000000000001B
:1401E400000000000000000000000000000000000000000007
:1401F8000000000000000000000000000000000000000000F3
:14020C000000000000000000000000000000000000FFFF8060
:140220008080808080808080808080808080808080808080CA
:140234008080808080808080808080808080808080808080B6
:140248008080808080808080808080808080808080808080A2
:14025C0080808080808080808080808080808080808080808E
:1402700080FFFFFFFFFFFFFFFFFFFFFFFFFFFFFFFFFFFFFF0D
:14028400FFFFFFFFFFFFFFFFFFFFFFFFFFFFFFFFFFFFFFFF7A
:14029800FFFFFFFFFFFFFFFFFFFFFFFFFFFFFFFFFFFFFFFF66
:1402AC00FFFFFFFFFFFFFFFFFFFFFFFFFFFF7F7F3F3F1F0FA2
:1402C0000F07070303FFFFFFFFFFFFFFFFFFFFFFFFFFFFFF16
:1402D400FFFFFFFFFFFFFFFFFFFFFFFFFFFFFFFFFFFFFFFF2A
:1402E800FFFFFFFFFFFFFFFFFFFFFFFFFFFFFFFFFFFFFFFF16
:1402FC00FFFFFFFF7F7F3F1F1F0F0F07070301010000000046
:14031000000000000000000000FFFFFFFFFFFFFFFFFFFFFFE4
:14032400FFFFFFFFFFFFFFFFFFFFFFFFFFFFFFFFFFFFFFFFD9
:14033800FFFFFFFFFFFFFFFFFFFFFFFFFFFF7F7F3F1F1F0F35
:14034C000F070703010100000000000000000000000000007B
:1403600000000000000000000000000000FFFFFFFFFFFFFF90
:14037400FFFFFFFFFFFFFFFFFFFFFFFFFFFFFFFFFFFFFFFF89
:14038800FFFFFFFF7F3F3F1F1F0F0F070303010100000000FD
:14039C0000000000000000000000000000000000000000004D
:1403B0000000000000000000000000000000000000FFFFFF3C
:1403C400FFFFFFFFFFFFFFFFFFFFFFFFFFFF7F3F3F1F1F0FE9
:1403D8000F07030301010000000000000000000000000000F3
:1403EC000000000000000000000000000000000000000000FD
:140400000000000000000000000000000000000000000000E8
:1404140000FFFFFFFFBFBF9F9F8F8787838381818080808077
:140428008080808080808080808080808080808080808080C0
:14043C008080808080808080808080808080808080808080AC
:14045000808080808080808080808080808080808080808098
:140464008080808080FF000000000000000040404050505055
:14047800505054D4D4D6F6F6F6FEFEFEFEFEFEFE7E7E7E7E32
:14048C007CFCFCF8F8F8F0F0E0C08000000000000000000000
:1404A0000000000000000000000000005054555555555555A6
:1404B4005555F5FDFFFFF7F7F3F3E1C1C1C1C08181C0C0C0A0
:1404C800C0C0C0C0800080000001010101010101818141C115
:1404DC00C2C6C6FC76FC8C84840400000000155555555555FA
:1404F000555555575F7FFFFFFFFFFFFFFFFFFFFFFFFFFFFFD2
:14050400FFFFFFFFFFFFFF7D0780C0F0FEFEF6FF7F1F0101A5
:140518000301000001010000000000000000000000000101C7
:14052C0005050515151515155557575F5F5F5F7F7F7F7F7F49
:140540007F7F7F7F1F034160303E3F1F1F0F0F0703010000D4
:140554000000000000000000000000000000FFDDABFFABDD85
:14056800ABFFABDDAB7F6B3D2B1F1B0D0B0F0B0507070705C5
:14057C00030303030301010101010101010101C1C1010101CD
:140590000101010101010101030303030307070507070B0D07
:1405A4000B0F1B1D2B3F6B5DABFFABDDABFFABDDABFFFFDDD5
:1405B8002A1F0A05020301000000008080405070E090100849
:1405CC00080808040404040402020202020202021151F10389
:1405E000F311F10102020202020202020404040404080808D5
:1405F4000850703828404080800000000000010306070A1D13
:140608006AFFFF0000000040201008040202010000000000F5
:14061C000000000000000000000000000000000000000000CA
:140630000101010001010100000000000000000000000000B0
:14064400000000000000000000000080808102828488102061
:140658000000000000FFFF000000000000021F001F111F0020
:14066C000000000000000000000000000000000000000080FA
:1406800080808080C040C040C040C080808080800000000026
:140694000000000000000000000000000000000F0A0E000F1C
:1406A800080F00000000000000FFFF00000000000000000029
:1406BC000000000000000000000000000080C020B008AC0462
:1406D000AA01AB00AA80AAC0EAC0EAC0EAC0EAC0AA80AA00B0
:1406E400AB01AA04AC08B020C08000000000000000000000E4
:1406F80000000000000000000000000000FFFF808080808070
:14070C00808080808080808080808080808080E0BE81AA8010
:14072000AA80EAF8FEFEFFFFFFFFFFFFFFFFFFFFFFFFFFFFCB
:14073400FFFFFFFFFFFEFEF8EA80AA80AA81BEE08080808065
:140748008080808080808080808080808080808080FF00001E
:14075C0000000000002F00000007000700147F147F14242AC4
:140770007F2A12C4C810264636495522500005030000001C48
:140784002241000041221C0014083E081408083E08080000AB
:140798005030001010101010006060000020100804023E51F0
:1407AC0049453E00427F400042615149462141454B3118149A
:1407C000127F1027454545393C4A494930017109050336490B
:1407D400494936064949291E00363600000056360000081456
:1407E8002241001414141414004122140802015109063249D9
:1407FC0059513E7E1111117E7F494949363E414141227F415F
:1408100041221C7F494949417F090909013E4149497A7F080D
:1408240008087F00417F41002040413F017F081422417F4092
:140838004040407F020C027F7F0408107F3E4141413E7F09FD
:14084C000909063E4151215E7F0919294646494949310101CD
:140860007F01013F4040403F1F2040201F3F4038403F63145A
:1408740008146307087008076151494543007F414100552A60
:14088800552A550041417F0004020102044040404040000139
:14089C0002040020545454787F484444383844444420384487
:1408B00044487F3854545418087E0901020C5252523E7F0884
:1408C40004047800447D40002040443D007F10284400004182
:1408D8007F40007C041804787C0804047838444444387C1469
:1408EC00141408081414187C7C080404084854545420043FC9
:140900004440203C4040207C1C2040201C3C4030403C44289B
:140914001028440C5050503C4464544C44000000000000008F
:14092800000000000000000000000000003E00FF0DFF0D3E27
:14093C0000000000000000040007000300000004000700038B
:14095000001001FE0FFE0F10011001FE0FFE0F10011C033EBE
:14096400072204FF0FFF0F4204CE078C03000000040607C6B5
:1409780003F0003C060E0602001E063F0FE109C109410B218D
:14098C000C3F1E1E16000000000400070003000000000000AC
:1409A0000000000000F801FE07070E01080000000000000027
:1409B400000108070EFE07F801000000002000A800F80070E3
:1409C800007000F800A8002000200020002000FC01FC012071
:1409DC000020002000000000000020003C001C00000000004F
:1409F0000020002000200020002000200020002000000000F3
:140A0400000000000C000C0000000000000000000C000FC0EB
:140A180003F0003C000F000300FE07FF0F010801080108015A
:140A2C0008FF0FFE07000004080608FF0FFF0F000800080055
:140A400000020E030F8109C108610831081F080E0C02040341
:140A54000C0108210821082108FF0FDE07E000F00098008C17
:140A6800008608FF0FFF0F00083F043F0C210821082108219E
:140A7C0008E10FC107FC07FE0F2308210821082108E00FC041
:140A900007030003000100810FE10F79001F000700DE07FF41
:140AA4000F2108210821082108FF0FDE071E003F08210821E9
:140AB800082108210CFF07FE03000000000000180618060089
:140ACC000000000000000000000010181E180E0000000000AA
:140AE000004000E000B00118030C06060C020800000000A048
:140AF40000A000A000A000A000A000000000000208060C0CA6
:140B0800061803B001E0004000020003000100C10DE10D31F4
:140B1C00001F000E00020003000100C10DE10D31001F000E78
:140B300000F80FFC0F8600830083008600FC0FF80FFF0FFF6E
:140B44000F2108210821082108FF0FDE07FC03FE07030C01E3
:140B58000801080108030C06060108FF0FFF0F01080108031A
:140B6C000CFE07FC030108FF0FFF0F210821087108030C0363
:140B80000C0108FF0FFF0F21082100710003000300FC03FE72
:140B940007030C010841084108C307C60FFF0FFF0F200020A1
:140BA8000020002000FF0FFF0F000001080108FF0FFF0F01AE
:140BBC0008010800000006000E000800080108FF0FFF0701D2
:140BD000000108FF0FFF0F7000D8008C01070F030E0108FFE8
:140BE4000FFF0F010800080008000C000CFF0FFF0F0C00780F
:140BF8000078000C00FF0FFF0FFF0FFF0F1C0038007000E089
:140C0C0000FF0FFF0FFE07FF0F0108010801080108FF0FFE75
:140C2000070108FF0FFF0F2108210021003F001E00FE07FFC8
:140C34000F0108010E011C0138FF2FFE070108FF0FFF0F21B6
:140C48000821006100FF0F9E0F0E061F0E3108210821086126
:140C5C0008C70F8607030003000108FF0FFF0F0108030003DF
:140C700000FF07FF0F0008000800080008FF0FFF07FF01FF29
:140C8400030006000C000C0006FF03FF01FF01FF0F000EE037
:140C980003E003000EFF0FFF01070E0F0F9801F000F0009802
:140CAC00010F0F070E0F001F003008E00FE00F30081F000F56
:140CC00000030F830FC1086108310819080F0C070C000000C2
:140CD40000FF0FFF0F01080108000000005555AAAA5555AA8C
:140CE800AA5555AAAA5555AAAA0000000001080108FF0FFF33
:140CFC000F0000000008000C0006000300030006000C00089B
:140D10000000400040004000400040004000400040000000CF
:140D24000008000F0007000000000000000007900F900890CF
:140D3800089008F007E00F00080108FF0FFF0710081008309C
:140D4C0008E00FC007E007F00F1008100810081008300C2033
:140D600004C007E00F300810081108FF07FF0F0008E007F069
:140D74000F9008900890089008F00CE00400001008FE0FFFF8
:140D88000F1108110003000200E027F06F104810481048E0CB
:140D9C007FF03F10000108FF0FFF0F200010001000F00FE041
:140DB0000F000010081008F60FF60F000800080000003000A6
:140DC4006010401040F67FF63F000000000108FF0FFF0FC08C
:140DD80000C0016003300E100C000001080108FF0FFF0F005B
:140DEC000800080000F00FF00F3000E007E0073000F00FE0D8
:140E00000F1000F00FE00F100010001000F00FE00FE007F0DC
:140E14000F1008100810081008F00FE0071040F07FE07F1047
:140E28004810081008F00FE007E007F00F100810081048E00A
:140E3C007FF07F10401000F00FE00F100010001000300020E6
:140E5000006004F00C9008900890091009300F2006100010C7
:140E640000FE07FF0F1008100C00040000F007F00F00080031
:140E7800080008F007F00F0008F001F0030006000C000C0056
:140E8C0006F003F001F007F00F000C80078007000CF00FF05D
:140EA000071008300C6006C003C0036006300C1008F047F016
:140EB4004F0048004800480068F03FF01F300C300E100B9038
:140EC80009D0087008300C100C4241434B47524F554E440085
:140EDC004F56455200584F52204452415700536D616C6C2066
:140EF000466F6E740042696720466F6E74006578616D706C07
:140F04006500696E746572666163696E670050536F43206114
:140F18006E64204C434400437970726573734D6963726F001D
:140F2C00CFE5D4E0CDBFDEBFC053D0400AEA08830024E0E694
:140F4000F0E011E0E739F10711F00192FBCF0083ECE2FFE036
:140F5400A0E6B0E01FE0EC32F10721F0C89531960D92F9CFC2
:140F68000E94F915FFCF202E332401502220D9F708950E94B0
:140F7C00E917A80125E030E08A010E940018A8011A01415009
:140F900050402220D9F73320C9F70E94EC1708950E94E917B4
:140FA400A80103C000E21EE4E6DF1A01415050402220C1F7EE
:140FB8003320B1F70E94EC17089587B3806B87BB88B38F7443
:140FCC0088BB83E58DB901FD6B9A02FD6A9A07FD6D9A089572
:140FE000222420926C012092660020926400209265000895B6
:140FF4000FB9089587E690E0E0916600FF27E80FF91F008318
:14100800809166008F5F8F7F809366002090650082198F7F2A
:14101C0080936C01089500916500802F8F5F8F7F809365008A
:14103000282E8091660082198F7F80936C0187E690E0E02FCA
:14104400FF27E80FF91F0081089500916400802F8F5F8F7FA5
:141058008093640087E690E0E02FFF27E80FF91F00810895CE
:14106C00209065008091660082198F7F80936C01082F0895E7
:14108000209064000091660002190F7F08950E94E917A801C0
:141094000AE010E083DFDC9A002791DF01E20E94ED1508E888
:1410A8000E94ED1506E00E94ED1503E10E94ED1500E20E94FA
:1410BC00ED150CE00E94ED1500E40E94ED1500E80E94ED157A
:1410D000509363004093620044275527209062003090630075
:1410E400FA01E20DF31D04910E94E1154F5F5F4F483FE1E02D
:1410F8005E0784F32224332430926100209260000E94EC1791
:14110C000895109363000093620008950E94E917402F01E2A6
:141120000E94ED1500E80E94ED1500E20E94ED150E94EC1760
:1411340008950E94E91700E40E94ED1500E80E94ED154427E9
:1411480055272090620030906300FA01E20DF31D04910E94B1
:14115C00E1154F5F5F4F483FE1E05E0784F300E40E94ED1581
:1411700000E80E94ED150E94EC1708950E94E717622F402FFD
:14118400062F00640E94ED15042F00680E94ED1584E5869F4D
:141198001001442E5524240C351C30926100209260000E94EF
:1411AC00D51708950E94E517A22E602FAA2059F544275527AA
:1411C00085E0869F10018AEB96E0280E391EFA01E20DF31D0E
:1411D40004912090620030906300E0916000F0916100E20D9B
:1411E800F31DE4910E2B0E94E1154F5F5F4F809160009091AF
:1411FC006100019690936100809360004530E0E05E07C4F2A0
:1412100043C08A2D813059F54427552785E0869F10018AEB1A
:1412240096E0280E391EFA01E20DF31D049120906200309052
:141238006300E0916000F0916100E20DF31DE4910E270E9441
:14124C00E1154F5F5F4F80916000909161000196909361002E
:14126000809360004530E0E05E07C4F215C04427552720904B
:14127400620030906300E0916000F0916100E20DF31D04919A
:141288000E94E1154F5F5F4F4530E0E05E076CF32090620053
:14129C0030906300E0916000F0916100E20DF31D04910E9432
:1412B000E1150E94D81708950E94E117E22EC02E6A85AC844F
:1412C4000E2D00640E94ED150C2D00680E94ED1584E58E9DFA
:1412D80010014C2C5524240C351C3092610020926000AA2080
:1412EC0081F54427552780E1869F100181E297E0280E391E93
:1413000002E010E09A010E94C517F801E20DF31D04912090B1
:14131400620030906300E0916000F0916100E20DF31DE49119
:141328000E2B0E94E1154F5F5F4F80916000909161000196FA
:14133C0090936100809360004A30E0E05E079CF251C08A2DB1
:14135000813081F54427552780E1869F100181E297E0280ED4
:14136400391E02E010E09A010E94C517F801E20DF31D0491A6
:141378002090620030906300E0916000F0916100E20DF31D7A
:14138C00E4910E270E94E1154F5F5F4F8091600090916100BC
:1413A000019690936100809360004A30E0E05E079CF21EC0A0
:1413B400442755272090620030906300E0916000F091610056
:1413C800E20DF31D04910E94E1154F5F5F4F809160009091F7
:1413DC006100019690936100809360004A30E0E05E0724F358
:1413F0000E2D0F5F00640E94ED150C2D00680E94ED1584E58A
:141404008E9DC0018C5A9F4F2C2C3324820D931D90936100A2
:1414180080936000AA2089F54427552780E1869F100181E224
:14142C0097E0280E391E02E010E09A010E94C517F801E20DD5
:14144000F31D319604912090620030906300E0916000F091A5
:141454006100E20DF31DE4910E2B0E94E1154F5F5F4F809171
:14146800600090916100019690936100809360004A30E0E0C6
:14147C005E0794F252C08A2D813089F54427552780E1869F0C
:14149000100181E297E0280E391E02E010E09A010E94C517E5
:1414A400F801E20DF31D319604912090620030906300E0913A
:1414B8006000F0916100E20DF31DE4910E270E94E1154F5FEF
:1414CC005F4F809160009091610001969093610080936000DD
:1414E0004A30E0E05E0794F21EC0442755272090620030903C
:1414F4006300E0916000F0916100E20DF31D04910E94E115A2
:141508004F5F5F4F8091600090916100019690936100809352
:14151C0060004A30E0E05E0724F30E94DE1708950E94E317D5
:14153000622FA80195C0FA01C190AF01662369F5AA24BB2488
:1415440085E08C9D10018AEB96E0280E391EF501E20DF31D87
:1415580004912090620030906300E0916000F0916100E20D13
:14156C00F31DE4910E2B0E94E115C50101965C0180916000EA
:141580009091610001969093610080936000C5018530E0E00C
:141594009E07B4F24FC0613069F5AA24BB2485E08C9D1001AE
:1415A8008AEB96E0280E391EF501E20DF31D0491209062001B
:1415BC0030906300E0916000F0916100E20DF31DE4910E279C
:1415D0000E94E115C50101965C01809160009091610001962B
:1415E4009093610080936000C5018530E0E09E07B4F220C096
:1415F800AA24BB242090620030906300E0916000F09161004A
:14160C00E20DF31D04910E94E115C50101965C018091600073
:141620009091610001969093610080936000C5018530E0E06B
:141634009E0714F32090600030906100C101019690936100E8
:14164800809360004090620050906300F101E40DF51D04911C
:14165C000E94E115FA012080222009F066CF0E94DB170895A6
:141670000E94E317622FA80197C01A014F5F5F4FF101C4907C
:14168400662369F5AA24BB2485E08C9D10018AEB96E0280EFE
:14169800391EF501E20DF31D04912090620030906300E091B7
:1416AC006000F0916100E20DF31DE4910E2B0E94E115C501DD
:1416C00001965C018091600090916100019690936100809301
:1416D4006000C5018530E0E09E07B4F24FC0613069F5AA2450
:1416E800BB2485E08C9D10018AEB96E0280E391EF501E20D13
:1416FC00F31D04912090620030906300E0916000F09161004D
:14171000E20DF31DE4910E270E94E115C50101965C018091B9
:1417240060009091610001969093610080936000C5018530C6
:14173800E0E09E07B4F220C0AA24BB242090620030906300D0
:14174C00E0916000F0916100E20DF31D04910E94E115C501E4
:1417600001965C018091600090916100019690936100809360
:141774006000C5018530E0E09E0714F32090600030906100E9
:14178800C10101969093610080936000409062005090630088
:14179C00F101E40DF51D04910E94E115FA01E491EE2309F09D
:1417B00064CF0E94DB1708950E94C0170E94E117CE84DF84F9
:1417C400A888A6010C8500640E94ED150A8500680E94ED1506
:1417D80084E50C84809D10014A845524240C351C30926100EB
:1417EC002092600093C0FA01E190AF01AA2081F566277727FD
:1418000080E18E9D100181E297E0280E391E02E010E09B0162
:141814000E94C517F801E20DF31D0491209062003090630080
:14182800E0916000F0916100E20DF31DE4910E2B0E94E115B4
:14183C006F5F7F4F80916000909161000196909361008093DB
:1418500060006830E0E07E079CF251C08A2D813081F566273D
:14186400772780E18E9D100181E297E0280E391E02E010E0FC
:141878009B010E94C517F801E20DF31D0491209062003090E3
:14188C006300E0916000F0916100E20DF31DE4910E270E94E7
:1418A000E1156F5F7F4F809160009091610001969093610094
:1418B400809360006830E0E07E079CF21EC066277727209089
:1418C800620030906300E0916000F0916100E20DF31D049140
:1418DC000E94E1156F5F7F4F80916000909161000196909317
:1418F0006100809360006830E0E07E0724F32090620030904A
:141904006300E0916000F0916100E20DF31D04910E94E1158D
:14191800FA012080222009F068CFA6010C850F5F00640E9402
:14192C00ED150A8500680E94ED1584E50C84809DC0018C5A4D
:141940009F4F2A843324820D931D909361008093600095C015
:14195400FA01E190AF01AA2089F56627772780E18E9D100153
:1419680081E297E0280E391E02E010E09B010E94C517F8011F
:14197C00E20DF31D319604912090620030906300E0916000F6
:14199000F0916100E20DF31DE4910E2B0E94E1156F5F7F4F80
:1419A400809160009091610001969093610080936000683016
:1419B800E0E07E0794F252C08A2D813089F56627772780E1CC
:1419CC008E9D100181E297E0280E391E02E010E09B010E9454
:1419E000C517F801E20DF31D3196049120906200309063008E
:1419F400E0916000F0916100E20DF31DE4910E270E94E115EB
:141A08006F5F7F4F809160009091610001969093610080930D
:141A1C0060006830E0E07E0794F21EC06627772720906200D8
:141A300030906300E0916000F0916100E20DF31D04910E9496
:141A4400E1156F5F7F4F8091600090916100019690936100EE
:141A5800809360006830E0E07E0724F32090620030906300DE
:141A6C00E0916000F0916100E20DF31D04910E94E115FA018C
:141A80002080222009F066CF0E94DE17249608950E94C017DB
:141A94000E94E117CE84DF84A888A6010C8500640E94ED157F
:141AA8000A8500680E94ED1584E50C84809D10014A84552421
:141ABC00240C351C30926100209260009BC01A014F5F5F4F8E
:141AD000F101E490AA2081F56627772780E18E9D100181E231
:141AE40097E0280E391E02E010E09B010E94C517F801E20D16
:141AF800F31D04912090620030906300E0916000F09161004D
:141B0C00E20DF31DE4910E2B0E94E1156F5F7F4F8091600073
:141B200090916100019690936100809360006830E0E07E07C4
:141B34009CF251C08A2D813081F56627772780E18E9D100158
:141B480081E297E0280E391E02E010E09B010E94C517F8013D
:141B5C00E20DF31D04912090620030906300E0916000F0915A
:141B70006100E20DF31DE4910E270E94E1156F5F7F4F809112
:141B8400600090916100019690936100809360006830E0E085
:141B98007E079CF21EC0662777272090620030906300E09177
:141BAC006000F0916100E20DF31D04910E94E1156F5F7F4F1B
:141BC0008091600090916100019690936100809360006830F8
:141BD400E0E07E0724F32090600030906100C10101969093F4
:141BE8006100809360004090620050906300F101E40DF51DAB
:141BFC000491E1D7FA01E491EE2309F060CFA6010C850F5F39
:141C10000064E3D70A850068E0D784E50C84809DC0018C5A37
:141C24009F4F2A843324820D931D90936100809360009AC029
:141C38001A014F5F5F4FF101E490AA2081F56627772780E1EF
:141C4C008E9D100181E297E0280E391E02E010E09B010E94D1
:141C6000C517F801E20DF31D3196049120906200309063000B
:141C7400E0916000F0916100E20DF31DE4910E2B9ED76F5FB9
:141C88007F4F809160009091610001969093610080936000F9
:141C9C006830E0E07E079CF250C08A2D813081F566277727B0
:141CB00080E18E9D100181E297E0280E391E02E010E09B01AE
:141CC4000E94C517F801E20DF31D3196049120906200309068
:141CD8006300E0916000F0916100E20DF31DE4910E276BD7F7
:141CEC006F5F7F4F8091600090916100019690936100809327
:141D000060006830E0E07E079CF21DC06627772720906200EA
:141D140030906300E0916000F0916100E20DF31D04914DD72D
:141D28006F5F7F4F80916000909161000196909361008093EA
:141D3C0060006830E0E07E072CF32090600030906100C10144
:141D5000019690936100809360004090620050906300F1018A
:141D6400E40DF51D04912BD7FA01E491EE2309F061CF0E9485
:141D7800DE17249608950E94C0170E94E117CE84A8886A8983
:141D8C007B894427552722C00C851127040F151F00641DD70E
:141DA0000A8500681AD7EE24FF240FC02C2D33278A010E9463
:141DB400C517F801EE0DFF1DE60FF71F0491FFD6C70101965B
:141DC8007C012C2C3324E214F30464F34F5F5F4F2A2C33248E
:141DDC0042155305CCF22C842A0C84E5829D10014A845524C0
:141DF000240C351C4C2C5524240C351C3092610020926000B7
:141E04000E94DE17249608950E94C0170E94E1172297AC88DC
:141E180008890064DED60C850068DBD684E50888809D10013C
:141E2C004C845524240C351C3092610020926000AA2019F4CC
:141E40000FEFBFD62FC08A2D8130C9F42090600030906100B6
:141E5400C101019690936100809360004090620050906300B5
:141E6800F101E40DF51D049111278FEF90E008271927A3D6CE
:141E7C0013C02090600030906100C10101969093610080935E
:141E900060004090620050906300F101E40DF51D04918FD67A
:141EA400662775C04A89552740304507E9F04130E0E05E07EE
:141EB800E1F04230E0E05E07D9F04330E0E05E07D1F0443018
:141ECC00E0E05E07C9F04530E0E05E07C1F04630E0E05E073E
:141EE000B9F04730E0E05E07B1F018C080E8C82E17C080E893
:141EF400C82E14C080ECC82E11C080EEC82E0EC080EFC82E46
:141F08000BC088EFC82E08C08CEFC82E05C08EEFC82E02C05A
:141F1C008FEFC82EAA2079F42090620030906300E091600000
:141F3000F0916100E20DF31DE4910C2D0E2B41D61EC08A2D29
:141F4400813079F42090620030906300E0916000F091610083
:141F5800E20DF31DE4910C2D0E272FD60CC0209062003090F0
:141F6C006300E0916000F0916100E20DF31D049122D66395C7
:141F8000809160009091610001969093610080936000663036
:141F940008F488CFAA2019F40FEF11D62FC08A2D8130C9F416
:141FA8002090600030906100C10101969093610080936000A4
:141FBC004090620050906300F101E40DF51D049111278FEF5C
:141FD00090E008271927F5D513C02090600030906100C1018E
:141FE400019690936100809360004090620050906300F101F4
:141FF800E40DF51D0491E1D588898150E82EFDC088E00A88D8
:14200C00801520F4802D88508A8B02C000240A8A0E2D006464
:14202000DCD50C850068D9D584E58E9D10014C845524240C36
:14203400351C3092610020926000AA2019F40FEFBED52FC0BB
:142048008A2D8130C9F42090600030906100C10101969093B2
:14205C006100809360004090620050906300F101E40DF51D32
:14207000049111278FEF90E008271927A2D513C020906000D8
:1420840030906100C1010196909361008093600040906200A5
:1420980050906300F101E40DF51D04918ED5662774C04A8970
:1420AC00552740304507E9F04130E0E05E07D9F04230E0E07E
:1420C0005E07D1F04330E0E05E07C9F04430E0E05E07C1F04B
:1420D4004530E0E05E07B9F04630E0E05E07B1F04730E0E042
:1420E8005E07A9F017C0CC2417C080E8C82E14C080ECC82EB4
:1420FC0011C080EEC82E0EC080EFC82E0BC088EFC82E08C068
:142110008CEFC82E05C08EEFC82E02C08FEFC82EAA2079F4A5
:142124002090620030906300E0916000F0916100E20DF31DC0
:14213800E4910C2D0E2B41D51EC08A2D813079F420906200D1
:14214C0030906300E0916000F0916100E20DF31DE4910C2DFC
:142160000E272FD50CC02090620030906300E0916000F091DF
:142174006100E20DF31D049122D56395809160009091610080
:1421880001969093610080936000663008F489CFAA2019F4F4
:14219C000FEF11D52FC08A2D8130C9F4209060003090610006
:1421B000C10101969093610080936000409062005090630056
:1421C400F101E40DF51D049111278FEF90E008271927F5D41F
:1421D80013C02090600030906100C1010196909361008093FF
:1421EC0060004090620050906300F101E40DF51D0491E1D4CB
:14220000EA940E840E1408F4FFCE88E00A88801520F4802D7F
:1422140088508A8B02C000240A8A0E850064DBD40C850068B0
:14222800D8D484E50E84809D10014C845524240C351C309241
:14223C00610020926000AA2019F40FEFBCD42FC08A2D81305F
:14225000C9F42090600030906100C10101969093610080939C
:1422640060004090620050906300F101E40DF51D04911127CF
:142278008FEF90E008271927A0D413C020906000309061007D
:14228C00C10101969093610080936000409062005090630079
:1422A000F101E40DF51D04918CD466277AC02A8833243982B5
:1422B4002882222011F43320F9F0888199818130E0E09E07B0
:1422C800E1F08230E0E09E07D9F08330E0E09E07D1F08430C4
:1422DC00E0E09E07C9F08530E0E09E07C1F08630E0E09E07EA
:1422F000B9F08730E0E09E07B1F018C0CC24C39417C081E815
:14230400C82E14C081ECC82E11C081EEC82E0EC081EFC82E2E
:142318000BC089EFC82E08C08DEFC82E05C08FEFC82E02C043
:14232C008FEFC82EAA2079F42090620030906300E0916000EC
:14234000F0916100E20DF31DE4910C2D0E2B39D41EC08A2D1F
:14235400813079F42090620030906300E0916000F09161006F
:14236800E20DF31DE4910C2D0E2727D40CC0209062003090E6
:14237C006300E0916000F0916100E20DF31D04911AD46395BD
:14239000809160009091610001969093610080936000663022
:1423A40008F483CFAA2019F40FEF09D42FC08A2D8130C9F411
:1423B8002090600030906100C1010196909361008093600090
:1423CC004090620050906300F101E40DF51D049111278FEF48
:1423E00090E008271927EDD313C02090600030906100C10184
:1423F400019690936100809360004090620050906300F101E0
:14240800E40DF51D0491D9D322960E94DE17249608950E9434
:14241C00E117E22E402FCA84AC846E85042F0064D6D30E2D49
:142430000068D3D384E5849F10014E2C5524240C351C3092B7
:14244400610020926000662389F4C10101969093610080931B
:1424580060004090620050906300F101E40DF51D04910E679C
:14246C00AAD32BC06130B1F42090600030906100C101019634
:1424800090936100809360004090620050906300F101E40DF9
:14249400F51D04918EE7082792D313C0209060003090610080
:1424A800C1010196909361008093600040906200509063005B
:1424BC00F101E40DF51D04917ED341E050E038C0662371F4FA
:1424D0002090620030906300E0916000F0916100E20DF31D11
:1424E40004910E676CD31DC0613079F420906200309063008B
:1424F800E0916000F0916100E20DF31D04918EE708275BD3B7
:14250C000CC02090620030906300E0916000F0916100E20D18
:14252000F31D04914ED34F5F5F4F80916000909161000196FB
:1425340090936100809360002A2C3324421553050CF4C2CFAF
:14254800422D55274F5F5F4F38C0662371F420906200309080
:14255C006300E0916000F0916100E20DF31D0491026429D35F
:142570001DC0613079F42090620030906300E0916000F091F5
:142584006100E20DF31D049182E4082718D30CC020906200F0
:1425980030906300E0916000F0916100E20DF31D04910BD3E7
:1425AC004F5F5F4F809160009091610001969093610080939E
:1425C00060002E2C33244C2C552442185308441555050CF49D
:1425D400BECF6623A9F42090600030906100C1010196909393
:1425E8006100809360004090620050906300F101E40DF51DA1
:1425FC0004910E67E0D22BC06130B1F42090600030906100BD
:14261000C101019690936100809360004090620050906300F1
:14262400F101E40DF51D04918EE70827C8D213C020906000F7
:1426380030906100C1010196909361008093600040906200EB
:14264C0050906300F101E40DF51D0491B4D20E94DE170895F3
:142660000E94C0170E94E1172A972E8833244A8C55244218DC
:142674005308598648862C883324E88CFF24E218F308C201F0
:142688008030E0E09E075CF4809590958F5F9F4F9987888794
:14269C008FEF9FEF9B838A8304C081E090E09B838A83C7016B
:1426B0008030E0E09E0754F4809590958F5F9F4F7C018FEFA8
:1426C4009FEF9983888304C081E090E099838883EE0CFF1C7C
:1426D80008841984000C111C19860886AC88CE88C694C69421
:1426EC00C6948E899927877090709D838C8380308907D9F07A
:142700008C819D818130E0E09E07B9F08230E0E09E07A9F02B
:142714008330E0E09E0799F08430E0E09E0789F08530E0E009
:142728009E0779F08630E0E09E0769F00EC041E00DC042E03D
:14273C000BC044E009C048E007C040E105C040E203C040E4F3
:1427500001C040E8088419840E141F040CF0EDC01701359494
:142764002794B00162197309E0C06030E0E07E074CF02A80A3
:142778003B804E885524420C531C4E8A6E197F09288039803E
:14278C004C885524420C531C4C8A08841984600D711D042C05
:1427A000A41439F42E88269426942694C21409F48BC00C2D05
:1427B400006411D20A2D00680ED284E58C9D10014A2C5524B9
:1427C800240C351C30926100209260000C8C002091F4C10148
:1427DC00019690936100809360004090620050906300F101F4
:1427F000E40DF51DE491042F0E2BE3D12CC08C8D8130B1F4E2
:142804002090600030906100C101019690936100809360003F
:142818004090620050906300F101E40DF51DE491042F0E2765
:14282C00CAD113C02090600030906100C1010196909361001C
:14284000809360004090620050906300F101E40DF51D049112
:14285400B6D1AC88CE88C694C694C6948E8999278770907083
:142868009F838E8380308907D9F08E819F818130E0E09E07DB
:14287C00B9F08230E0E09E07A9F08330E0E09E0799F084309A
:14289000E0E09E0789F08530E0E09E0779F08630E0E09E07B8
:1428A40069F00EC041E041C042E03FC044E03DC048E03BC072
:1428B80040E139C040E237C040E435C040E833C08E899927CE
:1428CC00877090709F838E8380308907D9F08E819F818130E5
:1428E000E0E09E07B9F08230E0E09E07A9F08330E0E09E070E
:1428F40099F08430E0E09E0789F08530E0E09E0779F086307C
:14290800E0E09E0769F00EC041600DC042600BC0446009C0E7
:14291C00486007C0406105C0406203C0406401C040680C88CC
:14293000088D001609F01BCFEDC02884398435942794B701B3
:1429440062197309E0C06030E0E07E075CF0288039804C8892
:142958005524420C531C4C8A08841984601971092A803B80DE
:14296C004E885524420C531C4E8A6E0D7F1D0C88A01439F4E7
:14298000242C269426942694C21409F48BC00C2D006423D116
:142994000A2D006820D184E58C9D10014A2C5524240C351C8C
:1429A80030926100209260000C8C002091F4C101019690932D
:1429BC006100809360004090620050906300F101E40DF51DC9
:1429D000E491042F0E2BF5D02CC08C8D8130B1F420906000E2
:1429E40030906100C10101969093610080936000409062003C
:1429F80050906300F101E40DF51DE491042F0E27DCD013C037
:142A0C002090600030906100C1010196909361008093600035
:142A20004090620050906300F101E40DF51D0491C8D0AC88D7
:142A3400CE88C694C694C6948E899927877090709F838E8329
:142A480080308907D9F08E819F818130E0E09E07B9F08230D1
:142A5C00E0E09E07A9F08330E0E09E0799F08430E0E09E07AE
:142A700089F08530E0E09E0779F08630E0E09E0769F00EC014
:142A840041E041C042E03FC044E03DC048E03BC040E139C09D
:142A980040E237C040E435C040E833C08E899927877090700F
:142AAC009F838E8380308907D9F08E819F818130E0E09E0795
:142AC000B9F08230E0E09E07A9F08330E0E09E0799F0843054
:142AD400E0E09E0789F08530E0E09E0779F08630E0E09E0772
:142AE80069F00EC041600DC042600BC0446009C0486007C0FC
:142AFC00406105C0406203C0406401C040680E880A8D0016AB
:142B100009F01BCF0C2D006460D00A2D00685DD084E58C9DA3
:142B240010014A2C5524240C351C30926100209260000C8C4F
:142B3800002091F4C101019690936100809360004090620062
:142B4C0050906300F101E40DF51DE491042F0E2B32D02CC06E
:142B60008C8D8130B1F42090600030906100C1010196909345
:142B74006100809360004090620050906300F101E40DF51D0F
:142B8800E491042F0E2719D013C02090600030906100C101AD
:142B9C00019690936100809360004090620050906300F10130
:142BB000E40DF51D049105D02A960E94DE17249608950E9454
:142BC400E917402FDF9A042F0E94FA07779BFECF0E94EC17BB
:142BD80008950E94E917402FDF98042F0E94FA07779BFECF0F
:142BEC000E94EC1708952697F89422242BBA2ABA28BA27BA78
:142C000025BA24BA22BA21BA25BE2BBED79AD49ADF98DC98B6
:142C140078940AE710E00E94470821E005E00E94BE08222737
:142C28000FE11FE00E94380B22E005E00E94BE08222702E149
:142C3C001FE00E94380B23E008E00E94BE08222706E01FE01F
:142C50000E94380B24E004E10E94BE0822270EEF1EE00E9454
:142C6400380B60E073E86F5F7F4F6030EDE77E07D4F30E9490
:142C78009B0822242A8285EF9EE09983888321E005E00E9412
:142C8C00480D24E005E00E94BE0822270AEE1EE00E94380B6A
:142CA00060E073E86F5F7F4F6030EDE77E07D4F302E712E05E
:142CB4000E9487080E949B0881E08A8381EE9EE09983888314
:142CC80021E005E00E94480D23E00EE10E94BE0821E00CEDC7
:142CDC001EE00E94380B24E00CE00E94BE0821E001ED1EE0BC
:142CF0000E94380B60E073E86F5F7F4F6030EDE77E07D4F304
:142D04000AE710E00E9487080E949B0821E004E00E94BE0817
:142D1800222706E50E94D80823E004E00E94BE08222709E46C
:142D2C000E94D8086627772722242C826A838FE488832FE078
:142D400001E06BDB4427552722242C824A838FE488832FE023
:142D540003E061DBAA24BB24C50101965C018A34E0E09E07C2
:142D6800CCF34F5F5F4F4033E0E05E074CF36F5F7F4F603138
:142D7C00E0E07E07CCF20E949B0821E00AE00E94BE0822275F
:142D900006E50E94D80821E00EE10E94BE08222709E40E9492
:142DA400D8086627772722242C826A8384E0888322E00AE0D4
:142DB80029D84427552722242C824A8384E0888322E00EE1FE
:142DCC001FD8AA24BB24C50101965C01843EE2E09E07CCF3AD
:142DE0004F5F5F4F4431E0E05E074CF36F5F7F4F6A30E0E0B4
:142DF4007E07CCF260E073E86F5F7F4F6030EDE77E07D4F3A1
:142E08000E949B088AE694E09D838C8384E08A838EE3888371
:142E1C0021E00BE00E94BF0E60E073E86F5F7F4F6030EDE7AC
:142E30007E07D4F302E615E00E9487080E949B089CC022244D
:142E44002C828DE28A838AE288832FE006E006DC60E873EF58
:142E58006F5F7F4F6038ECE07E07D4F382E08C838DE28A832D
:142E6C008AE288832FE006E0F5DB22242C828DE28A838AE23A
:142E800088832EE007E0ECDB60E873EF6F5F7F4F6038ECE0CD
:142E94007E07D4F382E08C838DE28A838AE288832EE007E085
:142EA800DBDB22242C828DE28A838AE288832EE009E0D2DBD5
:142EBC0060E873EF6F5F7F4F6038ECE07E07D4F382E08C839B
:142ED0008DE28A838AE288832EE009E0C1DB22242C828DE205
:142EE4008A838AE288832CE00AE0B8DB60E873EF6F5F7F4F87
:142EF8006038ECE07E07D4F382E08C838DE28A838AE28883B2
:142F0C002CE00AE0A7DB22242C828DE28A838AE2888326E04C
:142F20000AE19EDB60E873EF6F5F7F4F6038ECE07E07D4F343
:142F340082E08C838DE28A838AE2888326E00AE18DDB222486
:142F48002C828DE28A838AE2888324E00BE284DB60E873EFDA
:142F5C006F5F7F4F6038ECE07E07D4F382E08C838DE28A8328
:142F70008AE2888324E00BE273DB63CF269608953A932A9382
:142F84001A930A9308950A921A928A939A93029FC001129FAD
:142F9800900D039F900D8C0199918991199009900895E2E0D7
:142FAC000C94ED17E4E00C94ED17E8E00C94ED17EE270C94E4
:142FC000ED17FA92EA92DA92CA92BA92AA927A936A935A93AA
:142FD4004A930895E1E049915991E0FD089569917991E1FD8E
:142FE8000895A990B990E2FD0895C990D990E3FD0895E99082
:122FFC00F9900895222321F0169507952A95FACF0895DB
:00000001FF
