:1000000019C033C032C031C030C02FC02EC0DEC3D3
:100010002CC02BC02AC0E5C128C027C073C125C091
:1000200024C023C022C021C020C01FC01EC01DC0CC
:100030001CC01BC011241FBECFEFD4E0DEBFCDBF5C
:1000400012E0A0E0B1E0EEE1F5E102C005900D9212
:10005000A235B107D9F712E0A2E5B2E001C01D92C6
:10006000AC35B107E1F742D458CACACFE5E2F0E0B7
:1000700080818E7F8083E4E2F0E0808181608083F4
:1000800080EC93E00197F1F780818E7F808380EA96
:100090008A95F1F783B1E8E4F3E03197F1F78170E5
:1000A0000895E5E2F0E090819E7F9083E4E2F0E045
:1000B00090819160908392E09A95F1F7882319F0EE
:1000C00080818E7F808380EA8A95F1F7E4E2F0E018
:1000D00080818E7F80830895E5E2F0E080818E7FCD
:1000E0008083E4E2F0E080818160808382E08A9511
:1000F000F1F780818E7F808385E28A95F1F783B165
:1001000098E79A95F1F7817008950F931F9300E097
:1001100017E0E2DF902F9695879588278795082F1F
:10012000092B1150B0F7802F1F910F9108950F9355
:100130001F93082F17E0802F8170B3DF06951150B1
:10014000D0F71F910F9108951F93182F8FDF8CEC1C
:10015000EEDF8EE4ECDF80E0EADF80E0E8DF12959E
:10016000110F107E812F8F61E2DF80DF1F910895D4
:10017000EF92FF920F931F93CF93DF937C0176DF73
:10018000882329F0F7011082C0E0D0E074C08CEC25
:10019000CEDF84E4CCDFA0DF8823E9F367DF8CECDB
:1001A000C6DF8EEBC4DFB1DF082FAFDF182F5EDFB5
:1001B000412F50E0342F2227802F90E0E901C82BF7
:1001C000D92BDD23B4F4882799278C1B9D0B082F8E
:1001D000282F22952F70892F90E08770907082953C
:1001E0009295907F9827807F9827282B122F119522
:1001F0000EC0202F22952F70CA01877090708295B3
:100200009295907F9827807F9827122F182B202F68
:1002100030E02F7030704DB75EB7485050400FB689
:10022000F8945EBF0FBE4DBFEDB7FEB73196F182B9
:10023000E08280E091E093838283812F992787FD7C
:1002400090959583848381E792E0AC01249FC0015F
:10025000259F900D349F900D11249783868397D608
:10026000F70113874DB75EB7485F5F4F0FB6F8943D
:100270005EBF0FBE4DBF8C2F9D2FDF91CF911F9181
:100280000F91FF90EF900895F8948FEF87B918B809
:100290008AB98BB983E084B915B88091420187BDD2
:1002A000EEE6F0E0808182608083E5E4F0E080812A
:1002B00090914301892B8083809144019091450165
:1002C0009093890080938800EFE6F0E0808182605F
:1002D0008083E1E8F0E0808190914601892B808362
:1002E000809147018093B300E0E7F0E08081826075
:1002F0008083E1EBF0E0808190914901892B80833C
:10030000789408951F920F920FB60F9211242F9395
:100310003F934F938F939F93EF93FF9316BC8FEF71
:100320008BB920915702309158022115310591F077
:10033000809159028F5F8093590290E02817390706
:10034000C9F4109259029091410181E0891B809378
:10035000410110C081E08093410196B14091560265
:10036000242F30E0F901EC5CFE4F90718081982BD6
:1003700098B910C096B140915602242F30E0F9018F
:10038000EC5CFE4F90718081982B98B9809141016F
:10039000813081F480914001882331F4F901E45CDB
:1003A000FE4F80818BB908C0F901E85CFE4F808167
:1003B0008BB902C08FEF8BB9433019F410925602FB
:1003C00004C0842F8F5F80935602FF91EF919F911D
:1003D0008F914F913F912F910F900FBE0F901F90D3
:1003E000189578941F920F920FB60F9211240F93C5
:1003F0001F932F933F934F935F936F937F938F93AD
:100400009F93AF93BF93EF93FF9310928500109249
:10041000840080914001813009F0E8C001E111E0E1
:10042000C801A6DE9C019093530280935202F8010A
:1004300093859A3034F4E5E2F0E080818260808335
:1004400004C0E5E2F0E0808180838091110188237F
:1004500009F4C0C033234CF548E351E023E331E015
:10046000F9018081DA018D9364E171E0FB01808103
:10047000992787FD90952C503040F901E80FF91F1E
:10048000F09780818E7F8C93FB018281992787FD75
:100490009095F901E80FF91FF0978081FA018283A6
:1004A000F9018385FA018383A1C0892F9A3030F541
:1004B00048E351E0DA018FEF8D9364E171E0FB01D5
:1004C0008081992787FD909527E231E0F901E80FB7
:1004D000F91FF09780818E7F8C93FB018281992791
:1004E00087FD9095F901E80FF91FF0978081FA01D7
:1004F0008283F9018385FA01838378C08A508A3523
:1005000080F568E371E003E111E0F80181919F015A
:10051000992787FD909547E251E0FA01E80FF91F0E
:10052000F0978081DB018D93F9018081992787FD08
:100530009095FA01E80FF91FF09780818E7F8C93D8
:10054000F8018381992787FD9095FA01E80FF91F3B
:10055000F0978081FB018283FA018385FB0183830D
:1005600045C008E311E062E171E0FB018191AF0158
:10057000992787FD9095A7E2B1E0FD01E80FF91FEB
:10058000F0978081F80181939F01FA01808199277A
:1005900087FD9095FD01E80FF91FF0978081F90123
:1005A0008083FB018281992787FD9095FD01E80FEB
:1005B000F91FF09780818E7FF8018283FB0184818F
:1005C000992787FD9095A80FB91FD0978C91F801B6
:1005D00083830CC080913301A8E3B1E0FD018193D6
:1005E000808312968C93129713968C938091550268
:1005F000882319F520912301309124014091520262
:1006000050915302C90108964817590744F01092B7
:100610005402E8E2F0E080818F7E808313C0C9013C
:1006200008978417950774F081E080935402E8E2FC
:10063000F0E080818061808305C0E8E2F0E08081A5
:100640008F7E8083FF91EF91BF91AF919F918F91AA
:100650007F916F915F914F913F912F911F910F91DA
:100660000F900FBE0F901F901895EF92FF920F936F
:100670001F93AA2797FDA095BA2FBC01CD0140D2A8
:1006800020E030E048EC50E446D194D27B018C016C
:100690008B0100D000D000D0EDB7FEB731968DE1D0
:1006A00091E0918380838BE091E093838283F58254
:1006B000E4826DD48DB79EB706960FB6F8949EBFB0
:1006C0000FBE8DBFFF203CF56CE371E0A3E3B1E00A
:1006D0008C91FB018193AF012FE131E0F901819110
:1006E0009F01992787FD90951C97FD01E80FF91F41
:1006F000F09780818E7FFA018083F90180819927AC
:1007000087FD9095A80FB91FD0978C91FB0182832C
:100710008FEF838356C0085E13402CF56CE371E0C5
:100720001FEFFB011193AF012FE131E0F90181913E
:100730009F01992787FD9095A7E2B1E0FD01E80FA1
:10074000F91FF09780818E7FFA018083F901808103
:10075000992787FD9095A80FB91FD0978C91FB0121
:10076000828313832EC06CE371E00EE111E0F80187
:100770008191AF01992787FD9095A7E2B1E0FD0136
:10078000E80FF91FF0978081FB0181939F01FA0127
:100790008081992787FD9095FD01E80FF91FF0975B
:1007A00080818E7FF9018083F8018281992787FDFE
:1007B0009095A80FB91FD0978C91FB0182838FEF82
:1007C00083831F910F91FF90EF9008951F920F92D6
:1007D0000FB60F9211242F933F934F935F936F9314
:1007E0007F938F939F93AF93BF93EF93FF93109259
:1007F000B20080915B028F5F80935B029091480111
:10080000891709F062C083B1282F22952695269575
:10081000237010925B02233009F43DC01092400116
:1008200083E290E090935802809357028FE0809388
:100830005A0284E1809348012130A9F0223029F541
:100840008091230190912401089790932401809333
:10085000230188569F4FCCF488E69FEF90932401A4
:100860008093230112C08091230190912401089666
:1008700090932401809323018953964034F088E3B8
:1008800096E090932401809323018091230190911D
:100890002401EBDE1AC080915502882399F48AE086
:1008A0008093480180915A02882321F081508093DF
:1008B0005A020BC081E080934001109258021092BE
:1008C000570203C081E080934001FF91EF91BF91F7
:1008D000AF919F918F917F916F915F914F913F91D8
:1008E0002F910F900FBE0F901F901895CDDC809127
:1008F0003301A8E3B1E0FD018193808312968C93CC
:10090000129713968C9381E01FDC809123019091C4
:100910002401ABDEFFCFA0E2B0E0E0E9F4E0C6C521
:1009200069837A838B839C832D833E834F8358878F
:10093000CE010196BE01675F7F4FB1D2CE01059611
:10094000BE016F5E7F4FABD29985923088F0898966
:100950008230C8F0943019F4823051F404C08430ED
:1009600029F4923081F48AE491E0C6C0923049F4CF
:1009700020E09A858A89981321E02A87CE0109967A
:10098000BBC0823049F420E09A858A89981321E01F
:100990002A8BCE014196B0C02D843E844F84588866
:1009A0006D887E888F88988CEE24FF248701AA2486
:1009B000BB24650140E050E060E070E0E0E0F0E082
:1009C000C10181709070892BE9F0E60CF71C081DBD
:1009D000191D9A01AB012A0D3B1D4C1D5D1D80E0C8
:1009E00090E0A0E0B0E0E614F7040805190520F453
:1009F00081E090E0A0E0B0E0BA01A901480F591FE2
:100A00006A1F7B1FAA0CBB1CCC1CDD1C97FE08C0F8
:100A100081E090E0A0E0B0E0A82AB92ACA2ADB2A47
:100A20003196E032F10549F0660C771C881C991C60
:100A30005694479437942794C3CFFA85EA892B8933
:100A40003C898B859C85280F391F2E5F3F4F17C02F
:100A5000CA0181709070892B61F016950795F79403
:100A6000E79480E090E0A0E0B0E8E82AF92A0A2BB9
:100A70001B2B76956795579547952F5F3F4F77FDD1
:100A8000E7CF0CC0440F551F661F771F17FD41604D
:100A9000EE0CFF1C001F111F21503040403090E031
:100AA000590790E0690790E4790760F32B8F3C8F3A
:100AB000DB01CA018F779070A070B070803491050F
:100AC000A105B10561F447FD0AC0E114F104010577
:100AD000110529F0405C5F4F6F4F7F4F40781A8EB1
:100AE000FE1711F081E08A8F4D8F5E8F6F8F78A394
:100AF00083E0898FCE014996FDD0A096E2E1F2C451
:100B0000A8E0B0E0E5E8F5E0DAC49B01AC0183E0E1
:100B10008983DA01C9018827B7FD83959927AA2718
:100B2000BB27B82E211531054105510519F482E086
:100B3000898339C08823A9F0203080E0380780E01D
:100B4000480780E8580729F460E070E080E09FECF7
:100B50002EC0EE24FF248701E21AF30A040B150BC2
:100B600002C079018A018EE1C82ED12CDC82CB82B1
:100B7000ED82FE820F831887C801B7016CD0019700
:100B80001816190684F4082E04C0EE0CFF1C001F72
:100B9000111F0A94D2F7ED82FE820F831887C81ABC
:100BA000D90ADC82CB82BA82CE010196A3D02896E4
:100BB000E9E0A1C4ACE0B0E0EFEDF5E087C4698303
:100BC0007A838B839C83CE010196BE016B5F7F4F3E
:100BD00066D18D81823061F1823050F1843021F410
:100BE0008E81882351F12EC02F81388537FD20C09A
:100BF0006E812F3131051CF06623F9F023C08EE1A0
:100C000090E0821B930B29853A854B855C8504C057
:100C100056954795379527958A95D2F76623B1F073
:100C200050954095309521953F4F4F4F5F4F0EC0E7
:100C300020E030E040E050E009C02FEF3FEF4FEF01
:100C40005FE704C020E030E040E050E8B901CA01AD
:100C50002C96E2E057C4EF92FF920F931F937B0113
:100C60008C0180E0E81680E0F80681E0080780E06B
:100C7000180788F48FEFE816F1040105110531F02B
:100C800028F088E090E0A0E0B0E017C080E090E0BD
:100C9000A0E0B0E012C080E0E81680E0F80680E056
:100CA000080781E0180728F088E190E0A0E0B0E0B4
:100CB00004C080E190E0A0E0B0E020E230E040E05D
:100CC00050E0281B390B4A0B5B0B04C016950795A7
:100CD000F794E7948A95D2F7F701EE5AFE4F808198
:100CE000281B310941095109C9011F910F91FF903A
:100CF000EF900895DF92EF92FF920F931F93FC0104
:100D0000E480F58006811781D1808081823048F4AB
:100D100080E090E0A0E1B0E0E82AF92A0A2B1B2B42
:100D2000A5C0843009F49FC0823021F4EE24FF2452
:100D3000870105C0E114F1040105110519F4E0E093
:100D4000F0E096C0628173819FEF623879070CF002
:100D50005BC022E83FEF261B370B2A3131052CF010
:100D600020E030E040E050E02AC0B801A701022EA8
:100D700004C076956795579547950A94D2F781E018
:100D800090E0A0E0B0E004C0880F991FAA1FBB1F2D
:100D90002A95D2F70197A109B1098E219F21A0239D
:100DA000B1230097A105B10521F081E090E0A0E01A
:100DB000B0E09A01AB01282B392B4A2B5B2BDA01CF
:100DC000C9018F779070A070B07080349105A10533
:100DD000B10539F427FF09C0205C3F4F4F4F5F4FEB
:100DE00004C0215C3F4F4F4F5F4FE0E0F0E0203008
:100DF000A0E03A07A0E04A07A0E45A0710F0E1E0BB
:100E0000F0E079018A0127C06038710564F5FB01C3
:100E1000E158FF4FD801C7018F779070A070B07074
:100E200080349105A105B10539F4E7FE0DC080E4D9
:100E300090E0A0E0B0E004C08FE390E0A0E0B0E07C
:100E4000E80EF91E0A1F1B1F17FF05C01695079510
:100E5000F794E794319687E016950795F794E79411
:100E60008A95D1F705C0EE24FF248701EFEFF0E06B
:100E70006E2F679566276795902F9F77D794DD240F
:100E8000D7948E2F8695492F462B582F5D29B70171
:100E9000CA011F910F91FF90EF90DF900895FC0120
:100EA000DB01408151812281622F6F7770E0221F28
:100EB0002227221F9381892F880F822B282F30E031
:100EC000991F9927991F11969C9311972115310508
:100ED000A9F5411551056105710511F482E037C08E
:100EE00082E89FEF13969C938E9312979A01AB0121
:100EF00067E0220F331F441F551F6A95D1F783E027
:100F00008C930DC0220F331F441F551F12968D91D5
:100F10009C911397019713969C938E931297203070
:100F200080E0380780E0480780E4580758F31496BB
:100F30002D933D934D935C93179708952F3F310563
:100F400079F4411551056105710519F484E08C931C
:100F5000089564FF03C081E08C9312C01C9210C0FE
:100F60002F57304013963C932E93129783E08C9327
:100F700087E0440F551F661F771F8A95D1F770646D
:100F800014964D935D936D937C9317970895AEE0FF
:100F9000B0E0ECECF7E098C20D891E8986E08C8306
:100FA0001A8309838FEF9FE79E838D839E01275EBF
:100FB0003F4FCE0101966F89788DA90109D02F810D
:100FC0003885020F131FF80110822E96E4E098C2B4
:100FD000ABE0B0E0EDEEF7E069C23C012B015A0155
:100FE000FC0117821682838181FD03C06FEF7FEFC2
:100FF000B9C19AE0892E1E010894211C311CF3010D
:101000002381F20123FD859123FF81912F01882304
:1010100009F4A5C1853239F423FD859123FF81911F
:101020002F01853221F490E0B301B6D1E8CF982F9B
:10103000FF24EE249924FFE1FF15D0F09B3269F0E4
:101040009C3228F4903259F0933291F40EC09D32C4
:1010500049F0903369F441E024C052E0F52A84E07D
:10106000F82A28C098E0F92A25C0E0E1FE2A22C02B
:10107000F7FC29C0892F80538A3070F4F6FE05C032
:10108000989C902C1124980E15C0E89CE02C1124FB
:10109000E80EF0E2FF2A0EC09E3229F4F6FC5FC192
:1010A00040E4F42A07C09C3619F450E8F52A02C03F
:1010B000983649F4F20123FD959123FF91912F0178
:1010C000992309F0B8CF892F8554833018F08052C6
:1010D000833038F444E050E0A40EB51E5FE359833A
:1010E0000FC0933631F0933779F0933509F052C041
:1010F0001FC0F5018081898342E050E0A40EB51E37
:10110000610101E010E011C0F501C080D180F6FC62
:1011100003C06FEF7FEF02C0692D70E042E050E046
:10112000A40EB51EC6012DD18C015FE7F52213C0B8
:10113000F501C080D180F6FC03C06FEF7FEF02C0E5
:10114000692D70E042E050E0A40EB51EC6010ED13C
:101150008C0150E8F52AF3FE06C018C080E290E04A
:10116000B3011AD1EA948E2D90E008171907B0F355
:101170000DC0F601F7FC8591F7FE81916F0190E0BB
:10118000B3010AD1E110EA94015010400115110594
:1011900081F7E2C0943611F0993661F5F7FE08C088
:1011A000F501208131814281538184E090E00AC0C1
:1011B000F501808191819C01442737FD4095542F92
:1011C00082E090E0A80EB91E9FE6F92257FF09C001
:1011D00050954095309521953F4F4F4F5F4FE0E838
:1011E000FE2ACA01B901A1012AE030E001D1D82EBE
:1011F000D2183FC0953729F41F2D1F7E2AE030E01A
:101200001DC01F2D197F9F3661F0903720F498354F
:1012100009F0A5C00FC0903739F0983709F09FC08A
:1012200004C028E030E00AC0106114FD146020E121
:1012300030E004C014FD166020E132E017FF08C062
:10124000F501608171818281938144E050E008C0A2
:10125000F50180819181BC0180E090E042E050E0A6
:10126000A40EB51EA101C4D0D82ED2188FE7F82E37
:10127000F122F6FE0BC05EEFF522D91438F4F4FE2D
:1012800007C0F2FC05C08FEEF82202C01D2D01C080
:10129000192DF4FE0DC0FE01ED0DF11D808180338E
:1012A00019F499EEF92208C01F5FF2FE05C003C0D1
:1012B0008F2D867809F01F5F0F2DF3FC13C0F0FE11
:1012C0000EC01E1510F09D2C0AC09D2C9E0C911A6C
:1012D0001E2D05C080E290E0B3015ED01F5F1E1599
:1012E000C8F304C01E1510F4E11A01C0EE2404FF77
:1012F0000EC080E390E0B3014FD002FF1BC001FDA0
:1013000003C088E790E00EC088E590E00BC0802F16
:10131000867881F001FF02C08BE201C080E2F7FC19
:101320008DE290E0B30138D005C080E390E0B301D6
:1013300033D09A94D914C8F3DA94F101ED0DF11D6C
:10134000808190E0B30128D0DD20B1F705C080E2B4
:1013500090E0B30121D0EA94EE20C9F750CEF3011A
:1013600066817781CB012B96E2E1BCC0FC01059040
:10137000615070400110D8F7809590958E0F9F1F97
:101380000895FC016150704001900110D8F78095DC
:1013900090958E0F9F1F08950F931F93CF93DF9308
:1013A0008C01EB018B8181FF1BC082FF0DC02E8160
:1013B0003F818C819D812817390764F4E881F98188
:1013C0000193F983E88306C0E885F985802F0995A4
:1013D000892B31F48E819F8101969F838E8302C079
:1013E0000FEF1FEFC801DF91CF911F910F9108956B
:1013F000FA01AA27283051F1203181F1E8946F9346
:101400006E7F6E5F7F4F8F4F9F4FAF4FB1E03ED0EB
:10141000B4E03CD0670F781F891F9A1FA11D680F89
:10142000791F8A1F911DA11D6A0F711D811D911DBC
:10143000A11D20D009F468943F912AE0269F112431
:101440003019305D3193DEF6CF010895462F477095
:10145000405D4193B3E00FD0C9F7F6CF462F4F70F0
:10146000405D4A3318F0495D31FD4052419302D04E
:10147000A9F7EACFB4E0A6959795879577956795F4
:10148000BA95C9F700976105710508959B01AC01F4
:101490000A2E06945795479537952795BA95C9F71B
:1014A000620F731F841F951FA01D08952F923F92F6
:1014B0004F925F926F927F928F929F92AF92BF9264
:1014C000CF92DF92EF92FF920F931F93CF93DF9310
:1014D000CDB7DEB7CA1BDB0B0FB6F894DEBF0FBE6D
:1014E000CDBF09942A88398848885F846E847D84BA
:1014F0008C849B84AA84B984C884DF80EE80FD80BC
:101500000C811B81AA81B981CE0FD11D0FB6F89431
:0E151000DEBF0FBECDBFED010895F894FFCFF2
:10151E00252B3034642E2530347500252B30356460
:10152E0000000000000000000000000000000000AD
:10153E00000000F8FFCEFF039F250D9949411F01C2
:10154E00093962FD0E0D0B07FFFFFFFFFFFFFFFFC7
:10155E0001014B04A00F05320A0700000000000035
:10156E000000000102020303030304040404040444
:10157E00040405050505050505050505050505050F
:10158E0005050606060606060606060606060606EF
:10159E0006060606060606060606060606060606DD
:1015AE0006060707070707070707070707070707BF
:1015BE0007070707070707070707070707070707AD
:1015CE00070707070707070707070707070707079D
:1015DE00070707070707070707070707070707078D
:1015EE00070708080808080808080808080808086F
:1015FE00080808080808080808080808080808085D
:10160E00080808080808080808080808080808084C
:10161E00080808080808080808080808080808083C
:10162E00080808080808080808080808080808082C
:10163E00080808080808080808080808080808081C
:10164E00080808080808080808080808080808080C
:10165E0008080808080808080808080808080808FC
:02166E0008086A
:00000001FF
