:020000020000FC
:10000000F6C2A4C1C4C118951895189525C21895B3
:100010001895F4C118951895189518951895189570
:100020001895189518950B00BF0000001F00A00040
:100030008E0604EA06BF06B7102F17FFFCCF01B1EA
:10004000087F0093BF000091BF00083031F000919D
:10005000BF00003111F001E0089500E0089504E9C7
:1000600006BF00E008958A93802F83D0002311F00B
:1000700001E003C0082F96D000E089910895D9DFF0
:10008000002311F001E0089501ED03B904E806BF73
:1000900006B7102F17FFFCCF01B1087F0093BF00F8
:1000A0000091BF00003411F001E0089500E00895D0
:1000B0000023A1F004EC06BF06B7102F17FFFCCFFA
:1000C00001B1087F0093BF000091BF00003519F017
:1000D00000E011E0089503B110E0089504E806BFC0
:1000E00006B7102F17FFFCCF01B1087F0093BF00A8
:1000F0000091BF00083519F000E011E0089503B148
:1001000010E008958CD22797C8018E01F80120E0F5
:10011000A7E02193AA95E9F700E0A5DFB0DF00236F
:1001200041F09E018C01F90147E050E06DD28C0155
:100130001DC001E0BDDF088301E0BADF098301E0F3
:10014000B7DF0A8301E0B4DF0B8301E0B1DF0C838A
:1001500001E0AEDF0D8300E0ABDF0E8380DF9E01A8
:100160008C01F90147E050E04FD28C012796E4E082
:100170005BC25FDF002311F001E0089500ED03B9D9
:1001800004E806BF06B7102F17FFFCCF01B1087FA8
:100190000093BF000091BF00083111F001E0089505
:1001A00000E0089503B904E806BF06B7102F17FF53
:1001B000FCCF01B1087F0093BF000091BF0008325F
:1001C00011F001E0089500E008952BD2902F812FC7
:1001D000D0DF002311F002E00AC0092FE3DF082F6F
:1001E000E1DF002311F001E002C039DF00E0E2E0CE
:1001F0001DC20395102F1F701A3009F40A5F0436D0
:1002000008F000E00895005019F00A9571F1089582
:100210000091C50002950F7010E0F801E955FF4FFD
:1002200000810093BB000091C50010E00F701070BA
:10023000F801E955FF4F00810093BC000091C40014
:1002400002950F7010E0F801E955FF4F008100930F
:10025000BD000091C40010E00F701070F801E95566
:10026000FF4F00810093BE0008950091C7000295E2
:100270000F7010E0F801E955FF4F00810093BB00BB
:100280000091C70010E00F701070F801E955FF4FA2
:1002900000810093BC000091C80002950F7010E02F
:1002A000F801E955FF4F00810093BD000091C8009F
:1002B00010E00F701070F801E955FF4F00810093B6
:1002C000BE0008950FEF07BB0FEF08BB03EF01BBA4
:1002D000F8940EE005BF0EE005BF0BB7006C0BBF36
:1002E00009B7016009BF0FEF1091A000011B02BF09
:1002F0000091A10013B7102B13BF00E00EBD00E06A
:1003000010E01DBD0CBDE2EAF0E0008111811BBDD3
:100310000ABD09B7006109BF00E00FBD0091A6004A
:100320000EBD0AB70ABF78940895CCDF10E000E054
:100330004CDF0093C00003EC10E0E4DE10E107E0C6
:1003400044DF0093C00000E05EDFFFCFFA93EA9342
:100350002A931A930A932FB7E0ECF0E000810395FB
:1003600000830091C0000A3018F000E00093C00044
:100370000091C00010E0F801E955FF4F008108BB73
:100380002FBF099119912991E991F99118958A93B3
:10039000FA93EA933A922A921A920A927A936A9379
:1003A0005A934A933A932A931A930A938FB7E3EC9A
:1003B000F0E0008103950083E3ECF0E0008100FFB2
:1003C00003C00AE005BF02C00EE005BF0091C300F4
:1003D0000C3319F403EC10E095DE8FBF09911991ED
:1003E000299139914991599169917991099019907F
:1003F00029903990E991F99189911895FA93EA93A6
:100400002A931A930A932FB70FEF1091A000011BA4
:1004100002BFE2ECF0E0008103950083E2ECF0E043
:100420000081037000830FEF08BB0091C20010E051
:10043000F801E954FF4F008102BB0091C20010E0B7
:10044000F801E554FF4F008108BB2FBF09911991B6
:100450002991E991F99118958A93FA93EA933A923E
:100460002A921A920A927A936A935A934A933A93E7
:100470002A931A930A938FB700E010E01DBD0CBDBC
:1004800003B30F700093C1000091C1000F3049F415
:1004900000E0B9DEE2EAF0E0008111811BBD0ABD97
:1004A00092C0E4EAF0E0008111811BBD0ABD009119
:1004B000C1000A5009F473C00A95F9F00A9591F148
:1004C0000A9531F00A9509F07EC001E09CDE7BC000
:1004D00000E099DE0091C5008CDE0093C50000911C
:1004E000C500043219F400E00093C5001091C50066
:1004F00002E06BDE0093C00066C000E084DE009185
:10050000C40077DE0093C4000091C400003619F4E3
:1005100000E00093C4001091C40001E056DE009397
:10052000C00051C001E06FDE0091C70062DE0093A1
:10053000C7000091C8000150A1F0025091F00A9547
:10054000C1F00A9571F00A95A1F00A9551F00A954B
:1005500041F00A9571F0075021F00A9551F00A9583
:1005600081F40091C700023399F401E00093C700C1
:100570000FC00091C700013359F401E00093C70098
:1005800007C00091C700093219F401E00093C700C9
:100590001091C70004E019DE0093C00014C001E010
:1005A00032DE0091C80025DE0093C8000091C8002B
:1005B000033119F401E00093C8001091C80005E070
:1005C00004DE0093C0008FBF0991199129913991E0
:1005D000499159916991799109901990299039908F
:1005E000E991F9918991189500008895FECF0FE95E
:1005F0000DBF00E00EBFC0E8D0E01FD0002309F01F
:100600002CD093DEF1DFF0CFAF93BF93D8010190F0
:100610000D9241505040D9F7BF91AF910895BA93D0
:10062000AA939A938A930895BB81AA81998188811C
:10063000F0E0EC0FFD1FEF01089501E0089520E0C8
:1006400006D0E9F70895259102D0E9F708952D9392
:1006500001501040202F212B089586E290E0FC01EC
:1006600005911491FC013296A591B491FC01349648
:1006700025913491422F432B19F0F901E4DF01C099
:10068000DEDF069610E08233910748F30895640593
:100690001A06093D03C0F9A4B0999282F8809088A7
:0D06A00083C6A1868EE0D0B070FFFFFFFF83
:0400000300000000F9
:00000001FF
