:1000000012C02CC02BC02AC029C028C027C026C0BF
:1000100025C024C023C0ABC021C020C01FC01EC04B
:100020001DC01CC01BC011241FBECFE5D4E0DEBF25
:10003000CDBF10E0A0E6B0E0E0E2F2E002C0059043
:100040000D92AE38B107D9F710E0AEE8B0E001C0CC
:100050001D92A039B107E1F781D0E0C0D1CFDF9385
:10006000CF93CDB7DEB7E4E3F0E08FE38083E5E341
:10007000F0E01082CF91DF910895DF93CF93CDB759
:10008000DEB7EBE2F0E082E08083EAE2F0E088E9CC
:100090008083E0E4F0E082E08083E9E2F0E080E762
:1000A0008083CF91DF910895DF93CF9300D0CDB7B8
:1000B000DEB79A83898380E690E029813A81B9018D
:1000C000A6D010928E00ACE2B0E080918E00882F16
:1000D00090E0FC01E05AFF4F80818C9301C000004A
:1000E000EBE2F0E08081882F90E0807290700097C2
:1000F000B1F380918E008F5F80938E0080918E008F
:10010000882F90E00197FC01E05AFF4F80818E32EA
:1001100021F080918E008031B0F2E5E3F0E082E0E2
:1001200080830F900F90CF91DF910895DF93CF934D
:10013000CDB7DEB710928F0080E790E020E830E086
:10014000B9015CD0009739F4E5E3F0E081E0808309
:1001500087E890E0A9DFCF91DF910895DF93CF93F7
:10016000CDB7DEB77CDF89DF78940000FECF1F9229
:100170000F920FB60F9211242F933F934F935F93DB
:100180006F937F938F939F93AF93BF93EF93FF935F
:10019000DF93CF930F92CDB7DEB7ECE2F0E0808132
:1001A000898380918F00882F90E0FC01E059FF4FF8
:1001B0008981808380918F008F3019F410928F0095
:1001C00005C080918F008F5F80938F0089818E3270
:1001D00009F4ACDF0F90CF91DF91FF91EF91BF91C8
:1001E000AF919F918F917F916F915F914F913F91CF
:1001F0002F910F900FBE0F901F901895FB01DC01FF
:100200008D91019080190110D9F3990B0895FB018C
:10021000DC0101900D920020E1F70895F894FFCFE2
:1002200000000000000000000000000000000000CE
:1002300000000000000000000000000000000000BE
:0E02400068656C6C6F2E00776F726C642E0018
:00000001FF
