:100000000C9446000C9465000C9465000C946500FB
:100010000C9465000C9465000C9465000C946500CC
:100020000C9465000C9465000C9465000C946500BC
:100030000C9465000C9465000C9465000C946500AC
:100040000C9465000C9465000C9482030C9465007C
:100050000C9465000C9465000C9465000C9465008C
:100060000C9465000C9465000C9465000C9465007C
:100070000C9465000C9465000C9465000C9465006C
:100080000C9465000C9465000C94650011241FBE4F
:10009000CFEFD0E1DEBFCDBF11E0A0E0B1E0EEEEEA
:1000A000FDE000E00BBF02C007900D92A235B10742
:1000B000D9F712E0A2E5B1E001C01D92A038B10766
:1000C000E1F70E9476000C94F5060C940000DF9393
:1000D000CF93CDB7DEB7E4E3F0E08FE38083E5E3D1
:1000E000F0E081E08083CF91DF910895DF93CF939B
:1000F000CDB7DEB70E9467000E94870078940E9407
:100100009E00E5E3F0E082E080830000FECFDF9315
:10011000CF93CDB7DEB7EBE2F0E082E08083EAE296
:10012000F0E088E98083E0E9F0E082E08083E9E2C2
:10013000F0E080E78083CF91DF9108950F931F93C4
:10014000DF93CF930F92CDB7DEB7198219825CC0CF
:100150008981082F10E08981282F30E0C901880F9C
:10016000991F820F931F880F991F805090400E9403
:1001700022069B01AC01C801880F991F800F911FB7
:10018000880F991FFC01EE5AFE4F20833183428372
:1001900053838981082F10E08981282F30E0C9011D
:1001A000880F991F820F931F880F991F0496805004
:1001B00090400E9428069C01C801880F991F800F5B
:1001C000911F880F991FFC01EA5AFE4F318320834B
:1001D0008981282F30E0C901880F991F820F931F52
:1001E000880F991FFC01EE5AFE4F80819181A281F8
:1001F000B3810097A105B10521F4898180930001A5
:1002000007C089818F5F89838981823308F4A0CFF9
:100210000F90CF91DF911F910F910895DF93CF93AE
:10022000CDB7DEB72C970FB6F894DEBF0FBECDBFAB
:100230009E838D836F8348873A8729871C821B8220
:100240008F818C8370C08C81282F30E08D819E81BE
:10025000FC01E20FF31F80818C3368F48C81282F1E
:1002600030E08D819E81FC01E20FF31F8081982F89
:1002700090539C870CC08C81282F30E08D819E810B
:10028000FC01E20FF31F8081982F97539C878C8588
:100290008A838C81882F90E09C012F5F3F4F8D8156
:1002A0009E81FC01E20FF31F80818C3380F48C81EE
:1002B000882F90E09C012F5F3F4F8D819E81FC0134
:1002C000E20FF31F8081982F90539B870FC08C8182
:1002D000882F90E09C012F5F3F4F8D819E81FC0114
:1002E000E20FF31F8081982F97539B878B8589831B
:1002F0008B81282F30E089859A85FC01E20FF31F5E
:100300008A81882F90E082959295907F9827807FB0
:100310009827982F8981890F80838B818F5F8B83AA
:100320008C818E5F8C838C81482F50E08F81282FA9
:1003300030E08885882F90E0820F931F84179507FF
:100340000CF081CF8B8181502C960FB6F894DEBFD4
:100350000FBECDBFCF91DF910895DF93CF9300D033
:10036000CDB7DEB79A83898381E091E029813A8114
:10037000B9010E94E40310927E02ACE2B0E08091E9
:100380007E02882F90E0FC01EF5FFE4F80818C930E
:1003900001C00000EBE2F0E08081882F90E08072E5
:1003A00090700097B1F380917E028F5F80937E0200
:1003B00080917E02882F90E00197FC01EF5FFE4F55
:1003C00080818E3221F080917E028031B0F20F90D8
:1003D0000F90CF91DF910895DF93CF9300D0CDB7E9
:1003E000DEB780911101282F30E03A83298389817B
:1003F0009A8188369105B1F029813A8129363105F3
:1004000034F489819A818236910579F016C0298168
:100410003A812237310579F089819A8183379105B4
:1004200039F00BC00E94220208C00E943A0205C0A7
:100430000E94520202C00E9400030F900F90CF91C1
:10044000DF910895DF93CF93CDB7DEB781E191E0DF
:1004500021E231E0B9010E94DB03009741F4E5E3BA
:10046000F0E081E0808387E291E00E94AD01CF91CE
:10047000DF910895DF93CF93CDB7DEB781E191E0AF
:100480002EE231E0B9010E94DB03009741F4E5E37D
:10049000F0E082E0808382E391E00E94AD01CF91A1
:1004A000DF9108950F931F93DF93CF93CDB7DEB7FE
:1004B0002C970FB6F894DEBF0FBECDBF1A821982FB
:1004C0001B821C821D821E8286E0FE013796DF01A0
:1004D000982F1D929A95E9F781E191E09E012D5F99
:1004E0003F4F61E042E00E940E018B818A8381E1EF
:1004F00091E09E012D5F3F4F63E04CE00E940E01B2
:1005000089838981863009F06CC08A81282F30E088
:10051000C901880F991F820F931F880F991F9C0193
:1005200020503040CE010396B90146E050E00E94D1
:100530002E068A81082F10E08A81282F30E0C90119
:10054000880F991F820F931F880F991F805090402A
:100550000E9422069B01AC01C801880F991F800FE1
:10056000911F880F991FFC01EE5AFE4F20833183A3
:10057000428353838A81082F10E08A81282F30E03C
:10058000C901880F991F820F931F880F991F049626
:10059000805090400E9428069C01C801880F991F36
:1005A000800F911F880F991FFC01EA5AFE4F31837B
:1005B00020838A81282F30E0C901880F991F820F7C
:1005C000931F880F991FFC01EE5AFE4F8081918185
:1005D000A281B3810097A105B10519F48A818093A6
:1005E000000187E391E00E94AD012C960FB6F894CC
:1005F000DEBF0FBECDBFCF91DF911F910F91089548
:10060000DF93CF93CDB7DEB72B970FB6F894DEBF4D
:100610000FBECDBF19821A821B821C821D8286E00A
:10062000FE013696DF01982F1D929A95E9F781E138
:1006300091E09E012E5F3F4F61E042E00E940E017B
:100640008A818983909100018981891708F04DC0C2
:100650008981A82FB0E08981282F30E0C901880F57
:10066000991F820F931F880F991FFC01EE5AFE4FAE
:1006700040815181628173818981282F30E0C901D5
:10068000880F991F820F931F880F991FFC01EA5A48
:10069000FE4F208131818DB79EB70C970FB6F8942D
:1006A0009EBF0FBE8DBFEDB7FEB7319681E091E0E2
:1006B000918380838BE391E093838283B583A483CA
:1006C0004683578360877187338722870E94EB03B5
:1006D000ADB7BEB71C960FB6F894BEBF0FBEADBF88
:1006E00081E091E00E94AD0104C08BE491E00E94A2
:1006F000AD012B960FB6F894DEBF0FBECDBFCF91E4
:10070000DF9108951F920F920FB60F9200905B0039
:100710000F9211242F933F934F935F936F937F9387
:100720008F939F93AF93BF93EF93FF93DF93CF93F9
:100730000F92CDB7DEB7ECE2F0E08081898389814A
:100740008E32B1F080917F02882F90E0FC01EF5E45
:10075000FE4F8981808380917F028F3019F410923F
:100760007F0212C080917F028F5F80937F020CC056
:1007700080917F02882F90E0FC01EF5EFE4F108297
:1007800010927F020E94EC010F90CF91DF91FF91B8
:10079000EF91BF91AF919F918F917F916F915F91F9
:1007A0004F913F912F910F9000925B000F900FBEE1
:1007B0000F901F901895FB01DC018D91019080191D
:1007C0000110D9F3990B0895FB01DC0101900D9202
:1007D0000020E1F708950F931F93DF93CF93CDB7D8
:1007E000DEB72E970FB6F894DEBF0FBECDBF0D89D2
:1007F0001E8986E08C831A8309838FEF9FE79E838F
:100800008D839E01275E3F4FCE0101966F89788DC3
:10081000A9010E941C042F813885020F131FF801C3
:1008200010822E960FB6F894DEBF0FBECDBFCF91CB
:10083000DF911F910F9108952F923F924F925F92F7
:100840006F927F928F929F92AF92BF92CF92DF92E0
:10085000EF92FF920F931F93DF93CF93CDB7DEB745
:100860002B970FB6F894DEBF0FBECDBF3C012B0116
:100870005A01FC0117821682838181FD03C06FEF4C
:100880007FEFC6C19AE0892E1E010894211C311CFD
:10089000F3012381F20123FD859123FF81912F0133
:1008A000882309F4B2C1853239F423FD859123FFF1
:1008B00081912F01853229F490E0B3010E945B06FB
:1008C000E7CF982FFF24EE249924FFE1FF15D0F005
:1008D0009B3269F09C3228F4903259F0933291F4B3
:1008E0000EC09D3249F0903369F441E024C052E0DB
:1008F000F52A84E0F82A28C098E0F92A25C0E0E12A
:10090000FE2A22C0F7FC29C0892F80538A3070F458
:10091000F6FE05C0989C902C1124980E15C0E89CFA
:10092000E02C1124E80EF0E2FF2A0EC09E3229F4DA
:10093000F6FC6BC140E4F42A07C09C3619F450E879
:10094000F52A02C0983649F4F20123FD959123FF60
:1009500091912F01992309F0B8CF892F85548330C5
:1009600018F08052833038F444E050E0A40EB51EF5
:100970005FE359830FC0933631F0933779F09335A5
:1009800009F056C020C0F5018081898342E050E023
:10099000A40EB51E610101E010E012C0F501C08097
:1009A000D180F6FC03C06FEF7FEF02C0692D70E0CD
:1009B00042E050E0A40EB51EC6010E9450068C0114
:1009C0005FE7F52214C0F501C080D180F6FC03C0BA
:1009D0006FEF7FEF02C0692D70E042E050E0A40E9F
:1009E000B51EC6010E9445068C0150E8F52AF3FEAB
:1009F00007C01AC080E290E0B3010E945B06EA944F
:100A00008E2D90E008171907A8F30EC0F601F7FC29
:100A10008591F7FE81916F0190E0B3010E945B0622
:100A2000E110EA94015010400115110579F7EAC070
:100A3000943611F0993669F5F7FE08C0F50120816A
:100A400031814281538184E090E00AC0F5018081C8
:100A500091819C01442737FD4095542F82E090E01E
:100A6000A80EB91E9FE6F92257FF09C05095409580
:100A7000309521953F4F4F4F5F4FE0E8FE2ACA0166
:100A8000B901A1012AE030E00E948706D82ED218D1
:100A900040C0953729F41F2D1F7E2AE030E01DC08D
:100AA0001F2D197F9F3661F0903720F4983509F09B
:100AB000ACC00FC0903739F0983709F0A6C004C019
:100AC00028E030E00AC0106114FD146020E130E03D
:100AD00004C014FD166020E132E017FF08C0F501E4
:100AE000608171818281938144E050E008C0F5010A
:100AF00080819181BC0180E090E042E050E0A40E52
:100B0000B51EA1010E948706D82ED2188FE7F82EB5
:100B1000F122F6FE0BC05EEFF522D91438F4F4FE94
:100B200007C0F2FC05C08FEEF82202C01D2D01C0E7
:100B3000192DF4FE0DC0FE01ED0DF11D80818033F5
:100B400019F499EEF92208C01F5FF2FE05C003C038
:100B50008F2D867809F01F5F0F2DF3FC14C0F0FE77
:100B60000FC01E1510F09D2C0BC09D2C9E0C911AD1
:100B70001E2D06C080E290E0B3010E945B061F5F5D
:100B80001E15C0F304C01E1510F4E11A01C0EE24B6
:100B900004FF0FC080E390E0B3010E945B0602FFF8
:100BA0001DC001FD03C088E790E00EC088E590E01D
:100BB0000BC0802F867891F001FF02C08BE201C04C
:100BC00080E2F7FC8DE290E0B3010E945B0606C074
:100BD00080E390E0B3010E945B069A94D914C0F3BD
:100BE000DA94F101ED0DF11D808190E0B3010E94D6
:100BF0005B06DD20A9F706C080E290E0B3010E9409
:100C00005B06EA94EE20C1F743CEF301668177815B
:100C1000CB012B960FB6F894DEBF0FBECDBFCF91A0
:100C2000DF911F910F91FF90EF90DF90CF90BF90D9
:100C3000AF909F908F907F906F905F904F903F907C
:100C40002F900895A6E1B0E044E050E00C94E70650
:100C5000A8E1B0E042E050E00C94E706DC01CB01F3
:100C600003C02D910E94390641505040D0F708959D
:100C7000262FE199FECF9FBB8EBB2DBB0FB6F894FC
:100C8000E29AE19A0FBE01960895FC010590615029
:100C900070400110D8F7809590958E0F9F1F089592
:100CA000FC016150704001900110D8F7809590953B
:100CB0008E0F9F1F08950F931F93CF93DF938C0187
:100CC000EB018B8181FF1BC082FF0DC02E813F8114
:100CD0008C819D812817390764F4E881F98101939B
:100CE000F983E88306C0E885F985802F0995892B6B
:100CF00031F48E819F8101969F838E8302C00FEF16
:100D00001FEFC801DF91CF911F910F910895FA0154
:100D1000AA27283051F1203181F1E8946F936E7F3A
:100D20006E5F7F4F8F4F9F4FAF4FB1E03ED0B4E02B
:100D30003CD0670F781F891F9A1FA11D680F791F6C
:100D40008A1F911DA11D6A0F711D811D911DA11D7D
:100D500020D009F468943F912AE0269F112430198D
:100D6000305D3193DEF6CF010895462F4770405D28
:100D70004193B3E00FD0C9F7F6CF462F4F70405DD7
:100D80004A3318F0495D31FD4052419302D0A9F732
:100D9000EACFB4E0A6959795879577956795BA952C
:100DA000C9F700976105710508959B01AC010A2EF2
:100DB00006945795479537952795BA95C9F7620FC9
:100DC000731F841F951FA01D0895DC01CB01FC013A
:100DD000E199FECF06C0FFBBEEBBE09A31960DB2A3
:0E0DE0000D9241505040B8F70895F894FFCF9F
:100DEE0032000000000000000000000000000000C3
:100DFE0000000000000000000000000000000000E5
:100E0E000068656C6C6F00776F726C642E0062798F
:100E1E0065006279652E006F6B2E00732530325897
:100E2E002530386C58253034582E004552524F52CA
:020E3E002E0084
:00000001FF
